{
  "contractName": "Auction",
  "abi": [
    {
      "inputs": [],
      "stateMutability": "nonpayable",
      "type": "constructor"
    },
    {
      "anonymous": false,
      "inputs": [
        {
          "indexed": true,
          "internalType": "address",
          "name": "owner",
          "type": "address"
        },
        {
          "indexed": true,
          "internalType": "address",
          "name": "approved",
          "type": "address"
        },
        {
          "indexed": true,
          "internalType": "uint256",
          "name": "tokenId",
          "type": "uint256"
        }
      ],
      "name": "Approval",
      "type": "event"
    },
    {
      "anonymous": false,
      "inputs": [
        {
          "indexed": true,
          "internalType": "address",
          "name": "owner",
          "type": "address"
        },
        {
          "indexed": true,
          "internalType": "address",
          "name": "operator",
          "type": "address"
        },
        {
          "indexed": false,
          "internalType": "bool",
          "name": "approved",
          "type": "bool"
        }
      ],
      "name": "ApprovalForAll",
      "type": "event"
    },
    {
      "anonymous": false,
      "inputs": [
        {
          "indexed": false,
          "internalType": "address",
          "name": "_owner",
          "type": "address"
        },
        {
          "indexed": false,
          "internalType": "uint256",
          "name": "_auctionId",
          "type": "uint256"
        }
      ],
      "name": "AuctionCanceled",
      "type": "event"
    },
    {
      "anonymous": false,
      "inputs": [
        {
          "indexed": false,
          "internalType": "address",
          "name": "_owner",
          "type": "address"
        },
        {
          "indexed": false,
          "internalType": "uint256",
          "name": "_auctionId",
          "type": "uint256"
        }
      ],
      "name": "AuctionCreated",
      "type": "event"
    },
    {
      "anonymous": false,
      "inputs": [
        {
          "indexed": false,
          "internalType": "address",
          "name": "_owner",
          "type": "address"
        },
        {
          "indexed": false,
          "internalType": "uint256",
          "name": "_auctionId",
          "type": "uint256"
        }
      ],
      "name": "AuctionFinalized",
      "type": "event"
    },
    {
      "anonymous": false,
      "inputs": [
        {
          "indexed": false,
          "internalType": "address",
          "name": "_from",
          "type": "address"
        },
        {
          "indexed": false,
          "internalType": "uint256",
          "name": "_auctionId",
          "type": "uint256"
        }
      ],
      "name": "BidSuccess",
      "type": "event"
    },
    {
      "anonymous": false,
      "inputs": [
        {
          "indexed": false,
          "internalType": "address",
          "name": "account",
          "type": "address"
        }
      ],
      "name": "Paused",
      "type": "event"
    },
    {
      "anonymous": false,
      "inputs": [
        {
          "indexed": true,
          "internalType": "bytes32",
          "name": "role",
          "type": "bytes32"
        },
        {
          "indexed": true,
          "internalType": "bytes32",
          "name": "previousAdminRole",
          "type": "bytes32"
        },
        {
          "indexed": true,
          "internalType": "bytes32",
          "name": "newAdminRole",
          "type": "bytes32"
        }
      ],
      "name": "RoleAdminChanged",
      "type": "event"
    },
    {
      "anonymous": false,
      "inputs": [
        {
          "indexed": true,
          "internalType": "bytes32",
          "name": "role",
          "type": "bytes32"
        },
        {
          "indexed": true,
          "internalType": "address",
          "name": "account",
          "type": "address"
        },
        {
          "indexed": true,
          "internalType": "address",
          "name": "sender",
          "type": "address"
        }
      ],
      "name": "RoleGranted",
      "type": "event"
    },
    {
      "anonymous": false,
      "inputs": [
        {
          "indexed": true,
          "internalType": "bytes32",
          "name": "role",
          "type": "bytes32"
        },
        {
          "indexed": true,
          "internalType": "address",
          "name": "account",
          "type": "address"
        },
        {
          "indexed": true,
          "internalType": "address",
          "name": "sender",
          "type": "address"
        }
      ],
      "name": "RoleRevoked",
      "type": "event"
    },
    {
      "anonymous": false,
      "inputs": [
        {
          "indexed": true,
          "internalType": "address",
          "name": "from",
          "type": "address"
        },
        {
          "indexed": true,
          "internalType": "address",
          "name": "to",
          "type": "address"
        },
        {
          "indexed": true,
          "internalType": "uint256",
          "name": "tokenId",
          "type": "uint256"
        }
      ],
      "name": "Transfer",
      "type": "event"
    },
    {
      "anonymous": false,
      "inputs": [
        {
          "indexed": false,
          "internalType": "address",
          "name": "account",
          "type": "address"
        }
      ],
      "name": "Unpaused",
      "type": "event"
    },
    {
      "inputs": [],
      "name": "DEED_ROLE",
      "outputs": [
        {
          "internalType": "bytes32",
          "name": "",
          "type": "bytes32"
        }
      ],
      "stateMutability": "view",
      "type": "function",
      "constant": true
    },
    {
      "inputs": [],
      "name": "DEFAULT_ADMIN_ROLE",
      "outputs": [
        {
          "internalType": "bytes32",
          "name": "",
          "type": "bytes32"
        }
      ],
      "stateMutability": "view",
      "type": "function",
      "constant": true
    },
    {
      "inputs": [],
      "name": "MINTER_ROLE",
      "outputs": [
        {
          "internalType": "bytes32",
          "name": "",
          "type": "bytes32"
        }
      ],
      "stateMutability": "view",
      "type": "function",
      "constant": true
    },
    {
      "inputs": [],
      "name": "PAUSER_ROLE",
      "outputs": [
        {
          "internalType": "bytes32",
          "name": "",
          "type": "bytes32"
        }
      ],
      "stateMutability": "view",
      "type": "function",
      "constant": true
    },
    {
      "inputs": [
        {
          "internalType": "address",
          "name": "to",
          "type": "address"
        },
        {
          "internalType": "uint256",
          "name": "tokenId",
          "type": "uint256"
        }
      ],
      "name": "approve",
      "outputs": [],
      "stateMutability": "nonpayable",
      "type": "function"
    },
    {
      "inputs": [
        {
          "internalType": "uint256",
          "name": "",
          "type": "uint256"
        },
        {
          "internalType": "uint256",
          "name": "",
          "type": "uint256"
        }
      ],
      "name": "auctionBids",
      "outputs": [
        {
          "internalType": "address payable",
          "name": "from",
          "type": "address"
        },
        {
          "internalType": "uint256",
          "name": "amount",
          "type": "uint256"
        }
      ],
      "stateMutability": "view",
      "type": "function",
      "constant": true
    },
    {
      "inputs": [
        {
          "internalType": "address",
          "name": "",
          "type": "address"
        },
        {
          "internalType": "uint256",
          "name": "",
          "type": "uint256"
        }
      ],
      "name": "auctionOwner",
      "outputs": [
        {
          "internalType": "uint256",
          "name": "",
          "type": "uint256"
        }
      ],
      "stateMutability": "view",
      "type": "function",
      "constant": true
    },
    {
      "inputs": [
        {
          "internalType": "uint256",
          "name": "",
          "type": "uint256"
        }
      ],
      "name": "auctions",
      "outputs": [
        {
          "internalType": "string",
          "name": "name",
          "type": "string"
        },
        {
          "internalType": "uint256",
          "name": "deadline",
          "type": "uint256"
        },
        {
          "internalType": "uint256",
          "name": "startPrice",
          "type": "uint256"
        },
        {
          "internalType": "string",
          "name": "metadata",
          "type": "string"
        },
        {
          "internalType": "uint256",
          "name": "tokenId",
          "type": "uint256"
        },
        {
          "internalType": "address payable",
          "name": "owner",
          "type": "address"
        },
        {
          "internalType": "bool",
          "name": "active",
          "type": "bool"
        },
        {
          "internalType": "bool",
          "name": "finalized",
          "type": "bool"
        }
      ],
      "stateMutability": "view",
      "type": "function",
      "constant": true
    },
    {
      "inputs": [
        {
          "internalType": "address",
          "name": "owner",
          "type": "address"
        }
      ],
      "name": "balanceOf",
      "outputs": [
        {
          "internalType": "uint256",
          "name": "",
          "type": "uint256"
        }
      ],
      "stateMutability": "view",
      "type": "function",
      "constant": true
    },
    {
      "inputs": [
        {
          "internalType": "uint256",
          "name": "tokenId",
          "type": "uint256"
        }
      ],
      "name": "burn",
      "outputs": [],
      "stateMutability": "nonpayable",
      "type": "function"
    },
    {
      "inputs": [
        {
          "internalType": "uint256",
          "name": "tokenId",
          "type": "uint256"
        }
      ],
      "name": "getApproved",
      "outputs": [
        {
          "internalType": "address",
          "name": "",
          "type": "address"
        }
      ],
      "stateMutability": "view",
      "type": "function",
      "constant": true
    },
    {
      "inputs": [
        {
          "internalType": "bytes32",
          "name": "role",
          "type": "bytes32"
        }
      ],
      "name": "getRoleAdmin",
      "outputs": [
        {
          "internalType": "bytes32",
          "name": "",
          "type": "bytes32"
        }
      ],
      "stateMutability": "view",
      "type": "function",
      "constant": true
    },
    {
      "inputs": [
        {
          "internalType": "bytes32",
          "name": "role",
          "type": "bytes32"
        },
        {
          "internalType": "uint256",
          "name": "index",
          "type": "uint256"
        }
      ],
      "name": "getRoleMember",
      "outputs": [
        {
          "internalType": "address",
          "name": "",
          "type": "address"
        }
      ],
      "stateMutability": "view",
      "type": "function",
      "constant": true
    },
    {
      "inputs": [
        {
          "internalType": "bytes32",
          "name": "role",
          "type": "bytes32"
        }
      ],
      "name": "getRoleMemberCount",
      "outputs": [
        {
          "internalType": "uint256",
          "name": "",
          "type": "uint256"
        }
      ],
      "stateMutability": "view",
      "type": "function",
      "constant": true
    },
    {
      "inputs": [
        {
          "internalType": "bytes32",
          "name": "role",
          "type": "bytes32"
        },
        {
          "internalType": "address",
          "name": "account",
          "type": "address"
        }
      ],
      "name": "grantRole",
      "outputs": [],
      "stateMutability": "nonpayable",
      "type": "function"
    },
    {
      "inputs": [
        {
          "internalType": "bytes32",
          "name": "role",
          "type": "bytes32"
        },
        {
          "internalType": "address",
          "name": "account",
          "type": "address"
        }
      ],
      "name": "hasRole",
      "outputs": [
        {
          "internalType": "bool",
          "name": "",
          "type": "bool"
        }
      ],
      "stateMutability": "view",
      "type": "function",
      "constant": true
    },
    {
      "inputs": [
        {
          "internalType": "address",
          "name": "owner",
          "type": "address"
        },
        {
          "internalType": "address",
          "name": "operator",
          "type": "address"
        }
      ],
      "name": "isApprovedForAll",
      "outputs": [
        {
          "internalType": "bool",
          "name": "",
          "type": "bool"
        }
      ],
      "stateMutability": "view",
      "type": "function",
      "constant": true
    },
    {
      "inputs": [],
      "name": "name",
      "outputs": [
        {
          "internalType": "string",
          "name": "",
          "type": "string"
        }
      ],
      "stateMutability": "view",
      "type": "function",
      "constant": true
    },
    {
      "inputs": [
        {
          "internalType": "uint256",
          "name": "tokenId",
          "type": "uint256"
        }
      ],
      "name": "ownerOf",
      "outputs": [
        {
          "internalType": "address",
          "name": "",
          "type": "address"
        }
      ],
      "stateMutability": "view",
      "type": "function",
      "constant": true
    },
    {
      "inputs": [],
      "name": "paused",
      "outputs": [
        {
          "internalType": "bool",
          "name": "",
          "type": "bool"
        }
      ],
      "stateMutability": "view",
      "type": "function",
      "constant": true
    },
    {
      "inputs": [
        {
          "internalType": "bytes32",
          "name": "role",
          "type": "bytes32"
        },
        {
          "internalType": "address",
          "name": "account",
          "type": "address"
        }
      ],
      "name": "renounceRole",
      "outputs": [],
      "stateMutability": "nonpayable",
      "type": "function"
    },
    {
      "inputs": [
        {
          "internalType": "bytes32",
          "name": "role",
          "type": "bytes32"
        },
        {
          "internalType": "address",
          "name": "account",
          "type": "address"
        }
      ],
      "name": "revokeRole",
      "outputs": [],
      "stateMutability": "nonpayable",
      "type": "function"
    },
    {
      "inputs": [
        {
          "internalType": "address",
          "name": "from",
          "type": "address"
        },
        {
          "internalType": "address",
          "name": "to",
          "type": "address"
        },
        {
          "internalType": "uint256",
          "name": "tokenId",
          "type": "uint256"
        }
      ],
      "name": "safeTransferFrom",
      "outputs": [],
      "stateMutability": "nonpayable",
      "type": "function"
    },
    {
      "inputs": [
        {
          "internalType": "address",
          "name": "from",
          "type": "address"
        },
        {
          "internalType": "address",
          "name": "to",
          "type": "address"
        },
        {
          "internalType": "uint256",
          "name": "tokenId",
          "type": "uint256"
        },
        {
          "internalType": "bytes",
          "name": "_data",
          "type": "bytes"
        }
      ],
      "name": "safeTransferFrom",
      "outputs": [],
      "stateMutability": "nonpayable",
      "type": "function"
    },
    {
      "inputs": [
        {
          "internalType": "address",
          "name": "operator",
          "type": "address"
        },
        {
          "internalType": "bool",
          "name": "approved",
          "type": "bool"
        }
      ],
      "name": "setApprovalForAll",
      "outputs": [],
      "stateMutability": "nonpayable",
      "type": "function"
    },
    {
      "inputs": [],
      "name": "symbol",
      "outputs": [
        {
          "internalType": "string",
          "name": "",
          "type": "string"
        }
      ],
      "stateMutability": "view",
      "type": "function",
      "constant": true
    },
    {
      "inputs": [
        {
          "internalType": "uint256",
          "name": "index",
          "type": "uint256"
        }
      ],
      "name": "tokenByIndex",
      "outputs": [
        {
          "internalType": "uint256",
          "name": "",
          "type": "uint256"
        }
      ],
      "stateMutability": "view",
      "type": "function",
      "constant": true
    },
    {
      "inputs": [
        {
          "internalType": "address",
          "name": "owner",
          "type": "address"
        },
        {
          "internalType": "uint256",
          "name": "index",
          "type": "uint256"
        }
      ],
      "name": "tokenOfOwnerByIndex",
      "outputs": [
        {
          "internalType": "uint256",
          "name": "",
          "type": "uint256"
        }
      ],
      "stateMutability": "view",
      "type": "function",
      "constant": true
    },
    {
      "inputs": [],
      "name": "totalSupply",
      "outputs": [
        {
          "internalType": "uint256",
          "name": "",
          "type": "uint256"
        }
      ],
      "stateMutability": "view",
      "type": "function",
      "constant": true
    },
    {
      "inputs": [
        {
          "internalType": "address",
          "name": "from",
          "type": "address"
        },
        {
          "internalType": "address",
          "name": "to",
          "type": "address"
        },
        {
          "internalType": "uint256",
          "name": "tokenId",
          "type": "uint256"
        }
      ],
      "name": "transferFrom",
      "outputs": [],
      "stateMutability": "nonpayable",
      "type": "function"
    },
    {
      "inputs": [
        {
          "internalType": "address",
          "name": "newOwner",
          "type": "address"
        }
      ],
      "name": "addOwnerOfContract",
      "outputs": [],
      "stateMutability": "nonpayable",
      "type": "function"
    },
    {
      "inputs": [],
      "name": "testContractOwner",
      "outputs": [
        {
          "internalType": "string",
          "name": "",
          "type": "string"
        }
      ],
      "stateMutability": "view",
      "type": "function",
      "constant": true
    },
    {
      "inputs": [],
      "name": "getCount",
      "outputs": [
        {
          "internalType": "uint256",
          "name": "",
          "type": "uint256"
        }
      ],
      "stateMutability": "view",
      "type": "function",
      "constant": true
    },
    {
      "inputs": [
        {
          "internalType": "uint256",
          "name": "_auctionId",
          "type": "uint256"
        }
      ],
      "name": "getBidsCount",
      "outputs": [
        {
          "internalType": "uint256",
          "name": "",
          "type": "uint256"
        }
      ],
      "stateMutability": "view",
      "type": "function",
      "constant": true
    },
    {
      "inputs": [
        {
          "internalType": "address",
          "name": "_owner",
          "type": "address"
        }
      ],
      "name": "getAuctionsOf",
      "outputs": [
        {
          "internalType": "uint256[]",
          "name": "",
          "type": "uint256[]"
        }
      ],
      "stateMutability": "view",
      "type": "function",
      "constant": true
    },
    {
      "inputs": [
        {
          "internalType": "uint256",
          "name": "_auctionId",
          "type": "uint256"
        }
      ],
      "name": "getCurrentBid",
      "outputs": [
        {
          "internalType": "uint256",
          "name": "",
          "type": "uint256"
        },
        {
          "internalType": "address",
          "name": "",
          "type": "address"
        }
      ],
      "stateMutability": "view",
      "type": "function",
      "constant": true
    },
    {
      "inputs": [
        {
          "internalType": "address",
          "name": "_owner",
          "type": "address"
        }
      ],
      "name": "getAuctionsCountOfOwner",
      "outputs": [
        {
          "internalType": "uint256",
          "name": "",
          "type": "uint256"
        }
      ],
      "stateMutability": "view",
      "type": "function",
      "constant": true
    },
    {
      "inputs": [
        {
          "internalType": "uint256",
          "name": "_auctionId",
          "type": "uint256"
        }
      ],
      "name": "getAuctionById",
      "outputs": [
        {
          "internalType": "string",
          "name": "name",
          "type": "string"
        },
        {
          "internalType": "uint256",
          "name": "deadline",
          "type": "uint256"
        },
        {
          "internalType": "uint256",
          "name": "startPrice",
          "type": "uint256"
        },
        {
          "internalType": "string",
          "name": "metadata",
          "type": "string"
        },
        {
          "internalType": "uint256",
          "name": "tokenId",
          "type": "uint256"
        },
        {
          "internalType": "address",
          "name": "owner",
          "type": "address"
        },
        {
          "internalType": "bool",
          "name": "active",
          "type": "bool"
        },
        {
          "internalType": "bool",
          "name": "finalized",
          "type": "bool"
        }
      ],
      "stateMutability": "view",
      "type": "function",
      "constant": true
    },
    {
      "inputs": [
        {
          "internalType": "uint256",
          "name": "tokenId",
          "type": "uint256"
        }
      ],
      "name": "isPropertyOwner",
      "outputs": [
        {
          "internalType": "bool",
          "name": "",
          "type": "bool"
        }
      ],
      "stateMutability": "view",
      "type": "function",
      "constant": true
    },
    {
      "inputs": [
        {
          "internalType": "uint256",
          "name": "_propertyId",
          "type": "uint256"
        },
        {
          "internalType": "string",
          "name": "_auctionTitle",
          "type": "string"
        },
        {
          "internalType": "uint256",
          "name": "_startPrice",
          "type": "uint256"
        },
        {
          "internalType": "uint256",
          "name": "_deadline",
          "type": "uint256"
        }
      ],
      "name": "createAuction",
      "outputs": [
        {
          "internalType": "bool",
          "name": "",
          "type": "bool"
        }
      ],
      "stateMutability": "nonpayable",
      "type": "function"
    },
    {
      "inputs": [
        {
          "internalType": "uint256",
          "name": "_auctionId",
          "type": "uint256"
        }
      ],
      "name": "cancelAuction",
      "outputs": [],
      "stateMutability": "nonpayable",
      "type": "function"
    },
    {
      "inputs": [
        {
          "internalType": "uint256",
          "name": "_auctionId",
          "type": "uint256"
        }
      ],
      "name": "finalizeAuction",
      "outputs": [],
      "stateMutability": "nonpayable",
      "type": "function"
    },
    {
      "inputs": [
        {
          "internalType": "uint256",
          "name": "_auctionId",
          "type": "uint256"
        }
      ],
      "name": "bidOnAuction",
      "outputs": [],
      "stateMutability": "payable",
      "type": "function",
      "payable": true
    },
    {
      "inputs": [
        {
          "internalType": "uint256",
          "name": "tokenId",
          "type": "uint256"
        }
      ],
      "name": "tokenURI",
      "outputs": [
        {
          "internalType": "string",
          "name": "",
          "type": "string"
        }
      ],
      "stateMutability": "view",
      "type": "function",
      "constant": true
    },
    {
      "inputs": [
        {
          "internalType": "uint256",
          "name": "tokenId",
          "type": "uint256"
        }
      ],
      "name": "tokenCreator",
      "outputs": [
        {
          "internalType": "address",
          "name": "",
          "type": "address"
        }
      ],
      "stateMutability": "view",
      "type": "function",
      "constant": true
    },
    {
      "inputs": [
        {
          "internalType": "address",
          "name": "to",
          "type": "address"
        },
        {
          "internalType": "string",
          "name": "tokenURI_",
          "type": "string"
        },
        {
          "internalType": "uint256",
          "name": "tokenId",
          "type": "uint256"
        }
      ],
      "name": "registerKadasterProperty",
      "outputs": [],
      "stateMutability": "nonpayable",
      "type": "function"
    },
    {
      "inputs": [],
      "name": "totalOfMintedTokens",
      "outputs": [
        {
          "internalType": "string",
          "name": "",
          "type": "string"
        }
      ],
      "stateMutability": "view",
      "type": "function",
      "constant": true
    },
    {
      "inputs": [],
      "name": "pause",
      "outputs": [],
      "stateMutability": "nonpayable",
      "type": "function"
    },
    {
      "inputs": [],
      "name": "unpause",
      "outputs": [],
      "stateMutability": "nonpayable",
      "type": "function"
    },
    {
      "inputs": [
        {
          "internalType": "bytes4",
          "name": "interfaceId",
          "type": "bytes4"
        }
      ],
      "name": "supportsInterface",
      "outputs": [
        {
          "internalType": "bool",
          "name": "",
          "type": "bool"
        }
      ],
      "stateMutability": "view",
      "type": "function",
      "constant": true
    }
  ],
  "bytecode": "0x60806040523480156200001157600080fd5b5060408051808201825260048152631119595960e21b60208083019182528351808501909452600584526446756e646160d81b9084015281519192916200005b916002916200027b565b508051620000719060039060208401906200027b565b5050600c805460ff19169055506200008c6000335b62000116565b620000b87f9f2df0fed2c77648de5860a4cc508cd0818c85b8b8a1ab4ceeef8d981c8956a63362000086565b620000e47f65d7a28e3265b37a6474929f336521b332c1681b933f6cb9f3376673440d862a3362000086565b620001107fc1a91faf0b957ac4b0051135514dc51df8ef6693c497eeacd753596aa67c1d0a3362000086565b6200035e565b6200012d82826200015960201b6200266e1760201c565b6000828152600160209081526040909120620001549183906200267c62000169821b17901c565b505050565b62000165828262000189565b5050565b600062000180836001600160a01b03841662000229565b90505b92915050565b6000828152602081815260408083206001600160a01b038516845290915290205460ff1662000165576000828152602081815260408083206001600160a01b03851684529091529020805460ff19166001179055620001e53390565b6001600160a01b0316816001600160a01b0316837f2f8788117e7eff1d82e926ec794901d17c78024a50270940304540a733656f0d60405160405180910390a45050565b6000818152600183016020526040812054620002725750815460018181018455600084815260208082209093018490558454848252828601909352604090209190915562000183565b50600062000183565b828054620002899062000321565b90600052602060002090601f016020900481019282620002ad5760008555620002f8565b82601f10620002c857805160ff1916838001178555620002f8565b82800160010185558215620002f8579182015b82811115620002f8578251825591602001919060010190620002db565b50620003069291506200030a565b5090565b5b808211156200030657600081556001016200030b565b600181811c908216806200033657607f821691505b602082108114156200035857634e487b7160e01b600052602260045260246000fd5b50919050565b614259806200036e6000396000f3fe6080604052600436106102c95760003560e01c80638456cb5911610175578063c7adec5f116100dc578063d56aa55811610095578063e7ec78e31161006f578063e7ec78e31461090d578063e808386314610922578063e93d789914610942578063e985e9c514610976576102c9565b8063d56aa55814610878578063da4e364f146108ae578063e63ab1e9146108eb576102c9565b8063c7adec5f146107a4578063c8756cda146107c4578063c87b56dd146107e4578063ca15c87314610804578063d539139314610824578063d547741f14610858576102c9565b806398c2e34f1161012e57806398c2e34f146106ed578063a217fddf1461070d578063a22cb46514610722578063a87d942c14610742578063b1b61bfa14610757578063b88d4fde14610784576102c9565b80638456cb59146106435780638edb3390146106585780639010d07c1461067857806391d148541461069857806395d89b41146106b857806396b5a755146106cd576102c9565b806336568abe116102345780634589300b116101ed5780635c975abb116101c75780635c975abb146105ac5780635f93de49146105c45780636352211e1461060357806370a0823114610623576102c9565b80634589300b1461054c5780634f6ccce71461056c578063571a26a01461058c576102c9565b806336568abe1461048a5780633f4ba83a146104aa5780634008f9c0146104bf57806340c1a064146104ec57806342842e0e1461050c57806342966c681461052c576102c9565b806318160ddd1161028657806318160ddd146103c857806323b872dd146103e7578063248a9ca31461040757806326b7aeea146104375780632f2ff15d1461044a5780632f745c591461046a576102c9565b806301ffc9a7146102ce57806306fdde0314610303578063081812fc1461032557806308b83ae41461035d578063095ea7b31461037257806318111ada14610394575b600080fd5b3480156102da57600080fd5b506102ee6102e9366004613d43565b6109bf565b60405190151581526020015b60405180910390f35b34801561030f57600080fd5b506103186109d2565b6040516102fa9190613ef2565b34801561033157600080fd5b50610345610340366004613ce8565b610a64565b6040516001600160a01b0390911681526020016102fa565b34801561036957600080fd5b50610318610af1565b34801561037e57600080fd5b5061039261038d366004613cbf565b610b82565b005b3480156103a057600080fd5b506103b46103af366004613ce8565b610c98565b6040516102fa989796959493929190613f05565b3480156103d457600080fd5b50600a545b6040519081526020016102fa565b3480156103f357600080fd5b50610392610402366004613b7c565b610eaa565b34801561041357600080fd5b506103d9610422366004613ce8565b60009081526020819052604090206001015490565b610392610445366004613ce8565b610edc565b34801561045657600080fd5b50610392610465366004613d00565b611243565b34801561047657600080fd5b506103d9610485366004613cbf565b611265565b34801561049657600080fd5b506103926104a5366004613d00565b6112fe565b3480156104b657600080fd5b50610392611320565b3480156104cb57600080fd5b506103d96104da366004613ce8565b60009081526011602052604090205490565b3480156104f857600080fd5b50610345610507366004613ce8565b6113b6565b34801561051857600080fd5b50610392610527366004613b7c565b6113f9565b34801561053857600080fd5b50610392610547366004613ce8565b611414565b34801561055857600080fd5b50610392610567366004613c6a565b61148e565b34801561057857600080fd5b506103d9610587366004613ce8565b61158b565b34801561059857600080fd5b506103b46105a7366004613ce8565b61162c565b3480156105b857600080fd5b50600c5460ff166102ee565b3480156105d057600080fd5b506105e46105df366004613d22565b6117a8565b604080516001600160a01b0390931683526020830191909152016102fa565b34801561060f57600080fd5b5061034561061e366004613ce8565b6117ee565b34801561062f57600080fd5b506103d961063e366004613b30565b611865565b34801561064f57600080fd5b506103926118ec565b34801561066457600080fd5b506102ee610673366004613d7b565b61197e565b34801561068457600080fd5b50610345610693366004613d22565b611b6b565b3480156106a457600080fd5b506102ee6106b3366004613d00565b611b8a565b3480156106c457600080fd5b50610318611bb3565b3480156106d957600080fd5b506103926106e8366004613ce8565b611bc2565b3480156106f957600080fd5b50610392610708366004613b30565b611efd565b34801561071957600080fd5b506103d9600081565b34801561072e57600080fd5b5061039261073d366004613c30565b611fa1565b34801561074e57600080fd5b506010546103d9565b34801561076357600080fd5b50610777610772366004613b30565b612073565b6040516102fa9190613eae565b34801561079057600080fd5b5061039261079f366004613bb7565b6120df565b3480156107b057600080fd5b506102ee6107bf366004613ce8565b612117565b3480156107d057600080fd5b506103d96107df366004613cbf565b612135565b3480156107f057600080fd5b506103186107ff366004613ce8565b612166565b34801561081057600080fd5b506103d961081f366004613ce8565b612222565b34801561083057600080fd5b506103d97f9f2df0fed2c77648de5860a4cc508cd0818c85b8b8a1ab4ceeef8d981c8956a681565b34801561086457600080fd5b50610392610873366004613d00565b612239565b34801561088457600080fd5b506103d9610893366004613b30565b6001600160a01b031660009081526012602052604090205490565b3480156108ba57600080fd5b506108ce6108c9366004613ce8565b612243565b604080519283526001600160a01b039091166020830152016102fa565b3480156108f757600080fd5b506103d960008051602061420483398151915281565b34801561091957600080fd5b506103186122e1565b34801561092e57600080fd5b5061039261093d366004613ce8565b6122ff565b34801561094e57600080fd5b506103d97fc1a91faf0b957ac4b0051135514dc51df8ef6693c497eeacd753596aa67c1d0a81565b34801561098257600080fd5b506102ee610991366004613b4a565b6001600160a01b03918216600090815260076020908152604080832093909416825291909152205460ff1690565b60006109ca82612691565b90505b919050565b6060600280546109e190614141565b80601f0160208091040260200160405190810160405280929190818152602001828054610a0d90614141565b8015610a5a5780601f10610a2f57610100808354040283529160200191610a5a565b820191906000526020600020905b815481529060010190602001808311610a3d57829003601f168201915b5050505050905090565b6000610a6f826126b6565b610ad55760405162461bcd60e51b815260206004820152602c60248201527f4552433732313a20617070726f76656420717565727920666f72206e6f6e657860448201526b34b9ba32b73a103a37b5b2b760a11b60648201526084015b60405180910390fd5b506000908152600660205260409020546001600160a01b031690565b6060610afe6000336106b3565b610b4a5760405162461bcd60e51b815260206004820152601d60248201527f4d61737465723a206d75737420686176652061646d696e20726f6c65210000006044820152606401610acc565b5060408051808201909152601781527f596f752061726520636f6e7472616374206f776e657221000000000000000000602082015290565b6000610b8d826117ee565b9050806001600160a01b0316836001600160a01b03161415610bfb5760405162461bcd60e51b815260206004820152602160248201527f4552433732313a20617070726f76616c20746f2063757272656e74206f776e656044820152603960f91b6064820152608401610acc565b336001600160a01b0382161480610c175750610c178133610991565b610c895760405162461bcd60e51b815260206004820152603860248201527f4552433732313a20617070726f76652063616c6c6572206973206e6f74206f7760448201527f6e6572206e6f7220617070726f76656420666f7220616c6c00000000000000006064820152608401610acc565b610c9383836126d3565b505050565b60606000806060600080600080600060108a81548110610cc857634e487b7160e01b600052603260045260246000fd5b906000526020600020906006020160405180610100016040529081600082018054610cf290614141565b80601f0160208091040260200160405190810160405280929190818152602001828054610d1e90614141565b8015610d6b5780601f10610d4057610100808354040283529160200191610d6b565b820191906000526020600020905b815481529060010190602001808311610d4e57829003601f168201915b505050505081526020016001820154815260200160028201548152602001600382018054610d9890614141565b80601f0160208091040260200160405190810160405280929190818152602001828054610dc490614141565b8015610e115780601f10610de657610100808354040283529160200191610e11565b820191906000526020600020905b815481529060010190602001808311610df457829003601f168201915b505050918352505060048201546020808301919091526005909201546001600160a01b03811660408084019190915260ff600160a01b830481161515606080860191909152600160a81b90930416151560809384015284519385015190850151918501519285015160a086015160c087015160e090970151959f50919d50919b5091995097509550909350915050919395975091939597565b610eb5335b82612741565b610ed15760405162461bcd60e51b8152600401610acc90613fbe565b610c93838383612827565b6000349050600060108381548110610f0457634e487b7160e01b600052603260045260246000fd5b906000526020600020906006020160405180610100016040529081600082018054610f2e90614141565b80601f0160208091040260200160405190810160405280929190818152602001828054610f5a90614141565b8015610fa75780601f10610f7c57610100808354040283529160200191610fa7565b820191906000526020600020905b815481529060010190602001808311610f8a57829003601f168201915b505050505081526020016001820154815260200160028201548152602001600382018054610fd490614141565b80601f016020809104026020016040519081016040528092919081815260200182805461100090614141565b801561104d5780601f106110225761010080835404028352916020019161104d565b820191906000526020600020905b81548152906001019060200180831161103057829003601f168201915b5050509183525050600482015460208201526005909101546001600160a01b03808216604084015260ff600160a01b8304811615156060850152600160a81b909204909116151560809092019190915260a0820151919250163314156110b257600080fd5b80602001514211156110c357600080fd5b60008381526011602090815260408083205484820151825180840190935284835292820193909352821561116057600086815260116020526040902061110a6001856140e7565b8154811061112857634e487b7160e01b600052603260045260246000fd5b60009182526020918290206040805180820190915260029092020180546001600160a01b031682526001015491810182905290925090505b8185101561116d57600080fd5b82156111a857805160208201516040516001600160a01b039092169181156108fc0291906000818181858888f193505050506111a857600080fd5b60408051808201825233808252602080830189815260008b81526011835285812080546001808201835591835291849020865160029093020180546001600160a01b0319166001600160a01b03909316929092178255915191015583519182528101899052825191927f5762e6a7d331cd17a1761e94de3ea3b85e90ee6cdd9d1204e361cc650689d46392918290030190a150505050505050565b61124d82826129d2565b6000828152600160205260409020610c93908261267c565b600061127083611865565b82106112d25760405162461bcd60e51b815260206004820152602b60248201527f455243373231456e756d657261626c653a206f776e657220696e646578206f7560448201526a74206f6620626f756e647360a81b6064820152608401610acc565b506001600160a01b03821660009081526008602090815260408083208484529091529020545b92915050565b61130882826129f9565b6000828152600160205260409020610c939082612a73565b611338600080516020614204833981519152336106b3565b6113ac576040805162461bcd60e51b81526020600482015260248101919091527f4552433732315072657365744d696e7465725061757365724175746f49643a2060448201527f6d75737420686176652070617573657220726f6c6520746f20756e70617573656064820152608401610acc565b6113b4612a88565b565b60006113c1826126b6565b6113dd5760405162461bcd60e51b8152600401610acc9061400f565b506000908152600f60205260409020546001600160a01b031690565b610c93838383604051806020016040528060008152506120df565b61141d33610eaf565b6114825760405162461bcd60e51b815260206004820152603060248201527f4552433732314275726e61626c653a2063616c6c6572206973206e6f74206f7760448201526f1b995c881b9bdc88185c1c1c9bdd995960821b6064820152608401610acc565b61148b81612b1b565b50565b6114b87f9f2df0fed2c77648de5860a4cc508cd0818c85b8b8a1ab4ceeef8d981c8956a6336106b3565b6115125760405162461bcd60e51b815260206004820152602560248201527f4d61737465723a206d7573742068617665206d696e74657220726f6c6520746f604482015264081b5a5b9d60da1b6064820152608401610acc565b61151b816126b6565b156115685760405162461bcd60e51b815260206004820181905260248201527f4d61737465723a20546f6b656e496420616c7265616479206578697374656e746044820152606401610acc565b611576600d80546001019055565b6115808382612bc2565b610c93818385612bdc565b6000611596600a5490565b82106115f95760405162461bcd60e51b815260206004820152602c60248201527f455243373231456e756d657261626c653a20676c6f62616c20696e646578206f60448201526b7574206f6620626f756e647360a01b6064820152608401610acc565b600a828154811061161a57634e487b7160e01b600052603260045260246000fd5b90600052602060002001549050919050565b6010818154811061163c57600080fd5b906000526020600020906006020160009150905080600001805461165f90614141565b80601f016020809104026020016040519081016040528092919081815260200182805461168b90614141565b80156116d85780601f106116ad576101008083540402835291602001916116d8565b820191906000526020600020905b8154815290600101906020018083116116bb57829003601f168201915b5050505050908060010154908060020154908060030180546116f990614141565b80601f016020809104026020016040519081016040528092919081815260200182805461172590614141565b80156117725780601f1061174757610100808354040283529160200191611772565b820191906000526020600020905b81548152906001019060200180831161175557829003601f168201915b50505060048401546005909401549293926001600160a01b038116925060ff600160a01b820481169250600160a81b9091041688565b601160205281600052604060002081815481106117c457600080fd5b6000918252602090912060029091020180546001909101546001600160a01b039091169250905082565b6000818152600460205260408120546001600160a01b0316806109ca5760405162461bcd60e51b815260206004820152602960248201527f4552433732313a206f776e657220717565727920666f72206e6f6e657869737460448201526832b73a103a37b5b2b760b91b6064820152608401610acc565b60006001600160a01b0382166118d05760405162461bcd60e51b815260206004820152602a60248201527f4552433732313a2062616c616e636520717565727920666f7220746865207a65604482015269726f206164647265737360b01b6064820152608401610acc565b506001600160a01b031660009081526005602052604090205490565b611904600080516020614204833981519152336106b3565b6119765760405162461bcd60e51b815260206004820152603e60248201527f4552433732315072657365744d696e7465725061757365724175746f49643a2060448201527f6d75737420686176652070617573657220726f6c6520746f20706175736500006064820152608401610acc565b6113b4612c8d565b600061198985612117565b15156001146119aa5760405162461bcd60e51b8152600401610acc90614056565b33306119b78282896113f9565b60006119c288612166565b601080546040805161010081018252600060e082018190528c825260208083018c90529282018c905260608201869052608082018e90526001600160a01b03891660a0830152600160c08301819052840185559390935282518051949550919383927f1b6847dc741a1b0cd08d278845f9d819d87b734759afb55fe2de5cb82a9ae672600687020192611a5a928492909101906139eb565b5060208281015160018301556040830151600283015560608301518051611a8792600385019201906139eb565b506080820151600482015560a08201516005909101805460c084015160e0909401511515600160a81b0260ff60a81b19941515600160a01b026001600160a81b03199092166001600160a01b03948516179190911793909316929092179091558516600090815260126020908152604080832080546001810182559084529190922001839055517f3249a06bd478adf780bb7930214ad005e9cfa517d63221c0b77f27199d1a58b390611b5190879085906001600160a01b03929092168252602082015260400190565b60405180910390a16001955050505050505b949350505050565b6000828152600160205260408120611b839083612d08565b9392505050565b6000918252602082815260408084206001600160a01b0393909316845291905290205460ff1690565b6060600380546109e190614141565b611bcb81612117565b1515600114611bec5760405162461bcd60e51b8152600401610acc90614056565b600060108281548110611c0f57634e487b7160e01b600052603260045260246000fd5b906000526020600020906006020160405180610100016040529081600082018054611c3990614141565b80601f0160208091040260200160405190810160405280929190818152602001828054611c6590614141565b8015611cb25780601f10611c8757610100808354040283529160200191611cb2565b820191906000526020600020905b815481529060010190602001808311611c9557829003601f168201915b505050505081526020016001820154815260200160028201548152602001600382018054611cdf90614141565b80601f0160208091040260200160405190810160405280929190818152602001828054611d0b90614141565b8015611d585780601f10611d2d57610100808354040283529160200191611d58565b820191906000526020600020905b815481529060010190602001808311611d3b57829003601f168201915b505050918352505060048201546020808301919091526005909201546001600160a01b03811660408084019190915260ff600160a01b8304811615156060850152600160a81b9092049091161515608090920191909152600085815260119092529020549091508015611e56576000838152601160205260408120611dde6001846140e7565b81548110611dfc57634e487b7160e01b600052603260045260246000fd5b60009182526020808320604080518082018252600290940290910180546001600160a01b031680855260019091015492840183905290519294509281156108fc029290818181858888f19350505050611e5457600080fd5b505b611e69308360a001518460800151612d14565b15610c9357600060108481548110611e9157634e487b7160e01b600052603260045260246000fd5b60009182526020918290206005600690920201018054921515600160a01b0260ff60a01b1990931692909217909155604080513381529182018590527f39e6c898ce035bbacd9ba4f9753534f8c9f976e0ff70be83cfe887f235afa1d3910160405180910390a1505050565b611f086000336106b3565b611f545760405162461bcd60e51b815260206004820152601d60248201527f4d61737465723a206d75737420686176652061646d696e20726f6c65210000006044820152606401610acc565b611f5f600082612d35565b611f897f9f2df0fed2c77648de5860a4cc508cd0818c85b8b8a1ab4ceeef8d981c8956a682612d35565b61148b60008051602061420483398151915282612d35565b6001600160a01b038216331415611ffa5760405162461bcd60e51b815260206004820152601960248201527f4552433732313a20617070726f766520746f2063616c6c6572000000000000006044820152606401610acc565b3360008181526007602090815260408083206001600160a01b0387168085529252909120805460ff1916841515179055906001600160a01b03167f17307eab39ab6107e8899845ad3d59bd9653f200f220920489ca2b5937696c3183604051612067911515815260200190565b60405180910390a35050565b6001600160a01b03811660009081526012602090815260408083208054825181850281018501909352808352606094938301828280156120d257602002820191906000526020600020905b8154815260200190600101908083116120be575b5093979650505050505050565b6120e93383612741565b6121055760405162461bcd60e51b8152600401610acc90613fbe565b61211184848484612d3f565b50505050565b600080612123836117ee565b6001600160a01b031633149392505050565b6012602052816000526040600020818154811061215157600080fd5b90600052602060002001600091509150505481565b6060612171826126b6565b61218d5760405162461bcd60e51b8152600401610acc9061400f565b6000828152600e6020526040812080546121a690614141565b80601f01602080910402602001604051908101604052809291908181526020018280546121d290614141565b80156120d25780601f106121f4576101008083540402835291602001916120d2565b820191906000526020600020905b815481529060010190602001808311612202575093979650505050505050565b60008181526001602052604081206109ca90612d72565b6113088282612d7c565b600081815260116020526040812054819080156122d35760008481526011602052604081206122736001846140e7565b8154811061229157634e487b7160e01b600052603260045260246000fd5b60009182526020918290206040805180820190915260029092020180546001600160a01b031680835260019091015491909201819052945092506122dc915050565b60008092509250505b915091565b606060006122ee600d5490565b90506122f981612da2565b91505090565b60006010828154811061232257634e487b7160e01b600052603260045260246000fd5b90600052602060002090600602016040518061010001604052908160008201805461234c90614141565b80601f016020809104026020016040519081016040528092919081815260200182805461237890614141565b80156123c55780601f1061239a576101008083540402835291602001916123c5565b820191906000526020600020905b8154815290600101906020018083116123a857829003601f168201915b5050505050815260200160018201548152602001600282015481526020016003820180546123f290614141565b80601f016020809104026020016040519081016040528092919081815260200182805461241e90614141565b801561246b5780601f106124405761010080835404028352916020019161246b565b820191906000526020600020905b81548152906001019060200180831161244e57829003601f168201915b505050918352505060048201546020808301919091526005909201546001600160a01b03811660408084019190915260ff600160a01b8304811615156060850152600160a81b909204909116151560809092019190915260008581526011909252902054909150806124e5576124e083611bc2565b610c93565b60008381526011602052604081206124fe6001846140e7565b8154811061251c57634e487b7160e01b600052603260045260246000fd5b60009182526020808320604080518082018252600290940290910180546001600160a01b03908116855260019091015492840183905260a08801519151939550169281156108fc029290818181858888f1935050505061257b57600080fd5b61258e3082600001518560800151612d14565b15612111576000601085815481106125b657634e487b7160e01b600052603260045260246000fd5b906000526020600020906006020160050160146101000a81548160ff02191690831515021790555060016010858154811061260157634e487b7160e01b600052603260045260246000fd5b60009182526020918290206005600690920201018054921515600160a81b0260ff60a81b1990931692909217909155604080513381529182018690527f357afab190ee87fe0ef1c717f2728d2904d9e415a069d99f4d9382873cb3279d910160405180910390a150505050565b6126788282612ebd565b5050565b6000611b83836001600160a01b038416612f41565b60006001600160e01b0319821663780e9d6360e01b14806109ca57506109ca82612f90565b6000908152600460205260409020546001600160a01b0316151590565b600081815260066020526040902080546001600160a01b0319166001600160a01b0384169081179091558190612708826117ee565b6001600160a01b03167f8c5be1e5ebec7d5bd14f71427d1e84f3dd0314c0f7b2291e5b200ac8c7c3b92560405160405180910390a45050565b600061274c826126b6565b6127ad5760405162461bcd60e51b815260206004820152602c60248201527f4552433732313a206f70657261746f7220717565727920666f72206e6f6e657860448201526b34b9ba32b73a103a37b5b2b760a11b6064820152608401610acc565b60006127b8836117ee565b9050806001600160a01b0316846001600160a01b031614806127f35750836001600160a01b03166127e884610a64565b6001600160a01b0316145b80611b6357506001600160a01b0380821660009081526007602090815260408083209388168352929052205460ff16611b63565b826001600160a01b031661283a826117ee565b6001600160a01b0316146128a25760405162461bcd60e51b815260206004820152602960248201527f4552433732313a207472616e73666572206f6620746f6b656e2074686174206960448201526839903737ba1037bbb760b91b6064820152608401610acc565b6001600160a01b0382166129045760405162461bcd60e51b8152602060048201526024808201527f4552433732313a207472616e7366657220746f20746865207a65726f206164646044820152637265737360e01b6064820152608401610acc565b61290f838383612fd0565b61291a6000826126d3565b6001600160a01b03831660009081526005602052604081208054600192906129439084906140e7565b90915550506001600160a01b038216600090815260056020526040812080546001929061297190849061409c565b909155505060008181526004602052604080822080546001600160a01b0319166001600160a01b0386811691821790925591518493918716917fddf252ad1be2c89b69c2b068fc378daa952ba7f163c4a11628f55a4df523b3ef91a4505050565b6000828152602081905260409020600101546129ef81335b612fdb565b610c938383612ebd565b6001600160a01b0381163314612a695760405162461bcd60e51b815260206004820152602f60248201527f416363657373436f6e74726f6c3a2063616e206f6e6c792072656e6f756e636560448201526e103937b632b9903337b91039b2b63360891b6064820152608401610acc565b612678828261303f565b6000611b83836001600160a01b0384166130a4565b600c5460ff16612ad15760405162461bcd60e51b815260206004820152601460248201527314185d5cd8589b194e881b9bdd081c185d5cd95960621b6044820152606401610acc565b600c805460ff191690557f5db9ee0a495bf2e6ff9c91a7834c1ba4fdd244a5e8aa4e537bd38aeae4b073aa335b6040516001600160a01b03909116815260200160405180910390a1565b6000612b26826117ee565b9050612b3481600084612fd0565b612b3f6000836126d3565b6001600160a01b0381166000908152600560205260408120805460019290612b689084906140e7565b909155505060008281526004602052604080822080546001600160a01b0319169055518391906001600160a01b038416907fddf252ad1be2c89b69c2b068fc378daa952ba7f163c4a11628f55a4df523b3ef908390a45050565b6126788282604051806020016040528060008152506131bb565b612be5836126b6565b612c3d5760405162461bcd60e51b8152602060048201526024808201527f4d61737465723a2055524920736574206f66206e6f6e6578697374656e74207460448201526337b5b2b760e11b6064820152608401610acc565b6000838152600e602090815260409091208351612c5c928501906139eb565b506000928352600f602052604090922080546001600160a01b0319166001600160a01b039093169290921790915550565b600c5460ff1615612cd35760405162461bcd60e51b815260206004820152601060248201526f14185d5cd8589b194e881c185d5cd95960821b6044820152606401610acc565b600c805460ff191660011790557f62e78cea01bee320cd4e420270b5ea74000d11b0c9f74754ebdbfc544b05a258612afe3390565b6000611b8383836131ee565b6000612d208383610b82565b612d2b848484610eaa565b5060019392505050565b61124d828261266e565b612d4a848484612827565b612d5684848484613282565b6121115760405162461bcd60e51b8152600401610acc90613f6c565b60006109ca825490565b600082815260208190526040902060010154612d9881336129ea565b610c93838361303f565b606081612dc757506040805180820190915260018152600360fc1b60208201526109cd565b8160005b8115612df15780612ddb8161417c565b9150612dea9050600a836140b4565b9150612dcb565b60008167ffffffffffffffff811115612e1a57634e487b7160e01b600052604160045260246000fd5b6040519080825280601f01601f191660200182016040528015612e44576020820181803683370190505b5090505b8415611b6357612e596001836140e7565b9150612e66600a86614197565b612e7190603061409c565b60f81b818381518110612e9457634e487b7160e01b600052603260045260246000fd5b60200101906001600160f81b031916908160001a905350612eb6600a866140b4565b9450612e48565b612ec78282611b8a565b612678576000828152602081815260408083206001600160a01b03851684529091529020805460ff19166001179055612efd3390565b6001600160a01b0316816001600160a01b0316837f2f8788117e7eff1d82e926ec794901d17c78024a50270940304540a733656f0d60405160405180910390a45050565b6000818152600183016020526040812054612f88575081546001818101845560008481526020808220909301849055845484825282860190935260409020919091556112f8565b5060006112f8565b60006001600160e01b031982166380ac58cd60e01b1480612fc157506001600160e01b03198216635b5e139f60e01b145b806109ca57506109ca8261338c565b610c938383836133b1565b612fe58282611b8a565b61267857612ffd816001600160a01b03166014613423565b613008836020613423565b604051602001613019929190613dfc565b60408051601f198184030181529082905262461bcd60e51b8252610acc91600401613ef2565b6130498282611b8a565b15612678576000828152602081815260408083206001600160a01b0385168085529252808320805460ff1916905551339285917ff6391f5c32d9c69d2a47ea670b442974b53935d1edc7fd64eb21e047a839171b9190a45050565b600081815260018301602052604081205480156131b15760006130c86001836140e7565b85549091506000906130dc906001906140e7565b9050600086600001828154811061310357634e487b7160e01b600052603260045260246000fd5b906000526020600020015490508087600001848154811061313457634e487b7160e01b600052603260045260246000fd5b60009182526020808320909101929092558281526001890190915260409020849055865487908061317557634e487b7160e01b600052603160045260246000fd5b600190038181906000526020600020016000905590558660010160008781526020019081526020016000206000905560019450505050506112f8565b60009150506112f8565b6131c58383613605565b6131d26000848484613282565b610c935760405162461bcd60e51b8152600401610acc90613f6c565b8154600090821061324c5760405162461bcd60e51b815260206004820152602260248201527f456e756d657261626c655365743a20696e646578206f7574206f6620626f756e604482015261647360f01b6064820152608401610acc565b82600001828154811061326f57634e487b7160e01b600052603260045260246000fd5b9060005260206000200154905092915050565b60006001600160a01b0384163b1561338457604051630a85bd0160e11b81526001600160a01b0385169063150b7a02906132c6903390899088908890600401613e71565b602060405180830381600087803b1580156132e057600080fd5b505af1925050508015613310575060408051601f3d908101601f1916820190925261330d91810190613d5f565b60015b61336a573d80801561333e576040519150601f19603f3d011682016040523d82523d6000602084013e613343565b606091505b5080516133625760405162461bcd60e51b8152600401610acc90613f6c565b805181602001fd5b6001600160e01b031916630a85bd0160e11b149050611b63565b506001611b63565b60006001600160e01b03198216635a05180f60e01b14806109ca57506109ca82613744565b6133bc838383613779565b600c5460ff1615610c935760405162461bcd60e51b815260206004820152602b60248201527f4552433732315061757361626c653a20746f6b656e207472616e73666572207760448201526a1a1a5b19481c185d5cd95960aa1b6064820152608401610acc565b606060006134328360026140c8565b61343d90600261409c565b67ffffffffffffffff81111561346357634e487b7160e01b600052604160045260246000fd5b6040519080825280601f01601f19166020018201604052801561348d576020820181803683370190505b509050600360fc1b816000815181106134b657634e487b7160e01b600052603260045260246000fd5b60200101906001600160f81b031916908160001a905350600f60fb1b816001815181106134f357634e487b7160e01b600052603260045260246000fd5b60200101906001600160f81b031916908160001a90535060006135178460026140c8565b61352290600161409c565b90505b60018111156135b6576f181899199a1a9b1b9c1cb0b131b232b360811b85600f166010811061356457634e487b7160e01b600052603260045260246000fd5b1a60f81b82828151811061358857634e487b7160e01b600052603260045260246000fd5b60200101906001600160f81b031916908160001a90535060049490941c936135af8161412a565b9050613525565b508315611b835760405162461bcd60e51b815260206004820181905260248201527f537472696e67733a20686578206c656e67746820696e73756666696369656e746044820152606401610acc565b6001600160a01b03821661365b5760405162461bcd60e51b815260206004820181905260248201527f4552433732313a206d696e7420746f20746865207a65726f20616464726573736044820152606401610acc565b613664816126b6565b156136b15760405162461bcd60e51b815260206004820152601c60248201527f4552433732313a20746f6b656e20616c7265616479206d696e746564000000006044820152606401610acc565b6136bd60008383612fd0565b6001600160a01b03821660009081526005602052604081208054600192906136e690849061409c565b909155505060008181526004602052604080822080546001600160a01b0319166001600160a01b03861690811790915590518392907fddf252ad1be2c89b69c2b068fc378daa952ba7f163c4a11628f55a4df523b3ef908290a45050565b60006001600160e01b03198216637965db0b60e01b14806109ca57506301ffc9a760e01b6001600160e01b03198316146109ca565b6001600160a01b0383166137d4576137cf81600a80546000838152600b60205260408120829055600182018355919091527fc65a7bb8d6351c1cf70c95a316cc6a92839c986682d98bc35f958f4883f9d2a80155565b6137f7565b816001600160a01b0316836001600160a01b0316146137f7576137f78382613831565b6001600160a01b03821661380e576124e0816138ce565b826001600160a01b0316826001600160a01b031614610c9357610c9382826139a7565b6000600161383e84611865565b61384891906140e7565b60008381526009602052604090205490915080821461389b576001600160a01b03841660009081526008602090815260408083208584528252808320548484528184208190558352600990915290208190555b5060009182526009602090815260408084208490556001600160a01b039094168352600881528383209183525290812055565b600a546000906138e0906001906140e7565b6000838152600b6020526040812054600a805493945090928490811061391657634e487b7160e01b600052603260045260246000fd5b9060005260206000200154905080600a838154811061394557634e487b7160e01b600052603260045260246000fd5b6000918252602080832090910192909255828152600b9091526040808220849055858252812055600a80548061398b57634e487b7160e01b600052603160045260246000fd5b6001900381819060005260206000200160009055905550505050565b60006139b283611865565b6001600160a01b039093166000908152600860209081526040808320868452825280832085905593825260099052919091209190915550565b8280546139f790614141565b90600052602060002090601f016020900481019282613a195760008555613a5f565b82601f10613a3257805160ff1916838001178555613a5f565b82800160010185558215613a5f579182015b82811115613a5f578251825591602001919060010190613a44565b50613a6b929150613a6f565b5090565b5b80821115613a6b5760008155600101613a70565b600067ffffffffffffffff80841115613a9f57613a9f6141d7565b604051601f8501601f19908116603f01168101908282118183101715613ac757613ac76141d7565b81604052809350858152868686011115613ae057600080fd5b858560208301376000602087830101525050509392505050565b80356001600160a01b03811681146109cd57600080fd5b600082601f830112613b21578081fd5b611b8383833560208501613a84565b600060208284031215613b41578081fd5b611b8382613afa565b60008060408385031215613b5c578081fd5b613b6583613afa565b9150613b7360208401613afa565b90509250929050565b600080600060608486031215613b90578081fd5b613b9984613afa565b9250613ba760208501613afa565b9150604084013590509250925092565b60008060008060808587031215613bcc578081fd5b613bd585613afa565b9350613be360208601613afa565b925060408501359150606085013567ffffffffffffffff811115613c05578182fd5b8501601f81018713613c15578182fd5b613c2487823560208401613a84565b91505092959194509250565b60008060408385031215613c42578182fd5b613c4b83613afa565b915060208301358015158114613c5f578182fd5b809150509250929050565b600080600060608486031215613c7e578283fd5b613c8784613afa565b9250602084013567ffffffffffffffff811115613ca2578283fd5b613cae86828701613b11565b925050604084013590509250925092565b60008060408385031215613cd1578182fd5b613cda83613afa565b946020939093013593505050565b600060208284031215613cf9578081fd5b5035919050565b60008060408385031215613d12578182fd5b82359150613b7360208401613afa565b60008060408385031215613d34578182fd5b50508035926020909101359150565b600060208284031215613d54578081fd5b8135611b83816141ed565b600060208284031215613d70578081fd5b8151611b83816141ed565b60008060008060808587031215613d90578182fd5b84359350602085013567ffffffffffffffff811115613dad578283fd5b613db987828801613b11565b949794965050505060408301359260600135919050565b60008151808452613de88160208601602086016140fe565b601f01601f19169290920160200192915050565b60007f416363657373436f6e74726f6c3a206163636f756e742000000000000000000082528351613e348160178501602088016140fe565b7001034b99036b4b9b9b4b733903937b6329607d1b6017918401918201528351613e658160288401602088016140fe565b01602801949350505050565b6001600160a01b0385811682528416602082015260408101839052608060608201819052600090613ea490830184613dd0565b9695505050505050565b6020808252825182820181905260009190848201906040850190845b81811015613ee657835183529284019291840191600101613eca565b50909695505050505050565b600060208252611b836020830184613dd0565b6000610100808352613f198184018c613dd0565b90508960208401528860408401528281036060840152613f398189613dd0565b608084019790975250506001600160a01b039390931660a084015290151560c0830152151560e090910152949350505050565b60208082526032908201527f4552433732313a207472616e7366657220746f206e6f6e20455243373231526560408201527131b2b4bb32b91034b6b83632b6b2b73a32b960711b606082015260800190565b60208082526031908201527f4552433732313a207472616e736665722063616c6c6572206973206e6f74206f6040820152701ddb995c881b9bdc88185c1c1c9bdd9959607a1b606082015260800190565b60208082526027908201527f4d61737465723a2055524920717565727920666f72206e6f6e6578697374656e6040820152663a103a37b5b2b760c91b606082015260800190565b60208082526026908201527f4d757374206265206f776e6572206f66207468652070726f706572747920636f6040820152651b9d1c9858dd60d21b606082015260800190565b600082198211156140af576140af6141ab565b500190565b6000826140c3576140c36141c1565b500490565b60008160001904831182151516156140e2576140e26141ab565b500290565b6000828210156140f9576140f96141ab565b500390565b60005b83811015614119578181015183820152602001614101565b838111156121115750506000910152565b600081614139576141396141ab565b506000190190565b600181811c9082168061415557607f821691505b6020821081141561417657634e487b7160e01b600052602260045260246000fd5b50919050565b6000600019821415614190576141906141ab565b5060010190565b6000826141a6576141a66141c1565b500690565b634e487b7160e01b600052601160045260246000fd5b634e487b7160e01b600052601260045260246000fd5b634e487b7160e01b600052604160045260246000fd5b6001600160e01b03198116811461148b57600080fdfe65d7a28e3265b37a6474929f336521b332c1681b933f6cb9f3376673440d862aa26469706673582212207bbc304ad48222242629231dd8f92f123059291c96a0267d195a6c0512fa276764736f6c63430008030033",
  "immutableReferences": {},
  "source": "// SPDX-License-Identifier: Non-Licensed\r\npragma solidity ^0.8.0;\r\n\r\nimport \"../node_modules/@openzeppelin/contracts/token/ERC721/ERC721.sol\";\r\nimport \"../node_modules/@openzeppelin/contracts/token/ERC721/extensions/ERC721Enumerable.sol\";\r\nimport \"../node_modules/@openzeppelin/contracts/token/ERC721/extensions/ERC721Burnable.sol\";\r\nimport \"../node_modules/@openzeppelin/contracts/token/ERC721/extensions/ERC721Pausable.sol\";\r\nimport \"../node_modules/@openzeppelin/contracts/access/AccessControlEnumerable.sol\";\r\nimport \"../node_modules/@openzeppelin/contracts/utils/Context.sol\";\r\nimport \"../node_modules/@openzeppelin/contracts/utils/Counters.sol\";\r\n\r\n\r\ncontract Auction is Context, AccessControlEnumerable, ERC721Enumerable, ERC721Burnable, ERC721Pausable {\r\n    using Counters for Counters.Counter;\r\n    using Strings for uint256;\r\n\r\n    Counters.Counter private _tokenIdTracker;\r\n\r\n    bytes32 public constant MINTER_ROLE = keccak256(\"MINTER_ROLE\");\r\n    bytes32 public constant PAUSER_ROLE = keccak256(\"PAUSER_ROLE\");\r\n    bytes32 public constant DEED_ROLE = keccak256(\"DEED_ROLE\");\r\n    \r\n\r\n    // Optional mapping for token URIs\r\n    mapping (uint256 => string) private _tokenURIs;\r\n    mapping (uint256 => address) private _tokenCreators;\r\n\r\n\r\n    constructor() ERC721(\"Deed\", \"Funda\") {\r\n        _setupRole(DEFAULT_ADMIN_ROLE, _msgSender());\r\n        _setupRole(MINTER_ROLE, _msgSender());\r\n        _setupRole(PAUSER_ROLE, _msgSender());\r\n        _setupRole(DEED_ROLE, _msgSender());\r\n    }\r\n\r\n    function addOwnerOfContract(address newOwner) public{\r\n        require(hasRole(DEFAULT_ADMIN_ROLE, _msgSender()), \"Master: must have admin role!\");\r\n        _setupRole(DEFAULT_ADMIN_ROLE, newOwner);\r\n        _setupRole(MINTER_ROLE, newOwner);\r\n        _setupRole(PAUSER_ROLE, newOwner);\r\n    }\r\n\r\n    function testContractOwner() public view returns (string memory){\r\n        require(hasRole(DEFAULT_ADMIN_ROLE, _msgSender()), \"Master: must have admin role!\");\r\n        return \"You are contract owner!\";\r\n    }\r\n\r\n    //todo: dub=plicate variable name,  already declared as separate variable\r\n    // Auction struct which holds all the required info\r\n    struct Auction {\r\n        string name;\r\n        uint256 deadline;\r\n        uint256 startPrice;\r\n        string metadata;\r\n        uint256 tokenId;\r\n        //remove owner?\r\n        address payable owner;\r\n        bool active;\r\n        bool finalized;\r\n    }\r\n\r\n    // Array with all auctions\r\n    Auction[] public auctions;\r\n\r\n    // Mapping from auction index to user bids\r\n    mapping(uint256 => Bid[]) public auctionBids;\r\n\r\n    // Mapping from owner to a list of owned auctions\r\n    mapping(address => uint[]) public auctionOwner;\r\n\r\n    // Bid struct to hold bidder and amount\r\n    struct Bid {\r\n        address payable from;\r\n        uint256 amount;\r\n    }\r\n\r\n    /**\r\n    * @dev Gets the length of auctions\r\n    * @return uint representing the auction count\r\n    */\r\n    function getCount() public view returns(uint) {\r\n        return auctions.length;\r\n    }\r\n\r\n    /**\r\n    * @dev Gets the bid counts of a given auction\r\n    * @param _auctionId uint ID of the auction\r\n    */\r\n    function getBidsCount(uint _auctionId) public view returns(uint) {\r\n        return auctionBids[_auctionId].length;\r\n    }\r\n\r\n    /**\r\n    * @dev Gets an array of owned auctions\r\n    * @param _owner address of the auction owner\r\n    */\r\n    function getAuctionsOf(address _owner) public view returns(uint[] memory) {\r\n        uint[] memory ownedAuctions = auctionOwner[_owner];\r\n        return ownedAuctions;\r\n    }\r\n\r\n    /**\r\n    * @dev Gets an array of owned auctions\r\n    * @param _auctionId uint of the auction owner\r\n    * @return amount uint256, address of last bidder\r\n    */\r\n    function getCurrentBid(uint _auctionId) public view returns(uint256, address) {\r\n        uint bidsLength = auctionBids[_auctionId].length;\r\n        // if there are bids refund the last bid\r\n        if( bidsLength > 0 ) {\r\n            Bid memory lastBid = auctionBids[_auctionId][bidsLength - 1];\r\n            return (lastBid.amount, lastBid.from);\r\n        }\r\n        return (uint256(0), address(0));\r\n    }\r\n\r\n    /**\r\n    * @dev Gets the total number of auctions owned by an address\r\n    * @param _owner address of the owner\r\n    * @return uint total number of auctions\r\n    */\r\n    function getAuctionsCountOfOwner(address _owner) public view returns(uint) {\r\n        return auctionOwner[_owner].length;\r\n    }\r\n\r\n    function getAuctionById(uint _auctionId) public view returns(\r\n        string memory name,\r\n        uint256 deadline,\r\n        uint256 startPrice,\r\n        string memory metadata,\r\n        uint256 tokenId,\r\n        address owner,\r\n        bool active,\r\n        bool finalized) {\r\n\r\n        Auction memory auc = auctions[_auctionId];\r\n        return (\r\n            auc.name, \r\n            auc.deadline, \r\n            auc.startPrice, \r\n            auc.metadata, \r\n            auc.tokenId, \r\n            auc.owner, \r\n            auc.active, \r\n            auc.finalized);\r\n    }\r\n\r\n    function isPropertyOwner(uint256 tokenId) public view returns(bool) {\r\n        address propertyOwner = ownerOf(tokenId);\r\n        return(propertyOwner == _msgSender());\r\n    }\r\n    \r\n    function createAuction(uint256 _propertyId, string memory _auctionTitle, uint256 _startPrice, uint _deadline) public virtual returns(bool) {\r\n        //todo: this is WRONG, the contract needs to be contract owner\r\n        // as the user empowers the Contract to trade for him\r\n        // so here user should transfer the contract when making the auction\r\n        require(isPropertyOwner(_propertyId) == true, 'Must be owner of the property contract');\r\n        // require(ownerOf(_tokenId) == _msgSender(), 'Must be owner of the property contract');\r\n\r\n        // address user = _msgSender();\r\n        address payable user = payable(msg.sender);\r\n        address auctionContractAddress = address(this);\r\n        // from, to, id\r\n        safeTransferFrom(user, auctionContractAddress, _propertyId);\r\n        \r\n        string memory _tokenURI = tokenURI(_propertyId);\r\n\r\n\r\n        //todo: use counter\r\n        uint auctionId = auctions.length;\r\n        Auction memory newAuction;\r\n        newAuction.name = _auctionTitle;\r\n        newAuction.deadline = _deadline;\r\n        newAuction.startPrice = _startPrice;\r\n        newAuction.metadata = _tokenURI;\r\n        newAuction.tokenId = _propertyId;\r\n        newAuction.owner = user;\r\n        newAuction.active = true;\r\n        newAuction.finalized = false;\r\n        \r\n        auctions.push(newAuction);        \r\n        auctionOwner[user].push(auctionId);\r\n        \r\n        emit AuctionCreated(user, auctionId);\r\n        return true;\r\n    }\r\n\r\n    function approveAndTransfer(address _from, address _to,  uint256 _tokenId) internal returns(bool) {\r\n        approve(_to, _tokenId);\r\n        transferFrom(_from, _to, _tokenId);\r\n        return true;\r\n    }\r\n\r\n    function cancelAuction(uint _auctionId) public {\r\n        require(isPropertyOwner(_auctionId) == true, 'Must be owner of the property contract');\r\n\r\n        Auction memory myAuction = auctions[_auctionId];\r\n        uint bidsLength = auctionBids[_auctionId].length;\r\n\r\n        // if there are bids refund the last bid\r\n        if( bidsLength > 0 ) {\r\n            Bid memory lastBid = auctionBids[_auctionId][bidsLength - 1];\r\n            if(!lastBid.from.send(lastBid.amount)) {\r\n                revert();\r\n            }\r\n        }\r\n\r\n        // approve and transfer from this contract to auction owner\r\n        if(approveAndTransfer(address(this), myAuction.owner, myAuction.tokenId)){\r\n            auctions[_auctionId].active = false;\r\n            emit AuctionCanceled(msg.sender, _auctionId);\r\n        }\r\n    }\r\n\r\n    function finalizeAuction(uint _auctionId) public {\r\n        Auction memory myAuction = auctions[_auctionId];\r\n        uint bidsLength = auctionBids[_auctionId].length;\r\n\r\n        // if auction not ended just revert\r\n        // if( block.timestamp < myAuction.deadline ) revert();\r\n        \r\n        // if there are no bids cancel\r\n        if(bidsLength == 0) {\r\n            cancelAuction(_auctionId);\r\n        }else{\r\n\r\n            // the money goes to the auction owner\r\n            Bid memory lastBid = auctionBids[_auctionId][bidsLength - 1];\r\n            if(!myAuction.owner.send(lastBid.amount)) {\r\n                revert();\r\n            }\r\n\r\n            // approve and transfer from this contract to the bid winner \r\n            if(approveAndTransfer(address(this), lastBid.from, myAuction.tokenId)){\r\n                auctions[_auctionId].active = false;\r\n                auctions[_auctionId].finalized = true;\r\n                emit AuctionFinalized(msg.sender, _auctionId);\r\n            }\r\n        }\r\n    }\r\n\r\n    function bidOnAuction(uint _auctionId) external payable {\r\n        uint256 ethAmountSent = msg.value;\r\n\r\n        // owner can't bid on their auctions\r\n        Auction memory myAuction = auctions[_auctionId];\r\n        if(myAuction.owner == msg.sender) revert();\r\n\r\n        // if auction is expired\r\n        if( block.timestamp > myAuction.deadline ) revert();\r\n\r\n        uint bidsLength = auctionBids[_auctionId].length;\r\n        uint256 tempAmount = myAuction.startPrice;\r\n        Bid memory lastBid;\r\n\r\n        // there are previous bids\r\n        if( bidsLength > 0 ) {\r\n            lastBid = auctionBids[_auctionId][bidsLength - 1];\r\n            tempAmount = lastBid.amount;\r\n        }\r\n\r\n        // check if amound is greater than previous amount  \r\n        if( ethAmountSent < tempAmount ) revert(); \r\n\r\n        // refund the last bidder\r\n        if( bidsLength > 0 ) {\r\n            if(!lastBid.from.send(lastBid.amount)) {\r\n                revert();\r\n            }  \r\n        }\r\n\r\n        // insert bid \r\n        Bid memory newBid;\r\n        newBid.from = payable(msg.sender);\r\n        newBid.amount = ethAmountSent;\r\n        auctionBids[_auctionId].push(newBid);\r\n        emit BidSuccess(msg.sender, _auctionId);\r\n    }\r\n\r\n    event BidSuccess(address _from, uint _auctionId);\r\n\r\n    // AuctionCreated is fired when an auction is created\r\n    event AuctionCreated(address _owner, uint _auctionId);\r\n\r\n    // AuctionCanceled is fired when an auction is canceled\r\n    event AuctionCanceled(address _owner, uint _auctionId);\r\n\r\n    // AuctionFinalized is fired when an auction is finalized\r\n    event AuctionFinalized(address _owner, uint _auctionId);\r\n\r\n    function _setTokenURI(uint256 tokenId, string memory _tokenURI, address creator) internal virtual {\r\n        require(_exists(tokenId), \"Master: URI set of nonexistent token\");\r\n        _tokenURIs[tokenId] = _tokenURI;\r\n        _tokenCreators[tokenId] = creator;\r\n    }\r\n\r\n    function tokenURI(uint256 tokenId) public view virtual override returns (string memory) {\r\n        require(_exists(tokenId), \"Master: URI query for nonexistent token\");\r\n\r\n        string memory _tokenURI = _tokenURIs[tokenId];\r\n        return _tokenURI;\r\n    }\r\n\r\n\r\n    function tokenCreator(uint256 tokenId) public view returns(address) {\r\n        require(_exists(tokenId), \"Master: URI query for nonexistent token\");\r\n\r\n        return _tokenCreators[tokenId];\r\n    }\r\n\r\n    //mint\r\n    function registerKadasterProperty(address to, string memory tokenURI_, uint256 tokenId) public virtual {\r\n        require(hasRole(MINTER_ROLE, _msgSender()), \"Master: must have minter role to mint\");\r\n        require(!_exists(tokenId), \"Master: TokenId already existent\");\r\n\r\n        _tokenIdTracker.increment();\r\n\r\n        _safeMint(to, tokenId);\r\n        _setTokenURI(tokenId, tokenURI_, to);\r\n    }\r\n\r\n    function totalOfMintedTokens() public view returns(string memory) {\r\n        // return uint256 is you wish to return a BigNumber\r\n        uint256 numberOfMintedTokens = _tokenIdTracker.current();\r\n        return numberOfMintedTokens.toString();\r\n    }\r\n\r\n    function pause() public virtual {\r\n        require(hasRole(PAUSER_ROLE, _msgSender()), \"ERC721PresetMinterPauserAutoId: must have pauser role to pause\");\r\n        _pause();\r\n    }\r\n\r\n    function unpause() public virtual {\r\n        require(hasRole(PAUSER_ROLE, _msgSender()), \"ERC721PresetMinterPauserAutoId: must have pauser role to unpause\");\r\n        _unpause();\r\n    }\r\n\r\n    function _beforeTokenTransfer(address from, address to, uint256 tokenId) internal virtual override(ERC721, ERC721Enumerable, ERC721Pausable) {\r\n        super._beforeTokenTransfer(from, to, tokenId);\r\n    }\r\n\r\n    function supportsInterface(bytes4 interfaceId) public view virtual override(AccessControlEnumerable, ERC721, ERC721Enumerable) returns (bool) {\r\n        return super.supportsInterface(interfaceId);\r\n    }\r\n\r\n}",
  "sourcePath": "C:/hackathon/funda-marketplace-dapp/contract/contracts/Auction.sol",
  "compiler": {
    "name": "solc",
    "version": "0.8.3+commit.8d00100c.Emscripten.clang"
  },
  "schemaVersion": "3.4.1",
  "updatedAt": "2021-06-03T16:00:41.495Z",
  "networkType": "ethereum",
  "devdoc": {
    "kind": "dev",
    "methods": {
      "approve(address,uint256)": {
        "details": "See {IERC721-approve}."
      },
      "balanceOf(address)": {
        "details": "See {IERC721-balanceOf}."
      },
      "burn(uint256)": {
        "details": "Burns `tokenId`. See {ERC721-_burn}. Requirements: - The caller must own `tokenId` or be an approved operator."
      },
      "getApproved(uint256)": {
        "details": "See {IERC721-getApproved}."
      },
      "getAuctionsCountOfOwner(address)": {
        "details": "Gets the total number of auctions owned by an address",
        "params": {
          "_owner": "address of the owner"
        },
        "returns": {
          "_0": "uint total number of auctions"
        }
      },
      "getAuctionsOf(address)": {
        "details": "Gets an array of owned auctions",
        "params": {
          "_owner": "address of the auction owner"
        }
      },
      "getBidsCount(uint256)": {
        "details": "Gets the bid counts of a given auction",
        "params": {
          "_auctionId": "uint ID of the auction"
        }
      },
      "getCount()": {
        "details": "Gets the length of auctions",
        "returns": {
          "_0": "uint representing the auction count"
        }
      },
      "getCurrentBid(uint256)": {
        "details": "Gets an array of owned auctions",
        "params": {
          "_auctionId": "uint of the auction owner"
        },
        "returns": {
          "_0": "amount uint256, address of last bidder"
        }
      },
      "getRoleAdmin(bytes32)": {
        "details": "Returns the admin role that controls `role`. See {grantRole} and {revokeRole}. To change a role's admin, use {_setRoleAdmin}."
      },
      "getRoleMember(bytes32,uint256)": {
        "details": "Returns one of the accounts that have `role`. `index` must be a value between 0 and {getRoleMemberCount}, non-inclusive. Role bearers are not sorted in any particular way, and their ordering may change at any point. WARNING: When using {getRoleMember} and {getRoleMemberCount}, make sure you perform all queries on the same block. See the following https://forum.openzeppelin.com/t/iterating-over-elements-on-enumerableset-in-openzeppelin-contracts/2296[forum post] for more information."
      },
      "getRoleMemberCount(bytes32)": {
        "details": "Returns the number of accounts that have `role`. Can be used together with {getRoleMember} to enumerate all bearers of a role."
      },
      "grantRole(bytes32,address)": {
        "details": "Overload {grantRole} to track enumerable memberships"
      },
      "hasRole(bytes32,address)": {
        "details": "Returns `true` if `account` has been granted `role`."
      },
      "isApprovedForAll(address,address)": {
        "details": "See {IERC721-isApprovedForAll}."
      },
      "name()": {
        "details": "See {IERC721Metadata-name}."
      },
      "ownerOf(uint256)": {
        "details": "See {IERC721-ownerOf}."
      },
      "paused()": {
        "details": "Returns true if the contract is paused, and false otherwise."
      },
      "renounceRole(bytes32,address)": {
        "details": "Overload {renounceRole} to track enumerable memberships"
      },
      "revokeRole(bytes32,address)": {
        "details": "Overload {revokeRole} to track enumerable memberships"
      },
      "safeTransferFrom(address,address,uint256)": {
        "details": "See {IERC721-safeTransferFrom}."
      },
      "safeTransferFrom(address,address,uint256,bytes)": {
        "details": "See {IERC721-safeTransferFrom}."
      },
      "setApprovalForAll(address,bool)": {
        "details": "See {IERC721-setApprovalForAll}."
      },
      "symbol()": {
        "details": "See {IERC721Metadata-symbol}."
      },
      "tokenByIndex(uint256)": {
        "details": "See {IERC721Enumerable-tokenByIndex}."
      },
      "tokenOfOwnerByIndex(address,uint256)": {
        "details": "See {IERC721Enumerable-tokenOfOwnerByIndex}."
      },
      "tokenURI(uint256)": {
        "details": "See {IERC721Metadata-tokenURI}."
      },
      "totalSupply()": {
        "details": "See {IERC721Enumerable-totalSupply}."
      },
      "transferFrom(address,address,uint256)": {
        "details": "See {IERC721-transferFrom}."
      }
    },
    "version": 1
  },
  "userdoc": {
    "kind": "user",
    "methods": {},
    "version": 1
  }
}