{
  "contractName": "Auction",
  "abi": [
    {
      "inputs": [],
      "stateMutability": "nonpayable",
      "type": "constructor"
    },
    {
      "anonymous": false,
      "inputs": [
        {
          "indexed": true,
          "internalType": "address",
          "name": "owner",
          "type": "address"
        },
        {
          "indexed": true,
          "internalType": "address",
          "name": "approved",
          "type": "address"
        },
        {
          "indexed": true,
          "internalType": "uint256",
          "name": "tokenId",
          "type": "uint256"
        }
      ],
      "name": "Approval",
      "type": "event"
    },
    {
      "anonymous": false,
      "inputs": [
        {
          "indexed": true,
          "internalType": "address",
          "name": "owner",
          "type": "address"
        },
        {
          "indexed": true,
          "internalType": "address",
          "name": "operator",
          "type": "address"
        },
        {
          "indexed": false,
          "internalType": "bool",
          "name": "approved",
          "type": "bool"
        }
      ],
      "name": "ApprovalForAll",
      "type": "event"
    },
    {
      "anonymous": false,
      "inputs": [
        {
          "indexed": false,
          "internalType": "address",
          "name": "_owner",
          "type": "address"
        },
        {
          "indexed": false,
          "internalType": "uint256",
          "name": "_auctionId",
          "type": "uint256"
        }
      ],
      "name": "AuctionCanceled",
      "type": "event"
    },
    {
      "anonymous": false,
      "inputs": [
        {
          "indexed": false,
          "internalType": "address",
          "name": "_owner",
          "type": "address"
        },
        {
          "indexed": false,
          "internalType": "uint256",
          "name": "_auctionId",
          "type": "uint256"
        }
      ],
      "name": "AuctionCreated",
      "type": "event"
    },
    {
      "anonymous": false,
      "inputs": [
        {
          "indexed": false,
          "internalType": "address",
          "name": "_owner",
          "type": "address"
        },
        {
          "indexed": false,
          "internalType": "uint256",
          "name": "_auctionId",
          "type": "uint256"
        }
      ],
      "name": "AuctionFinalized",
      "type": "event"
    },
    {
      "anonymous": false,
      "inputs": [
        {
          "indexed": false,
          "internalType": "address",
          "name": "_from",
          "type": "address"
        },
        {
          "indexed": false,
          "internalType": "uint256",
          "name": "_auctionId",
          "type": "uint256"
        }
      ],
      "name": "BidSuccess",
      "type": "event"
    },
    {
      "anonymous": false,
      "inputs": [
        {
          "indexed": false,
          "internalType": "address",
          "name": "account",
          "type": "address"
        }
      ],
      "name": "Paused",
      "type": "event"
    },
    {
      "anonymous": false,
      "inputs": [
        {
          "indexed": true,
          "internalType": "bytes32",
          "name": "role",
          "type": "bytes32"
        },
        {
          "indexed": true,
          "internalType": "bytes32",
          "name": "previousAdminRole",
          "type": "bytes32"
        },
        {
          "indexed": true,
          "internalType": "bytes32",
          "name": "newAdminRole",
          "type": "bytes32"
        }
      ],
      "name": "RoleAdminChanged",
      "type": "event"
    },
    {
      "anonymous": false,
      "inputs": [
        {
          "indexed": true,
          "internalType": "bytes32",
          "name": "role",
          "type": "bytes32"
        },
        {
          "indexed": true,
          "internalType": "address",
          "name": "account",
          "type": "address"
        },
        {
          "indexed": true,
          "internalType": "address",
          "name": "sender",
          "type": "address"
        }
      ],
      "name": "RoleGranted",
      "type": "event"
    },
    {
      "anonymous": false,
      "inputs": [
        {
          "indexed": true,
          "internalType": "bytes32",
          "name": "role",
          "type": "bytes32"
        },
        {
          "indexed": true,
          "internalType": "address",
          "name": "account",
          "type": "address"
        },
        {
          "indexed": true,
          "internalType": "address",
          "name": "sender",
          "type": "address"
        }
      ],
      "name": "RoleRevoked",
      "type": "event"
    },
    {
      "anonymous": false,
      "inputs": [
        {
          "indexed": true,
          "internalType": "address",
          "name": "from",
          "type": "address"
        },
        {
          "indexed": true,
          "internalType": "address",
          "name": "to",
          "type": "address"
        },
        {
          "indexed": true,
          "internalType": "uint256",
          "name": "tokenId",
          "type": "uint256"
        }
      ],
      "name": "Transfer",
      "type": "event"
    },
    {
      "anonymous": false,
      "inputs": [
        {
          "indexed": false,
          "internalType": "address",
          "name": "account",
          "type": "address"
        }
      ],
      "name": "Unpaused",
      "type": "event"
    },
    {
      "inputs": [],
      "name": "DEED_ROLE",
      "outputs": [
        {
          "internalType": "bytes32",
          "name": "",
          "type": "bytes32"
        }
      ],
      "stateMutability": "view",
      "type": "function",
      "constant": true
    },
    {
      "inputs": [],
      "name": "DEFAULT_ADMIN_ROLE",
      "outputs": [
        {
          "internalType": "bytes32",
          "name": "",
          "type": "bytes32"
        }
      ],
      "stateMutability": "view",
      "type": "function",
      "constant": true
    },
    {
      "inputs": [],
      "name": "MINTER_ROLE",
      "outputs": [
        {
          "internalType": "bytes32",
          "name": "",
          "type": "bytes32"
        }
      ],
      "stateMutability": "view",
      "type": "function",
      "constant": true
    },
    {
      "inputs": [],
      "name": "PAUSER_ROLE",
      "outputs": [
        {
          "internalType": "bytes32",
          "name": "",
          "type": "bytes32"
        }
      ],
      "stateMutability": "view",
      "type": "function",
      "constant": true
    },
    {
      "inputs": [
        {
          "internalType": "address",
          "name": "to",
          "type": "address"
        },
        {
          "internalType": "uint256",
          "name": "tokenId",
          "type": "uint256"
        }
      ],
      "name": "approve",
      "outputs": [],
      "stateMutability": "nonpayable",
      "type": "function"
    },
    {
      "inputs": [
        {
          "internalType": "uint256",
          "name": "",
          "type": "uint256"
        },
        {
          "internalType": "uint256",
          "name": "",
          "type": "uint256"
        }
      ],
      "name": "auctionBids",
      "outputs": [
        {
          "internalType": "address payable",
          "name": "from",
          "type": "address"
        },
        {
          "internalType": "uint256",
          "name": "amount",
          "type": "uint256"
        }
      ],
      "stateMutability": "view",
      "type": "function",
      "constant": true
    },
    {
      "inputs": [
        {
          "internalType": "address",
          "name": "",
          "type": "address"
        },
        {
          "internalType": "uint256",
          "name": "",
          "type": "uint256"
        }
      ],
      "name": "auctionOwner",
      "outputs": [
        {
          "internalType": "uint256",
          "name": "",
          "type": "uint256"
        }
      ],
      "stateMutability": "view",
      "type": "function",
      "constant": true
    },
    {
      "inputs": [
        {
          "internalType": "uint256",
          "name": "",
          "type": "uint256"
        }
      ],
      "name": "auctions",
      "outputs": [
        {
          "internalType": "uint256",
          "name": "deadline",
          "type": "uint256"
        },
        {
          "internalType": "uint256",
          "name": "startPrice",
          "type": "uint256"
        },
        {
          "internalType": "string",
          "name": "metadata",
          "type": "string"
        },
        {
          "internalType": "uint256",
          "name": "tokenId",
          "type": "uint256"
        },
        {
          "internalType": "address payable",
          "name": "owner",
          "type": "address"
        },
        {
          "internalType": "bool",
          "name": "active",
          "type": "bool"
        },
        {
          "internalType": "bool",
          "name": "finalized",
          "type": "bool"
        }
      ],
      "stateMutability": "view",
      "type": "function",
      "constant": true
    },
    {
      "inputs": [
        {
          "internalType": "address",
          "name": "owner",
          "type": "address"
        }
      ],
      "name": "balanceOf",
      "outputs": [
        {
          "internalType": "uint256",
          "name": "",
          "type": "uint256"
        }
      ],
      "stateMutability": "view",
      "type": "function",
      "constant": true
    },
    {
      "inputs": [
        {
          "internalType": "uint256",
          "name": "tokenId",
          "type": "uint256"
        }
      ],
      "name": "burn",
      "outputs": [],
      "stateMutability": "nonpayable",
      "type": "function"
    },
    {
      "inputs": [
        {
          "internalType": "uint256",
          "name": "tokenId",
          "type": "uint256"
        }
      ],
      "name": "getApproved",
      "outputs": [
        {
          "internalType": "address",
          "name": "",
          "type": "address"
        }
      ],
      "stateMutability": "view",
      "type": "function",
      "constant": true
    },
    {
      "inputs": [
        {
          "internalType": "bytes32",
          "name": "role",
          "type": "bytes32"
        }
      ],
      "name": "getRoleAdmin",
      "outputs": [
        {
          "internalType": "bytes32",
          "name": "",
          "type": "bytes32"
        }
      ],
      "stateMutability": "view",
      "type": "function",
      "constant": true
    },
    {
      "inputs": [
        {
          "internalType": "bytes32",
          "name": "role",
          "type": "bytes32"
        },
        {
          "internalType": "uint256",
          "name": "index",
          "type": "uint256"
        }
      ],
      "name": "getRoleMember",
      "outputs": [
        {
          "internalType": "address",
          "name": "",
          "type": "address"
        }
      ],
      "stateMutability": "view",
      "type": "function",
      "constant": true
    },
    {
      "inputs": [
        {
          "internalType": "bytes32",
          "name": "role",
          "type": "bytes32"
        }
      ],
      "name": "getRoleMemberCount",
      "outputs": [
        {
          "internalType": "uint256",
          "name": "",
          "type": "uint256"
        }
      ],
      "stateMutability": "view",
      "type": "function",
      "constant": true
    },
    {
      "inputs": [
        {
          "internalType": "bytes32",
          "name": "role",
          "type": "bytes32"
        },
        {
          "internalType": "address",
          "name": "account",
          "type": "address"
        }
      ],
      "name": "grantRole",
      "outputs": [],
      "stateMutability": "nonpayable",
      "type": "function"
    },
    {
      "inputs": [
        {
          "internalType": "bytes32",
          "name": "role",
          "type": "bytes32"
        },
        {
          "internalType": "address",
          "name": "account",
          "type": "address"
        }
      ],
      "name": "hasRole",
      "outputs": [
        {
          "internalType": "bool",
          "name": "",
          "type": "bool"
        }
      ],
      "stateMutability": "view",
      "type": "function",
      "constant": true
    },
    {
      "inputs": [
        {
          "internalType": "address",
          "name": "owner",
          "type": "address"
        },
        {
          "internalType": "address",
          "name": "operator",
          "type": "address"
        }
      ],
      "name": "isApprovedForAll",
      "outputs": [
        {
          "internalType": "bool",
          "name": "",
          "type": "bool"
        }
      ],
      "stateMutability": "view",
      "type": "function",
      "constant": true
    },
    {
      "inputs": [],
      "name": "name",
      "outputs": [
        {
          "internalType": "string",
          "name": "",
          "type": "string"
        }
      ],
      "stateMutability": "view",
      "type": "function",
      "constant": true
    },
    {
      "inputs": [
        {
          "internalType": "uint256",
          "name": "tokenId",
          "type": "uint256"
        }
      ],
      "name": "ownerOf",
      "outputs": [
        {
          "internalType": "address",
          "name": "",
          "type": "address"
        }
      ],
      "stateMutability": "view",
      "type": "function",
      "constant": true
    },
    {
      "inputs": [],
      "name": "paused",
      "outputs": [
        {
          "internalType": "bool",
          "name": "",
          "type": "bool"
        }
      ],
      "stateMutability": "view",
      "type": "function",
      "constant": true
    },
    {
      "inputs": [
        {
          "internalType": "bytes32",
          "name": "role",
          "type": "bytes32"
        },
        {
          "internalType": "address",
          "name": "account",
          "type": "address"
        }
      ],
      "name": "renounceRole",
      "outputs": [],
      "stateMutability": "nonpayable",
      "type": "function"
    },
    {
      "inputs": [
        {
          "internalType": "bytes32",
          "name": "role",
          "type": "bytes32"
        },
        {
          "internalType": "address",
          "name": "account",
          "type": "address"
        }
      ],
      "name": "revokeRole",
      "outputs": [],
      "stateMutability": "nonpayable",
      "type": "function"
    },
    {
      "inputs": [
        {
          "internalType": "address",
          "name": "from",
          "type": "address"
        },
        {
          "internalType": "address",
          "name": "to",
          "type": "address"
        },
        {
          "internalType": "uint256",
          "name": "tokenId",
          "type": "uint256"
        }
      ],
      "name": "safeTransferFrom",
      "outputs": [],
      "stateMutability": "nonpayable",
      "type": "function"
    },
    {
      "inputs": [
        {
          "internalType": "address",
          "name": "from",
          "type": "address"
        },
        {
          "internalType": "address",
          "name": "to",
          "type": "address"
        },
        {
          "internalType": "uint256",
          "name": "tokenId",
          "type": "uint256"
        },
        {
          "internalType": "bytes",
          "name": "_data",
          "type": "bytes"
        }
      ],
      "name": "safeTransferFrom",
      "outputs": [],
      "stateMutability": "nonpayable",
      "type": "function"
    },
    {
      "inputs": [
        {
          "internalType": "address",
          "name": "operator",
          "type": "address"
        },
        {
          "internalType": "bool",
          "name": "approved",
          "type": "bool"
        }
      ],
      "name": "setApprovalForAll",
      "outputs": [],
      "stateMutability": "nonpayable",
      "type": "function"
    },
    {
      "inputs": [],
      "name": "symbol",
      "outputs": [
        {
          "internalType": "string",
          "name": "",
          "type": "string"
        }
      ],
      "stateMutability": "view",
      "type": "function",
      "constant": true
    },
    {
      "inputs": [
        {
          "internalType": "uint256",
          "name": "index",
          "type": "uint256"
        }
      ],
      "name": "tokenByIndex",
      "outputs": [
        {
          "internalType": "uint256",
          "name": "",
          "type": "uint256"
        }
      ],
      "stateMutability": "view",
      "type": "function",
      "constant": true
    },
    {
      "inputs": [
        {
          "internalType": "address",
          "name": "owner",
          "type": "address"
        },
        {
          "internalType": "uint256",
          "name": "index",
          "type": "uint256"
        }
      ],
      "name": "tokenOfOwnerByIndex",
      "outputs": [
        {
          "internalType": "uint256",
          "name": "",
          "type": "uint256"
        }
      ],
      "stateMutability": "view",
      "type": "function",
      "constant": true
    },
    {
      "inputs": [
        {
          "internalType": "address",
          "name": "",
          "type": "address"
        },
        {
          "internalType": "uint256",
          "name": "",
          "type": "uint256"
        }
      ],
      "name": "tokenOwner",
      "outputs": [
        {
          "internalType": "uint256",
          "name": "",
          "type": "uint256"
        }
      ],
      "stateMutability": "view",
      "type": "function",
      "constant": true
    },
    {
      "inputs": [],
      "name": "totalSupply",
      "outputs": [
        {
          "internalType": "uint256",
          "name": "",
          "type": "uint256"
        }
      ],
      "stateMutability": "view",
      "type": "function",
      "constant": true
    },
    {
      "inputs": [
        {
          "internalType": "address",
          "name": "from",
          "type": "address"
        },
        {
          "internalType": "address",
          "name": "to",
          "type": "address"
        },
        {
          "internalType": "uint256",
          "name": "tokenId",
          "type": "uint256"
        }
      ],
      "name": "transferFrom",
      "outputs": [],
      "stateMutability": "nonpayable",
      "type": "function"
    },
    {
      "inputs": [
        {
          "internalType": "address",
          "name": "newOwner",
          "type": "address"
        }
      ],
      "name": "addOwnerOfContract",
      "outputs": [],
      "stateMutability": "nonpayable",
      "type": "function"
    },
    {
      "inputs": [],
      "name": "testContractOwner",
      "outputs": [
        {
          "internalType": "string",
          "name": "",
          "type": "string"
        }
      ],
      "stateMutability": "view",
      "type": "function",
      "constant": true
    },
    {
      "inputs": [
        {
          "internalType": "address",
          "name": "_owner",
          "type": "address"
        }
      ],
      "name": "getTokensOf",
      "outputs": [
        {
          "internalType": "uint256[]",
          "name": "",
          "type": "uint256[]"
        }
      ],
      "stateMutability": "view",
      "type": "function",
      "constant": true
    },
    {
      "inputs": [
        {
          "internalType": "uint256",
          "name": "_auctionId",
          "type": "uint256"
        }
      ],
      "name": "getBidsCount",
      "outputs": [
        {
          "internalType": "uint256",
          "name": "",
          "type": "uint256"
        }
      ],
      "stateMutability": "view",
      "type": "function",
      "constant": true
    },
    {
      "inputs": [
        {
          "internalType": "address",
          "name": "_owner",
          "type": "address"
        }
      ],
      "name": "getAuctionsOf",
      "outputs": [
        {
          "internalType": "uint256[]",
          "name": "",
          "type": "uint256[]"
        }
      ],
      "stateMutability": "view",
      "type": "function",
      "constant": true
    },
    {
      "inputs": [
        {
          "internalType": "uint256",
          "name": "_auctionId",
          "type": "uint256"
        }
      ],
      "name": "getCurrentBid",
      "outputs": [
        {
          "internalType": "uint256",
          "name": "",
          "type": "uint256"
        },
        {
          "internalType": "address",
          "name": "",
          "type": "address"
        }
      ],
      "stateMutability": "view",
      "type": "function",
      "constant": true
    },
    {
      "inputs": [
        {
          "internalType": "address",
          "name": "_owner",
          "type": "address"
        }
      ],
      "name": "getAuctionsCountOfOwner",
      "outputs": [
        {
          "internalType": "uint256",
          "name": "",
          "type": "uint256"
        }
      ],
      "stateMutability": "view",
      "type": "function",
      "constant": true
    },
    {
      "inputs": [
        {
          "internalType": "uint256",
          "name": "_auctionId",
          "type": "uint256"
        }
      ],
      "name": "getAuctionById",
      "outputs": [
        {
          "internalType": "uint256",
          "name": "deadline",
          "type": "uint256"
        },
        {
          "internalType": "uint256",
          "name": "startPrice",
          "type": "uint256"
        },
        {
          "internalType": "string",
          "name": "metadata",
          "type": "string"
        },
        {
          "internalType": "uint256",
          "name": "tokenId",
          "type": "uint256"
        },
        {
          "internalType": "address payable",
          "name": "owner",
          "type": "address"
        },
        {
          "internalType": "bool",
          "name": "active",
          "type": "bool"
        },
        {
          "internalType": "bool",
          "name": "finalized",
          "type": "bool"
        }
      ],
      "stateMutability": "view",
      "type": "function",
      "constant": true
    },
    {
      "inputs": [
        {
          "internalType": "uint256",
          "name": "_propertyId",
          "type": "uint256"
        },
        {
          "internalType": "uint256",
          "name": "_startPrice",
          "type": "uint256"
        },
        {
          "internalType": "uint256",
          "name": "_deadline",
          "type": "uint256"
        }
      ],
      "name": "createAuction",
      "outputs": [
        {
          "internalType": "bool",
          "name": "",
          "type": "bool"
        }
      ],
      "stateMutability": "nonpayable",
      "type": "function"
    },
    {
      "inputs": [
        {
          "internalType": "uint256",
          "name": "_auctionId",
          "type": "uint256"
        }
      ],
      "name": "cancelAuction",
      "outputs": [],
      "stateMutability": "nonpayable",
      "type": "function"
    },
    {
      "inputs": [
        {
          "internalType": "uint256",
          "name": "_auctionId",
          "type": "uint256"
        }
      ],
      "name": "finalizeAuction",
      "outputs": [],
      "stateMutability": "nonpayable",
      "type": "function"
    },
    {
      "inputs": [
        {
          "internalType": "uint256",
          "name": "_auctionId",
          "type": "uint256"
        }
      ],
      "name": "bidOnAuction",
      "outputs": [],
      "stateMutability": "payable",
      "type": "function",
      "payable": true
    },
    {
      "inputs": [
        {
          "internalType": "uint256",
          "name": "tokenId",
          "type": "uint256"
        }
      ],
      "name": "tokenURI",
      "outputs": [
        {
          "internalType": "string",
          "name": "",
          "type": "string"
        }
      ],
      "stateMutability": "view",
      "type": "function",
      "constant": true
    },
    {
      "inputs": [
        {
          "internalType": "uint256",
          "name": "tokenId",
          "type": "uint256"
        }
      ],
      "name": "tokenCreator",
      "outputs": [
        {
          "internalType": "address",
          "name": "",
          "type": "address"
        }
      ],
      "stateMutability": "view",
      "type": "function",
      "constant": true
    },
    {
      "inputs": [
        {
          "internalType": "address",
          "name": "to",
          "type": "address"
        },
        {
          "internalType": "string",
          "name": "tokenURI_",
          "type": "string"
        },
        {
          "internalType": "uint256",
          "name": "tokenId",
          "type": "uint256"
        }
      ],
      "name": "registerKadasterProperty",
      "outputs": [],
      "stateMutability": "nonpayable",
      "type": "function"
    },
    {
      "inputs": [],
      "name": "totalOfMintedTokens",
      "outputs": [
        {
          "internalType": "string",
          "name": "",
          "type": "string"
        }
      ],
      "stateMutability": "view",
      "type": "function",
      "constant": true
    },
    {
      "inputs": [],
      "name": "pause",
      "outputs": [],
      "stateMutability": "nonpayable",
      "type": "function"
    },
    {
      "inputs": [],
      "name": "unpause",
      "outputs": [],
      "stateMutability": "nonpayable",
      "type": "function"
    },
    {
      "inputs": [
        {
          "internalType": "bytes4",
          "name": "interfaceId",
          "type": "bytes4"
        }
      ],
      "name": "supportsInterface",
      "outputs": [
        {
          "internalType": "bool",
          "name": "",
          "type": "bool"
        }
      ],
      "stateMutability": "view",
      "type": "function",
      "constant": true
    }
  ],
  "bytecode": "0x60806040523480156200001157600080fd5b506040805180820182526009815268333ab73230a1b7b4b760b91b60208083019182528351808501909452600584526466756e646160d81b908401528151919291620000609160029162000280565b5080516200007690600390602084019062000280565b5050600c805460ff1916905550620000916000335b6200011b565b620000bd7f9f2df0fed2c77648de5860a4cc508cd0818c85b8b8a1ab4ceeef8d981c8956a6336200008b565b620000e97f65d7a28e3265b37a6474929f336521b332c1681b933f6cb9f3376673440d862a336200008b565b620001157fc1a91faf0b957ac4b0051135514dc51df8ef6693c497eeacd753596aa67c1d0a336200008b565b62000363565b6200013282826200015e60201b620024591760201c565b600082815260016020908152604090912062000159918390620024676200016e821b17901c565b505050565b6200016a82826200018e565b5050565b600062000185836001600160a01b0384166200022e565b90505b92915050565b6000828152602081815260408083206001600160a01b038516845290915290205460ff166200016a576000828152602081815260408083206001600160a01b03851684529091529020805460ff19166001179055620001ea3390565b6001600160a01b0316816001600160a01b0316837f2f8788117e7eff1d82e926ec794901d17c78024a50270940304540a733656f0d60405160405180910390a45050565b6000818152600183016020526040812054620002775750815460018181018455600084815260208082209093018490558454848252828601909352604090209190915562000188565b50600062000188565b8280546200028e9062000326565b90600052602060002090601f016020900481019282620002b25760008555620002fd565b82601f10620002cd57805160ff1916838001178555620002fd565b82800160010185558215620002fd579182015b82811115620002fd578251825591602001919060010190620002e0565b506200030b9291506200030f565b5090565b5b808211156200030b576000815560010162000310565b600181811c908216806200033b57607f821691505b602082108114156200035d57634e487b7160e01b600052602260045260246000fd5b50919050565b61400f80620003736000396000f3fe6080604052600436106102c95760003560e01c806370a0823111610175578063c8756cda116100dc578063d56aa55811610095578063e7ec78e31161006f578063e7ec78e314610917578063e80838631461092c578063e93d78991461094c578063e985e9c514610980576102c9565b8063d56aa55814610882578063da4e364f146108b8578063e63ab1e9146108f5576102c9565b8063c8756cda146107ae578063c87b56dd146107ce578063ca15c873146107ee578063cda4beef1461080e578063d53913931461082e578063d547741f14610862576102c9565b806398c2e34f1161012e57806398c2e34f146106f9578063a217fddf14610719578063a22cb4651461072e578063b1b61bfa1461074e578063b88d4fde1461076e578063bd9dfe271461078e576102c9565b806370a082311461064f5780638456cb591461066f5780639010d07c1461068457806391d14854146106a457806395d89b41146106c457806396b5a755146106d9576102c9565b80632f745c591161023457806342966c68116101ed578063571a26a0116101c7578063571a26a0146105b85780635c975abb146105d85780635f93de49146105f05780636352211e1461062f576102c9565b806342966c68146105585780634589300b146105785780634f6ccce714610598576102c9565b80632f745c591461049657806336568abe146104b65780633f4ba83a146104d65780634008f9c0146104eb57806340c1a0641461051857806342842e0e14610538576102c9565b806318111ada1161028657806318111ada146103c157806318160ddd146103f457806323b872dd14610413578063248a9ca31461043357806326b7aeea146104635780632f2ff15d14610476576102c9565b806301ffc9a7146102ce57806306fdde0314610303578063081812fc1461032557806308b83ae41461035d578063095ea7b3146103725780630986b21014610394575b600080fd5b3480156102da57600080fd5b506102ee6102e9366004613b80565b6109c9565b60405190151581526020015b60405180910390f35b34801561030f57600080fd5b506103186109dc565b6040516102fa9190613d05565b34801561033157600080fd5b50610345610340366004613b25565b610a6e565b6040516001600160a01b0390911681526020016102fa565b34801561036957600080fd5b50610318610afb565b34801561037e57600080fd5b5061039261038d366004613afc565b610b8c565b005b3480156103a057600080fd5b506103b46103af36600461395a565b610ca2565b6040516102fa9190613cc1565b3480156103cd57600080fd5b506103e16103dc366004613b25565b610d0e565b6040516102fa9796959493929190613e02565b34801561040057600080fd5b50600a545b6040519081526020016102fa565b34801561041f57600080fd5b5061039261042e3660046139a6565b610e7d565b34801561043f57600080fd5b5061040561044e366004613b25565b60009081526020819052604090206001015490565b610392610471366004613b25565b610eaf565b34801561048257600080fd5b50610392610491366004613b3d565b61117c565b3480156104a257600080fd5b506104056104b1366004613afc565b61119e565b3480156104c257600080fd5b506103926104d1366004613b3d565b611237565b3480156104e257600080fd5b50610392611259565b3480156104f757600080fd5b50610405610506366004613b25565b60009081526012602052604090205490565b34801561052457600080fd5b50610345610533366004613b25565b6112ef565b34801561054457600080fd5b506103926105533660046139a6565b611332565b34801561056457600080fd5b50610392610573366004613b25565b61134d565b34801561058457600080fd5b50610392610593366004613a94565b6113c7565b3480156105a457600080fd5b506104056105b3366004613b25565b6114f4565b3480156105c457600080fd5b506103e16105d3366004613b25565b611595565b3480156105e457600080fd5b50600c5460ff166102ee565b3480156105fc57600080fd5b5061061061060b366004613b5f565b611683565b604080516001600160a01b0390931683526020830191909152016102fa565b34801561063b57600080fd5b5061034561064a366004613b25565b6116c9565b34801561065b57600080fd5b5061040561066a36600461395a565b611740565b34801561067b57600080fd5b506103926117c7565b34801561069057600080fd5b5061034561069f366004613b5f565b611859565b3480156106b057600080fd5b506102ee6106bf366004613b3d565b611878565b3480156106d057600080fd5b506103186118a1565b3480156106e557600080fd5b506103926106f4366004613b25565b6118b0565b34801561070557600080fd5b5061039261071436600461395a565b611b84565b34801561072557600080fd5b50610405600081565b34801561073a57600080fd5b50610392610749366004613a5a565b611c28565b34801561075a57600080fd5b506103b461076936600461395a565b611cfa565b34801561077a57600080fd5b506103926107893660046139e1565b611d64565b34801561079a57600080fd5b506104056107a9366004613afc565b611d96565b3480156107ba57600080fd5b506104056107c9366004613afc565b611dc7565b3480156107da57600080fd5b506103186107e9366004613b25565b611de3565b3480156107fa57600080fd5b50610405610809366004613b25565b611e9f565b34801561081a57600080fd5b506102ee610829366004613bb8565b611eb6565b34801561083a57600080fd5b506104057f9f2df0fed2c77648de5860a4cc508cd0818c85b8b8a1ab4ceeef8d981c8956a681565b34801561086e57600080fd5b5061039261087d366004613b3d565b6120b6565b34801561088e57600080fd5b5061040561089d36600461395a565b6001600160a01b031660009081526013602052604090205490565b3480156108c457600080fd5b506108d86108d3366004613b25565b6120c0565b604080519283526001600160a01b039091166020830152016102fa565b34801561090157600080fd5b50610405600080516020613fba83398151915281565b34801561092357600080fd5b5061031861215e565b34801561093857600080fd5b50610392610947366004613b25565b61217c565b34801561095857600080fd5b506104057fc1a91faf0b957ac4b0051135514dc51df8ef6693c497eeacd753596aa67c1d0a81565b34801561098c57600080fd5b506102ee61099b366004613974565b6001600160a01b03918216600090815260076020908152604080832093909416825291909152205460ff1690565b60006109d48261247c565b90505b919050565b6060600280546109eb90613ef7565b80601f0160208091040260200160405190810160405280929190818152602001828054610a1790613ef7565b8015610a645780601f10610a3957610100808354040283529160200191610a64565b820191906000526020600020905b815481529060010190602001808311610a4757829003601f168201915b5050505050905090565b6000610a79826124a1565b610adf5760405162461bcd60e51b815260206004820152602c60248201527f4552433732313a20617070726f76656420717565727920666f72206e6f6e657860448201526b34b9ba32b73a103a37b5b2b760a11b60648201526084015b60405180910390fd5b506000908152600660205260409020546001600160a01b031690565b6060610b086000336106bf565b610b545760405162461bcd60e51b815260206004820152601d60248201527f4d61737465723a206d75737420686176652061646d696e20726f6c65210000006044820152606401610ad6565b5060408051808201909152601781527f596f752061726520636f6e7472616374206f776e657221000000000000000000602082015290565b6000610b97826116c9565b9050806001600160a01b0316836001600160a01b03161415610c055760405162461bcd60e51b815260206004820152602160248201527f4552433732313a20617070726f76616c20746f2063757272656e74206f776e656044820152603960f91b6064820152608401610ad6565b336001600160a01b0382161480610c215750610c21813361099b565b610c935760405162461bcd60e51b815260206004820152603860248201527f4552433732313a20617070726f76652063616c6c6572206973206e6f74206f7760448201527f6e6572206e6f7220617070726f76656420666f7220616c6c00000000000000006064820152608401610ad6565b610c9d83836124be565b505050565b6001600160a01b0381166000908152601460209081526040808320805482518185028101850190935280835260609493830182828015610d0157602002820191906000526020600020905b815481526020019060010190808311610ced575b5093979650505050505050565b60008060606000806000806000600f8981548110610d3c57634e487b7160e01b600052603260045260246000fd5b90600052602060002090600502016040518060e00160405290816000820154815260200160018201548152602001600282018054610d7990613ef7565b80601f0160208091040260200160405190810160405280929190818152602001828054610da590613ef7565b8015610df25780601f10610dc757610100808354040283529160200191610df2565b820191906000526020600020905b815481529060010190602001808311610dd557829003601f168201915b505050918352505060038201546020808301919091526004909201546001600160a01b03811660408084019190915260ff600160a01b830481161515606080860191909152600160a81b90930416151560809384015284519385015190850151918501519285015160a086015160c090960151949f919e50919c50919a509850919650945092505050565b610e88335b8261252c565b610ea45760405162461bcd60e51b8152600401610ad690613d6a565b610c9d838383612616565b60003490506000600f8381548110610ed757634e487b7160e01b600052603260045260246000fd5b90600052602060002090600502016040518060e00160405290816000820154815260200160018201548152602001600282018054610f1490613ef7565b80601f0160208091040260200160405190810160405280929190818152602001828054610f4090613ef7565b8015610f8d5780601f10610f6257610100808354040283529160200191610f8d565b820191906000526020600020905b815481529060010190602001808311610f7057829003601f168201915b5050509183525050600382015460208201526004909101546001600160a01b03808216604084015260ff600160a01b8304811615156060850152600160a81b90920490911615156080928301529082015191925016331415610fee57600080fd5b8051421115610ffc57600080fd5b600083815260126020908152604080832054848301518251808401909352848352928201939093528215611099576000868152601260205260409020611043600185613e9d565b8154811061106157634e487b7160e01b600052603260045260246000fd5b60009182526020918290206040805180820190915260029092020180546001600160a01b031682526001015491810182905290925090505b818510156110a657600080fd5b82156110e157805160208201516040516001600160a01b039092169181156108fc0291906000818181858888f193505050506110e157600080fd5b60408051808201825233808252602080830189815260008b81526012835285812080546001808201835591835291849020865160029093020180546001600160a01b0319166001600160a01b03909316929092178255915191015583519182528101899052825191927f5762e6a7d331cd17a1761e94de3ea3b85e90ee6cdd9d1204e361cc650689d46392918290030190a150505050505050565b61118682826127c1565b6000828152600160205260409020610c9d9082612467565b60006111a983611740565b821061120b5760405162461bcd60e51b815260206004820152602b60248201527f455243373231456e756d657261626c653a206f776e657220696e646578206f7560448201526a74206f6620626f756e647360a81b6064820152608401610ad6565b506001600160a01b03821660009081526008602090815260408083208484529091529020545b92915050565b61124182826127e8565b6000828152600160205260409020610c9d9082612862565b611271600080516020613fba833981519152336106bf565b6112e5576040805162461bcd60e51b81526020600482015260248101919091527f4552433732315072657365744d696e7465725061757365724175746f49643a2060448201527f6d75737420686176652070617573657220726f6c6520746f20756e70617573656064820152608401610ad6565b6112ed612877565b565b60006112fa826124a1565b6113165760405162461bcd60e51b8152600401610ad690613dbb565b506000908152601160205260409020546001600160a01b031690565b610c9d83838360405180602001604052806000815250611d64565b61135633610e82565b6113bb5760405162461bcd60e51b815260206004820152603060248201527f4552433732314275726e61626c653a2063616c6c6572206973206e6f74206f7760448201526f1b995c881b9bdc88185c1c1c9bdd995960821b6064820152608401610ad6565b6113c48161290a565b50565b6113f17f9f2df0fed2c77648de5860a4cc508cd0818c85b8b8a1ab4ceeef8d981c8956a6336106bf565b61144b5760405162461bcd60e51b815260206004820152602560248201527f4d61737465723a206d7573742068617665206d696e74657220726f6c6520746f604482015264081b5a5b9d60da1b6064820152608401610ad6565b611454816124a1565b156114a15760405162461bcd60e51b815260206004820181905260248201527f4d61737465723a20546f6b656e496420616c7265616479206578697374656e746044820152606401610ad6565b6114af600d80546001019055565b6114b983826129b1565b6114c48183856129cb565b6001600160a01b039092166000908152601460209081526040822080546001810182559083529120019190915550565b60006114ff600a5490565b82106115625760405162461bcd60e51b815260206004820152602c60248201527f455243373231456e756d657261626c653a20676c6f62616c20696e646578206f60448201526b7574206f6620626f756e647360a01b6064820152608401610ad6565b600a828154811061158357634e487b7160e01b600052603260045260246000fd5b90600052602060002001549050919050565b600f81815481106115a557600080fd5b90600052602060002090600502016000915090508060000154908060010154908060020180546115d490613ef7565b80601f016020809104026020016040519081016040528092919081815260200182805461160090613ef7565b801561164d5780601f106116225761010080835404028352916020019161164d565b820191906000526020600020905b81548152906001019060200180831161163057829003601f168201915b50505060038401546004909401549293926001600160a01b038116925060ff600160a01b820481169250600160a81b9091041687565b6012602052816000526040600020818154811061169f57600080fd5b6000918252602090912060029091020180546001909101546001600160a01b039091169250905082565b6000818152600460205260408120546001600160a01b0316806109d45760405162461bcd60e51b815260206004820152602960248201527f4552433732313a206f776e657220717565727920666f72206e6f6e657869737460448201526832b73a103a37b5b2b760b91b6064820152608401610ad6565b60006001600160a01b0382166117ab5760405162461bcd60e51b815260206004820152602a60248201527f4552433732313a2062616c616e636520717565727920666f7220746865207a65604482015269726f206164647265737360b01b6064820152608401610ad6565b506001600160a01b031660009081526005602052604090205490565b6117df600080516020613fba833981519152336106bf565b6118515760405162461bcd60e51b815260206004820152603e60248201527f4552433732315072657365744d696e7465725061757365724175746f49643a2060448201527f6d75737420686176652070617573657220726f6c6520746f20706175736500006064820152608401610ad6565b6112ed612a7c565b60008281526001602052604081206118719083612af7565b9392505050565b6000918252602082815260408084206001600160a01b0393909316845291905290205460ff1690565b6060600380546109eb90613ef7565b80336001600160a01b0316600f82815481106118dc57634e487b7160e01b600052603260045260246000fd5b60009182526020909120600460059092020101546001600160a01b03161461190357600080fd5b6000600f838154811061192657634e487b7160e01b600052603260045260246000fd5b90600052602060002090600502016040518060e0016040529081600082015481526020016001820154815260200160028201805461196390613ef7565b80601f016020809104026020016040519081016040528092919081815260200182805461198f90613ef7565b80156119dc5780601f106119b1576101008083540402835291602001916119dc565b820191906000526020600020905b8154815290600101906020018083116119bf57829003601f168201915b505050918352505060038201546020808301919091526004909201546001600160a01b03811660408084019190915260ff600160a01b8304811615156060850152600160a81b9092049091161515608090920191909152600086815260129092529020549091508015611ada576000848152601260205260408120611a62600184613e9d565b81548110611a8057634e487b7160e01b600052603260045260246000fd5b60009182526020808320604080518082018252600290940290910180546001600160a01b031680855260019091015492840183905290519294509281156108fc029290818181858888f19350505050611ad857600080fd5b505b611aed3083608001518460600151612b03565b15611b7e576000600f8581548110611b1557634e487b7160e01b600052603260045260246000fd5b60009182526020918290206004600590920201018054921515600160a01b0260ff60a01b1990931692909217909155604080513381529182018690527f39e6c898ce035bbacd9ba4f9753534f8c9f976e0ff70be83cfe887f235afa1d391015b60405180910390a15b50505050565b611b8f6000336106bf565b611bdb5760405162461bcd60e51b815260206004820152601d60248201527f4d61737465723a206d75737420686176652061646d696e20726f6c65210000006044820152606401610ad6565b611be6600082612b24565b611c107f9f2df0fed2c77648de5860a4cc508cd0818c85b8b8a1ab4ceeef8d981c8956a682612b24565b6113c4600080516020613fba83398151915282612b24565b6001600160a01b038216331415611c815760405162461bcd60e51b815260206004820152601960248201527f4552433732313a20617070726f766520746f2063616c6c6572000000000000006044820152606401610ad6565b3360008181526007602090815260408083206001600160a01b0387168085529252909120805460ff1916841515179055906001600160a01b03167f17307eab39ab6107e8899845ad3d59bd9653f200f220920489ca2b5937696c3183604051611cee911515815260200190565b60405180910390a35050565b6001600160a01b0381166000908152601360209081526040808320805482518185028101850190935280835260609493830182828015610d015760200282019190600052602060002090815481526020019060010190808311610ced575093979650505050505050565b611d6e338361252c565b611d8a5760405162461bcd60e51b8152600401610ad690613d6a565b611b7e84848484612b2e565b60146020528160005260406000208181548110611db257600080fd5b90600052602060002001600091509150505481565b60136020528160005260406000208181548110611db257600080fd5b6060611dee826124a1565b611e0a5760405162461bcd60e51b8152600401610ad690613dbb565b60008281526010602052604081208054611e2390613ef7565b80601f0160208091040260200160405190810160405280929190818152602001828054611e4f90613ef7565b8015610d015780601f10611e7157610100808354040283529160200191610d01565b820191906000526020600020905b815481529060010190602001808311611e7f575093979650505050505050565b60008181526001602052604081206109d490612b61565b6000611ec6600e80546001019055565b6000611ed185611de3565b90506000611ede600e5490565b9050611f2d6040518060e001604052806000815260200160008152602001606081526020016000815260200160006001600160a01b031681526020016000151581526020016000151581525090565b848152602080820187815260408301858152606084018a9052336080850152600160a08501819052600060c08601819052600f80549283018155905284517f8d1108e10bcb7c27dddfc02ed9d693a074039d026cf4ea4240b40f7d581ac802600590920291820190815592517f8d1108e10bcb7c27dddfc02ed9d693a074039d026cf4ea4240b40f7d581ac803820155905180518594611ff1937f8d1108e10bcb7c27dddfc02ed9d693a074039d026cf4ea4240b40f7d581ac80401920190613834565b506060820151600382015560808201516004909101805460a084015160c0909401511515600160a81b0260ff60a81b19941515600160a01b026001600160a81b03199092166001600160a01b03909416939093171792909216179055336000818152601360209081526040808320805460018101825590845292829020909201859055815192835282018490527f3249a06bd478adf780bb7930214ad005e9cfa517d63221c0b77f27199d1a58b3910160405180910390a15060019695505050505050565b6112418282612b6b565b600081815260126020526040812054819080156121505760008481526012602052604081206120f0600184613e9d565b8154811061210e57634e487b7160e01b600052603260045260246000fd5b60009182526020918290206040805180820190915260029092020180546001600160a01b03168083526001909101549190920181905294509250612159915050565b60008092509250505b915091565b6060600061216b600d5490565b905061217681612b91565b91505090565b6000600f828154811061219f57634e487b7160e01b600052603260045260246000fd5b90600052602060002090600502016040518060e001604052908160008201548152602001600182015481526020016002820180546121dc90613ef7565b80601f016020809104026020016040519081016040528092919081815260200182805461220890613ef7565b80156122555780601f1061222a57610100808354040283529160200191612255565b820191906000526020600020905b81548152906001019060200180831161223857829003601f168201915b505050918352505060038201546020808301919091526004909201546001600160a01b03811660408084019190915260ff600160a01b8304811615156060850152600160a81b9092049091161515608090920191909152600085815260129092529020549091506122c6600e612cac565b806122d9576122d4836118b0565b610c9d565b60008381526012602052604081206122f2600184613e9d565b8154811061231057634e487b7160e01b600052603260045260246000fd5b60009182526020808320604080518082018252600290940290910180546001600160a01b03908116855260019091015492840183905260808801519151939550169281156108fc029290818181858888f1935050505061236f57600080fd5b6123823082600001518560600151612b03565b15611b7e576000600f85815481106123aa57634e487b7160e01b600052603260045260246000fd5b906000526020600020906005020160040160146101000a81548160ff0219169083151502179055506001600f85815481106123f557634e487b7160e01b600052603260045260246000fd5b60009182526020918290206004600590920201018054921515600160a81b0260ff60a81b1990931692909217909155604080513381529182018690527f357afab190ee87fe0ef1c717f2728d2904d9e415a069d99f4d9382873cb3279d9101611b75565b6124638282612d03565b5050565b6000611871836001600160a01b038416612d87565b60006001600160e01b0319821663780e9d6360e01b14806109d457506109d482612dd6565b6000908152600460205260409020546001600160a01b0316151590565b600081815260066020526040902080546001600160a01b0319166001600160a01b03841690811790915581906124f3826116c9565b6001600160a01b03167f8c5be1e5ebec7d5bd14f71427d1e84f3dd0314c0f7b2291e5b200ac8c7c3b92560405160405180910390a45050565b6000612537826124a1565b6125985760405162461bcd60e51b815260206004820152602c60248201527f4552433732313a206f70657261746f7220717565727920666f72206e6f6e657860448201526b34b9ba32b73a103a37b5b2b760a11b6064820152608401610ad6565b60006125a3836116c9565b9050806001600160a01b0316846001600160a01b031614806125de5750836001600160a01b03166125d384610a6e565b6001600160a01b0316145b8061260e57506001600160a01b0380821660009081526007602090815260408083209388168352929052205460ff165b949350505050565b826001600160a01b0316612629826116c9565b6001600160a01b0316146126915760405162461bcd60e51b815260206004820152602960248201527f4552433732313a207472616e73666572206f6620746f6b656e2074686174206960448201526839903737ba1037bbb760b91b6064820152608401610ad6565b6001600160a01b0382166126f35760405162461bcd60e51b8152602060048201526024808201527f4552433732313a207472616e7366657220746f20746865207a65726f206164646044820152637265737360e01b6064820152608401610ad6565b6126fe838383612e16565b6127096000826124be565b6001600160a01b0383166000908152600560205260408120805460019290612732908490613e9d565b90915550506001600160a01b0382166000908152600560205260408120805460019290612760908490613e52565b909155505060008181526004602052604080822080546001600160a01b0319166001600160a01b0386811691821790925591518493918716917fddf252ad1be2c89b69c2b068fc378daa952ba7f163c4a11628f55a4df523b3ef91a4505050565b6000828152602081905260409020600101546127de81335b612e21565b610c9d8383612d03565b6001600160a01b03811633146128585760405162461bcd60e51b815260206004820152602f60248201527f416363657373436f6e74726f6c3a2063616e206f6e6c792072656e6f756e636560448201526e103937b632b9903337b91039b2b63360891b6064820152608401610ad6565b6124638282612e85565b6000611871836001600160a01b038416612eea565b600c5460ff166128c05760405162461bcd60e51b815260206004820152601460248201527314185d5cd8589b194e881b9bdd081c185d5cd95960621b6044820152606401610ad6565b600c805460ff191690557f5db9ee0a495bf2e6ff9c91a7834c1ba4fdd244a5e8aa4e537bd38aeae4b073aa335b6040516001600160a01b03909116815260200160405180910390a1565b6000612915826116c9565b905061292381600084612e16565b61292e6000836124be565b6001600160a01b0381166000908152600560205260408120805460019290612957908490613e9d565b909155505060008281526004602052604080822080546001600160a01b0319169055518391906001600160a01b038416907fddf252ad1be2c89b69c2b068fc378daa952ba7f163c4a11628f55a4df523b3ef908390a45050565b612463828260405180602001604052806000815250613001565b6129d4836124a1565b612a2c5760405162461bcd60e51b8152602060048201526024808201527f4d61737465723a2055524920736574206f66206e6f6e6578697374656e74207460448201526337b5b2b760e11b6064820152608401610ad6565b60008381526010602090815260409091208351612a4b92850190613834565b5060009283526011602052604090922080546001600160a01b0319166001600160a01b039093169290921790915550565b600c5460ff1615612ac25760405162461bcd60e51b815260206004820152601060248201526f14185d5cd8589b194e881c185d5cd95960821b6044820152606401610ad6565b600c805460ff191660011790557f62e78cea01bee320cd4e420270b5ea74000d11b0c9f74754ebdbfc544b05a2586128ed3390565b60006118718383613034565b6000612b0f8383610b8c565b612b1a848484610e7d565b5060019392505050565b6111868282612459565b612b39848484612616565b612b45848484846130c8565b611b7e5760405162461bcd60e51b8152600401610ad690613d18565b60006109d4825490565b600082815260208190526040902060010154612b8781336127d9565b610c9d8383612e85565b606081612bb657506040805180820190915260018152600360fc1b60208201526109d7565b8160005b8115612be05780612bca81613f32565b9150612bd99050600a83613e6a565b9150612bba565b60008167ffffffffffffffff811115612c0957634e487b7160e01b600052604160045260246000fd5b6040519080825280601f01601f191660200182016040528015612c33576020820181803683370190505b5090505b841561260e57612c48600183613e9d565b9150612c55600a86613f4d565b612c60906030613e52565b60f81b818381518110612c8357634e487b7160e01b600052603260045260246000fd5b60200101906001600160f81b031916908160001a905350612ca5600a86613e6a565b9450612c37565b805480612cfb5760405162461bcd60e51b815260206004820152601b60248201527f436f756e7465723a2064656372656d656e74206f766572666c6f7700000000006044820152606401610ad6565b600019019055565b612d0d8282611878565b612463576000828152602081815260408083206001600160a01b03851684529091529020805460ff19166001179055612d433390565b6001600160a01b0316816001600160a01b0316837f2f8788117e7eff1d82e926ec794901d17c78024a50270940304540a733656f0d60405160405180910390a45050565b6000818152600183016020526040812054612dce57508154600181810184556000848152602080822090930184905584548482528286019093526040902091909155611231565b506000611231565b60006001600160e01b031982166380ac58cd60e01b1480612e0757506001600160e01b03198216635b5e139f60e01b145b806109d457506109d4826131d5565b610c9d8383836131fa565b612e2b8282611878565b61246357612e43816001600160a01b0316601461326c565b612e4e83602061326c565b604051602001612e5f929190613c0f565b60408051601f198184030181529082905262461bcd60e51b8252610ad691600401613d05565b612e8f8282611878565b15612463576000828152602081815260408083206001600160a01b0385168085529252808320805460ff1916905551339285917ff6391f5c32d9c69d2a47ea670b442974b53935d1edc7fd64eb21e047a839171b9190a45050565b60008181526001830160205260408120548015612ff7576000612f0e600183613e9d565b8554909150600090612f2290600190613e9d565b90506000866000018281548110612f4957634e487b7160e01b600052603260045260246000fd5b9060005260206000200154905080876000018481548110612f7a57634e487b7160e01b600052603260045260246000fd5b600091825260208083209091019290925582815260018901909152604090208490558654879080612fbb57634e487b7160e01b600052603160045260246000fd5b60019003818190600052602060002001600090559055866001016000878152602001908152602001600020600090556001945050505050611231565b6000915050611231565b61300b838361344e565b61301860008484846130c8565b610c9d5760405162461bcd60e51b8152600401610ad690613d18565b815460009082106130925760405162461bcd60e51b815260206004820152602260248201527f456e756d657261626c655365743a20696e646578206f7574206f6620626f756e604482015261647360f01b6064820152608401610ad6565b8260000182815481106130b557634e487b7160e01b600052603260045260246000fd5b9060005260206000200154905092915050565b60006001600160a01b0384163b156131ca57604051630a85bd0160e11b81526001600160a01b0385169063150b7a029061310c903390899088908890600401613c84565b602060405180830381600087803b15801561312657600080fd5b505af1925050508015613156575060408051601f3d908101601f1916820190925261315391810190613b9c565b60015b6131b0573d808015613184576040519150601f19603f3d011682016040523d82523d6000602084013e613189565b606091505b5080516131a85760405162461bcd60e51b8152600401610ad690613d18565b805181602001fd5b6001600160e01b031916630a85bd0160e11b14905061260e565b506001949350505050565b60006001600160e01b03198216635a05180f60e01b14806109d457506109d48261358d565b6132058383836135c2565b600c5460ff1615610c9d5760405162461bcd60e51b815260206004820152602b60248201527f4552433732315061757361626c653a20746f6b656e207472616e73666572207760448201526a1a1a5b19481c185d5cd95960aa1b6064820152608401610ad6565b6060600061327b836002613e7e565b613286906002613e52565b67ffffffffffffffff8111156132ac57634e487b7160e01b600052604160045260246000fd5b6040519080825280601f01601f1916602001820160405280156132d6576020820181803683370190505b509050600360fc1b816000815181106132ff57634e487b7160e01b600052603260045260246000fd5b60200101906001600160f81b031916908160001a905350600f60fb1b8160018151811061333c57634e487b7160e01b600052603260045260246000fd5b60200101906001600160f81b031916908160001a9053506000613360846002613e7e565b61336b906001613e52565b90505b60018111156133ff576f181899199a1a9b1b9c1cb0b131b232b360811b85600f16601081106133ad57634e487b7160e01b600052603260045260246000fd5b1a60f81b8282815181106133d157634e487b7160e01b600052603260045260246000fd5b60200101906001600160f81b031916908160001a90535060049490941c936133f881613ee0565b905061336e565b5083156118715760405162461bcd60e51b815260206004820181905260248201527f537472696e67733a20686578206c656e67746820696e73756666696369656e746044820152606401610ad6565b6001600160a01b0382166134a45760405162461bcd60e51b815260206004820181905260248201527f4552433732313a206d696e7420746f20746865207a65726f20616464726573736044820152606401610ad6565b6134ad816124a1565b156134fa5760405162461bcd60e51b815260206004820152601c60248201527f4552433732313a20746f6b656e20616c7265616479206d696e746564000000006044820152606401610ad6565b61350660008383612e16565b6001600160a01b038216600090815260056020526040812080546001929061352f908490613e52565b909155505060008181526004602052604080822080546001600160a01b0319166001600160a01b03861690811790915590518392907fddf252ad1be2c89b69c2b068fc378daa952ba7f163c4a11628f55a4df523b3ef908290a45050565b60006001600160e01b03198216637965db0b60e01b14806109d457506301ffc9a760e01b6001600160e01b03198316146109d4565b6001600160a01b03831661361d5761361881600a80546000838152600b60205260408120829055600182018355919091527fc65a7bb8d6351c1cf70c95a316cc6a92839c986682d98bc35f958f4883f9d2a80155565b613640565b816001600160a01b0316836001600160a01b03161461364057613640838261367a565b6001600160a01b038216613657576122d481613717565b826001600160a01b0316826001600160a01b031614610c9d57610c9d82826137f0565b6000600161368784611740565b6136919190613e9d565b6000838152600960205260409020549091508082146136e4576001600160a01b03841660009081526008602090815260408083208584528252808320548484528184208190558352600990915290208190555b5060009182526009602090815260408084208490556001600160a01b039094168352600881528383209183525290812055565b600a5460009061372990600190613e9d565b6000838152600b6020526040812054600a805493945090928490811061375f57634e487b7160e01b600052603260045260246000fd5b9060005260206000200154905080600a838154811061378e57634e487b7160e01b600052603260045260246000fd5b6000918252602080832090910192909255828152600b9091526040808220849055858252812055600a8054806137d457634e487b7160e01b600052603160045260246000fd5b6001900381819060005260206000200160009055905550505050565b60006137fb83611740565b6001600160a01b039093166000908152600860209081526040808320868452825280832085905593825260099052919091209190915550565b82805461384090613ef7565b90600052602060002090601f01602090048101928261386257600085556138a8565b82601f1061387b57805160ff19168380011785556138a8565b828001600101855582156138a8579182015b828111156138a857825182559160200191906001019061388d565b506138b49291506138b8565b5090565b5b808211156138b457600081556001016138b9565b600067ffffffffffffffff808411156138e8576138e8613f8d565b604051601f8501601f19908116603f0116810190828211818310171561391057613910613f8d565b8160405280935085815286868601111561392957600080fd5b858560208301376000602087830101525050509392505050565b80356001600160a01b03811681146109d757600080fd5b60006020828403121561396b578081fd5b61187182613943565b60008060408385031215613986578081fd5b61398f83613943565b915061399d60208401613943565b90509250929050565b6000806000606084860312156139ba578081fd5b6139c384613943565b92506139d160208501613943565b9150604084013590509250925092565b600080600080608085870312156139f6578081fd5b6139ff85613943565b9350613a0d60208601613943565b925060408501359150606085013567ffffffffffffffff811115613a2f578182fd5b8501601f81018713613a3f578182fd5b613a4e878235602084016138cd565b91505092959194509250565b60008060408385031215613a6c578182fd5b613a7583613943565b915060208301358015158114613a89578182fd5b809150509250929050565b600080600060608486031215613aa8578283fd5b613ab184613943565b9250602084013567ffffffffffffffff811115613acc578283fd5b8401601f81018613613adc578283fd5b613aeb868235602084016138cd565b925050604084013590509250925092565b60008060408385031215613b0e578182fd5b613b1783613943565b946020939093013593505050565b600060208284031215613b36578081fd5b5035919050565b60008060408385031215613b4f578182fd5b8235915061399d60208401613943565b60008060408385031215613b71578182fd5b50508035926020909101359150565b600060208284031215613b91578081fd5b813561187181613fa3565b600060208284031215613bad578081fd5b815161187181613fa3565b600080600060608486031215613bcc578081fd5b505081359360208301359350604090920135919050565b60008151808452613bfb816020860160208601613eb4565b601f01601f19169290920160200192915050565b60007f416363657373436f6e74726f6c3a206163636f756e742000000000000000000082528351613c47816017850160208801613eb4565b7001034b99036b4b9b9b4b733903937b6329607d1b6017918401918201528351613c78816028840160208801613eb4565b01602801949350505050565b6001600160a01b0385811682528416602082015260408101839052608060608201819052600090613cb790830184613be3565b9695505050505050565b6020808252825182820181905260009190848201906040850190845b81811015613cf957835183529284019291840191600101613cdd565b50909695505050505050565b6000602082526118716020830184613be3565b60208082526032908201527f4552433732313a207472616e7366657220746f206e6f6e20455243373231526560408201527131b2b4bb32b91034b6b83632b6b2b73a32b960711b606082015260800190565b60208082526031908201527f4552433732313a207472616e736665722063616c6c6572206973206e6f74206f6040820152701ddb995c881b9bdc88185c1c1c9bdd9959607a1b606082015260800190565b60208082526027908201527f4d61737465723a2055524920717565727920666f72206e6f6e6578697374656e6040820152663a103a37b5b2b760c91b606082015260800190565b600088825287602083015260e06040830152613e2160e0830188613be3565b6060830196909652506001600160a01b0393909316608084015290151560a0830152151560c0909101529392505050565b60008219821115613e6557613e65613f61565b500190565b600082613e7957613e79613f77565b500490565b6000816000190483118215151615613e9857613e98613f61565b500290565b600082821015613eaf57613eaf613f61565b500390565b60005b83811015613ecf578181015183820152602001613eb7565b83811115611b7e5750506000910152565b600081613eef57613eef613f61565b506000190190565b600181811c90821680613f0b57607f821691505b60208210811415613f2c57634e487b7160e01b600052602260045260246000fd5b50919050565b6000600019821415613f4657613f46613f61565b5060010190565b600082613f5c57613f5c613f77565b500690565b634e487b7160e01b600052601160045260246000fd5b634e487b7160e01b600052601260045260246000fd5b634e487b7160e01b600052604160045260246000fd5b6001600160e01b0319811681146113c457600080fdfe65d7a28e3265b37a6474929f336521b332c1681b933f6cb9f3376673440d862aa2646970667358221220a9ec1913b498b405315f09eac56cbb62088abc5671f2e7e8666f2ad80cc4e1fe64736f6c63430008030033",
  "immutableReferences": {},
  "source": "// SPDX-License-Identifier: Non-Licensed\r\npragma solidity ^0.8.0;\r\n\r\nimport \"../node_modules/@openzeppelin/contracts/token/ERC721/ERC721.sol\";\r\nimport \"../node_modules/@openzeppelin/contracts/token/ERC721/extensions/ERC721Enumerable.sol\";\r\nimport \"../node_modules/@openzeppelin/contracts/token/ERC721/extensions/ERC721Burnable.sol\";\r\nimport \"../node_modules/@openzeppelin/contracts/token/ERC721/extensions/ERC721Pausable.sol\";\r\nimport \"../node_modules/@openzeppelin/contracts/access/AccessControlEnumerable.sol\";\r\nimport \"../node_modules/@openzeppelin/contracts/utils/Context.sol\";\r\nimport \"../node_modules/@openzeppelin/contracts/utils/Counters.sol\";\r\n\r\n\r\ncontract Auction is Context, AccessControlEnumerable, ERC721Enumerable, ERC721Burnable, ERC721Pausable {\r\n    using Counters for Counters.Counter;\r\n    using Strings for uint256;\r\n\r\n    Counters.Counter private _tokenIdTracker;\r\n    Counters.Counter private _auctionIdTracker;\r\n\r\n    bytes32 public constant MINTER_ROLE = keccak256(\"MINTER_ROLE\");\r\n    bytes32 public constant PAUSER_ROLE = keccak256(\"PAUSER_ROLE\");\r\n    bytes32 public constant DEED_ROLE = keccak256(\"DEED_ROLE\");\r\n    \r\n\r\n    // Array with all auctions\r\n    AuctionDto[] public auctions;\r\n    \r\n    // Bid struct to hold bidder and amount\r\n    struct Bid {\r\n        address payable from;\r\n        uint256 amount;\r\n    }\r\n\r\n    // Optional mapping for token URIs\r\n    mapping (uint256 => string) private _tokenURIs;\r\n    mapping (uint256 => address) private _tokenCreators;\r\n\r\n\r\n    constructor() ERC721(\"fundaCoin\", \"funda\") {\r\n        _setupRole(DEFAULT_ADMIN_ROLE, _msgSender());\r\n        _setupRole(MINTER_ROLE, _msgSender());\r\n        _setupRole(PAUSER_ROLE, _msgSender());\r\n        _setupRole(DEED_ROLE, _msgSender());\r\n    }\r\n\r\n    function addOwnerOfContract(address newOwner) public{\r\n        require(hasRole(DEFAULT_ADMIN_ROLE, _msgSender()), \"Master: must have admin role!\");\r\n        _setupRole(DEFAULT_ADMIN_ROLE, newOwner);\r\n        _setupRole(MINTER_ROLE, newOwner);\r\n        _setupRole(PAUSER_ROLE, newOwner);\r\n    }\r\n\r\n    function testContractOwner() public view returns (string memory){\r\n        require(hasRole(DEFAULT_ADMIN_ROLE, _msgSender()), \"Master: must have admin role!\");\r\n        return \"You are contract owner!\";\r\n    }\r\n\r\n    // Auction struct which holds all the required info\r\n    struct AuctionDto {\r\n        uint256 deadline;\r\n        uint256 startPrice;\r\n        string metadata;\r\n        uint256 tokenId;\r\n        address payable owner;\r\n        bool active;\r\n        bool finalized;\r\n    }\r\n\r\n    // Mapping from auction index to user bids\r\n    mapping(uint256 => Bid[]) public auctionBids;\r\n\r\n    // Mapping from owner to a list of owned auctions\r\n    mapping(address => uint[]) public auctionOwner;\r\n\r\n    mapping(address => uint[]) public tokenOwner;\r\n\r\n    function getTokensOf(address _owner) public view returns(uint[] memory) {\r\n        uint[] memory ownedTokens = tokenOwner[_owner];\r\n        return ownedTokens;\r\n    }\r\n\r\n    /**\r\n    * @dev Gets the bid counts of a given auction\r\n    * @param _auctionId uint ID of the auction\r\n    */\r\n    function getBidsCount(uint _auctionId) public view returns(uint) {\r\n        return auctionBids[_auctionId].length;\r\n    }\r\n\r\n    /**\r\n    * @dev Gets an array of owned auctions\r\n    * @param _owner address of the auction owner\r\n    */\r\n    function getAuctionsOf(address _owner) public view returns(uint[] memory) {\r\n        uint[] memory ownedAuctions = auctionOwner[_owner];\r\n        return ownedAuctions;\r\n    }\r\n\r\n    /**\r\n    * @dev Gets an array of owned auctions\r\n    * @param _auctionId uint of the auction owner\r\n    * @return amount uint256, address of last bidder\r\n    */\r\n    function getCurrentBid(uint _auctionId) public view returns(uint256, address) {\r\n        uint bidsLength = auctionBids[_auctionId].length;\r\n        // if there are bids refund the last bid\r\n        if( bidsLength > 0 ) {\r\n            Bid memory lastBid = auctionBids[_auctionId][bidsLength - 1];\r\n            return (lastBid.amount, lastBid.from);\r\n        }\r\n        return (uint256(0), address(0));\r\n    }\r\n\r\n    /**\r\n    * @dev Gets the total number of auctions owned by an address\r\n    * @param _owner address of the owner\r\n    * @return uint total number of auctions\r\n    */\r\n    function getAuctionsCountOfOwner(address _owner) public view returns(uint) {\r\n        return auctionOwner[_owner].length;\r\n    }\r\n\r\n    function getAuctionById(uint _auctionId) public view returns(\r\n        uint256 deadline,\r\n        uint256 startPrice,\r\n        string memory metadata,\r\n        uint256 tokenId,\r\n        address payable owner,\r\n        bool active,\r\n        bool finalized) {\r\n\r\n        AuctionDto memory auc = auctions[_auctionId];\r\n        return (\r\n            auc.deadline, \r\n            auc.startPrice, \r\n            auc.metadata, \r\n            auc.tokenId, \r\n            auc.owner, \r\n            auc.active, \r\n            auc.finalized);\r\n    }\r\n    \r\n    function createAuction(uint256 _propertyId, uint256 _startPrice, uint _deadline) public virtual returns(bool) {\r\n        // address payable user = payable(msg.sender);\r\n        // address auctionContractAddress = address(this);\r\n        // from, to, id\r\n        // safeTransferFrom(user, auctionContractAddress, _propertyId);\r\n        _auctionIdTracker.increment();\r\n\r\n        string memory _tokenURI = tokenURI(_propertyId);\r\n\r\n        uint auctionId = _auctionIdTracker.current();\r\n        AuctionDto memory newAuction;\r\n        newAuction.deadline = _deadline;\r\n        newAuction.startPrice = _startPrice;\r\n        newAuction.metadata = _tokenURI;\r\n        newAuction.tokenId = _propertyId;\r\n        newAuction.owner = payable(msg.sender);\r\n        newAuction.active = true;\r\n        newAuction.finalized = false;\r\n        \r\n        auctions.push(newAuction);        \r\n        auctionOwner[msg.sender].push(auctionId);\r\n        \r\n        emit AuctionCreated(msg.sender, auctionId);\r\n        return true;\r\n    }\r\n\r\n    function approveAndTransfer(address _from, address _to,  uint256 _tokenId) internal returns(bool) {\r\n        approve(_to, _tokenId);\r\n        transferFrom(_from, _to, _tokenId);\r\n        return true;\r\n    }\r\n\r\n    modifier isOwner(uint _auctionId) {\r\n        require(auctions[_auctionId].owner == msg.sender);\r\n        _;\r\n    }\r\n\r\n    function cancelAuction(uint _auctionId) public isOwner(_auctionId){\r\n        AuctionDto memory myAuction = auctions[_auctionId];\r\n        uint bidsLength = auctionBids[_auctionId].length;\r\n\r\n        // if there are bids refund the last bid\r\n        if( bidsLength > 0 ) {\r\n            Bid memory lastBid = auctionBids[_auctionId][bidsLength - 1];\r\n            if(!lastBid.from.send(lastBid.amount)) {\r\n                revert();\r\n            }\r\n        }\r\n\r\n        // approve and transfer from this contract to auction owner\r\n        if(approveAndTransfer(address(this), myAuction.owner, myAuction.tokenId)){\r\n            auctions[_auctionId].active = false;\r\n            emit AuctionCanceled(msg.sender, _auctionId);\r\n        }\r\n    }\r\n\r\n    function finalizeAuction(uint _auctionId) public {\r\n        AuctionDto memory myAuction = auctions[_auctionId];\r\n        uint bidsLength = auctionBids[_auctionId].length;\r\n\r\n        _auctionIdTracker.decrement();\r\n\r\n        // if there are no bids cancel\r\n        if(bidsLength == 0) {\r\n            cancelAuction(_auctionId);\r\n        }else{\r\n\r\n            // the money goes to the auction owner\r\n            Bid memory lastBid = auctionBids[_auctionId][bidsLength - 1];\r\n            if(!myAuction.owner.send(lastBid.amount)) {\r\n                revert();\r\n            }\r\n\r\n            // approve and transfer from this contract to the bid winner \r\n            if(approveAndTransfer(address(this), lastBid.from, myAuction.tokenId)){\r\n                auctions[_auctionId].active = false;\r\n                auctions[_auctionId].finalized = true;\r\n                emit AuctionFinalized(msg.sender, _auctionId);\r\n            }\r\n        }\r\n    }\r\n\r\n    function bidOnAuction(uint _auctionId) external payable {\r\n        uint256 ethAmountSent = msg.value;\r\n\r\n        // owner can't bid on their auctions\r\n        AuctionDto memory myAuction = auctions[_auctionId];\r\n        if(myAuction.owner == msg.sender) revert();\r\n\r\n        // if auction is expired\r\n        if( block.timestamp > myAuction.deadline ) revert();\r\n\r\n        uint bidsLength = auctionBids[_auctionId].length;\r\n        uint256 tempAmount = myAuction.startPrice;\r\n        Bid memory lastBid;\r\n\r\n        // there are previous bids\r\n        if( bidsLength > 0 ) {\r\n            lastBid = auctionBids[_auctionId][bidsLength - 1];\r\n            tempAmount = lastBid.amount;\r\n        }\r\n\r\n        // check if amound is greater than previous amount  \r\n        if( ethAmountSent < tempAmount ) revert(); \r\n\r\n        // refund the last bidder\r\n        if( bidsLength > 0 ) {\r\n            if(!lastBid.from.send(lastBid.amount)) {\r\n                revert();\r\n            }  \r\n        }\r\n\r\n        // insert bid \r\n        Bid memory newBid;\r\n        newBid.from = payable(msg.sender);\r\n        newBid.amount = ethAmountSent;\r\n        auctionBids[_auctionId].push(newBid);\r\n        emit BidSuccess(msg.sender, _auctionId);\r\n    }\r\n\r\n    event BidSuccess(address _from, uint _auctionId);\r\n\r\n    // AuctionCreated is fired when an auction is created\r\n    event AuctionCreated(address _owner, uint _auctionId);\r\n\r\n    // AuctionCanceled is fired when an auction is canceled\r\n    event AuctionCanceled(address _owner, uint _auctionId);\r\n\r\n    // AuctionFinalized is fired when an auction is finalized\r\n    event AuctionFinalized(address _owner, uint _auctionId);\r\n\r\n    function _setTokenURI(uint256 tokenId, string memory _tokenURI, address creator) internal virtual {\r\n        require(_exists(tokenId), \"Master: URI set of nonexistent token\");\r\n        _tokenURIs[tokenId] = _tokenURI;\r\n        _tokenCreators[tokenId] = creator;\r\n    }\r\n\r\n    function tokenURI(uint256 tokenId) public view virtual override returns (string memory) {\r\n        require(_exists(tokenId), \"Master: URI query for nonexistent token\");\r\n\r\n        string memory _tokenURI = _tokenURIs[tokenId];\r\n        return _tokenURI;\r\n    }\r\n\r\n    function tokenCreator(uint256 tokenId) public view returns(address) {\r\n        require(_exists(tokenId), \"Master: URI query for nonexistent token\");\r\n\r\n        return _tokenCreators[tokenId];\r\n    }\r\n\r\n    //mint\r\n    function registerKadasterProperty(address to, string memory tokenURI_, uint256 tokenId) public virtual {\r\n        require(hasRole(MINTER_ROLE, _msgSender()), \"Master: must have minter role to mint\");\r\n        require(!_exists(tokenId), \"Master: TokenId already existent\");\r\n\r\n        _tokenIdTracker.increment();\r\n\r\n        _safeMint(to, tokenId);\r\n        _setTokenURI(tokenId, tokenURI_, to);\r\n        tokenOwner[to].push(tokenId);\r\n    }\r\n\r\n    function totalOfMintedTokens() public view returns(string memory) {\r\n        // return uint256 is you wish to return a BigNumber\r\n        uint256 numberOfMintedTokens = _tokenIdTracker.current();\r\n        return numberOfMintedTokens.toString();\r\n    }\r\n\r\n    function pause() public virtual {\r\n        require(hasRole(PAUSER_ROLE, _msgSender()), \"ERC721PresetMinterPauserAutoId: must have pauser role to pause\");\r\n        _pause();\r\n    }\r\n\r\n    function unpause() public virtual {\r\n        require(hasRole(PAUSER_ROLE, _msgSender()), \"ERC721PresetMinterPauserAutoId: must have pauser role to unpause\");\r\n        _unpause();\r\n    }\r\n\r\n    function _beforeTokenTransfer(address from, address to, uint256 tokenId) internal virtual override(ERC721, ERC721Enumerable, ERC721Pausable) {\r\n        super._beforeTokenTransfer(from, to, tokenId);\r\n    }\r\n\r\n    function supportsInterface(bytes4 interfaceId) public view virtual override(AccessControlEnumerable, ERC721, ERC721Enumerable) returns (bool) {\r\n        return super.supportsInterface(interfaceId);\r\n    }\r\n\r\n}",
  "sourcePath": "C:/hackathon/funda-marketplace-dapp/contract/contracts/Auction.sol",
  "compiler": {
    "name": "solc",
    "version": "0.8.3+commit.8d00100c.Emscripten.clang"
  },
  "schemaVersion": "3.4.1",
  "updatedAt": "2021-06-04T07:11:04.989Z",
  "networkType": "ethereum",
  "devdoc": {
    "kind": "dev",
    "methods": {
      "approve(address,uint256)": {
        "details": "See {IERC721-approve}."
      },
      "balanceOf(address)": {
        "details": "See {IERC721-balanceOf}."
      },
      "burn(uint256)": {
        "details": "Burns `tokenId`. See {ERC721-_burn}. Requirements: - The caller must own `tokenId` or be an approved operator."
      },
      "getApproved(uint256)": {
        "details": "See {IERC721-getApproved}."
      },
      "getAuctionsCountOfOwner(address)": {
        "details": "Gets the total number of auctions owned by an address",
        "params": {
          "_owner": "address of the owner"
        },
        "returns": {
          "_0": "uint total number of auctions"
        }
      },
      "getAuctionsOf(address)": {
        "details": "Gets an array of owned auctions",
        "params": {
          "_owner": "address of the auction owner"
        }
      },
      "getBidsCount(uint256)": {
        "details": "Gets the bid counts of a given auction",
        "params": {
          "_auctionId": "uint ID of the auction"
        }
      },
      "getCurrentBid(uint256)": {
        "details": "Gets an array of owned auctions",
        "params": {
          "_auctionId": "uint of the auction owner"
        },
        "returns": {
          "_0": "amount uint256, address of last bidder"
        }
      },
      "getRoleAdmin(bytes32)": {
        "details": "Returns the admin role that controls `role`. See {grantRole} and {revokeRole}. To change a role's admin, use {_setRoleAdmin}."
      },
      "getRoleMember(bytes32,uint256)": {
        "details": "Returns one of the accounts that have `role`. `index` must be a value between 0 and {getRoleMemberCount}, non-inclusive. Role bearers are not sorted in any particular way, and their ordering may change at any point. WARNING: When using {getRoleMember} and {getRoleMemberCount}, make sure you perform all queries on the same block. See the following https://forum.openzeppelin.com/t/iterating-over-elements-on-enumerableset-in-openzeppelin-contracts/2296[forum post] for more information."
      },
      "getRoleMemberCount(bytes32)": {
        "details": "Returns the number of accounts that have `role`. Can be used together with {getRoleMember} to enumerate all bearers of a role."
      },
      "grantRole(bytes32,address)": {
        "details": "Overload {grantRole} to track enumerable memberships"
      },
      "hasRole(bytes32,address)": {
        "details": "Returns `true` if `account` has been granted `role`."
      },
      "isApprovedForAll(address,address)": {
        "details": "See {IERC721-isApprovedForAll}."
      },
      "name()": {
        "details": "See {IERC721Metadata-name}."
      },
      "ownerOf(uint256)": {
        "details": "See {IERC721-ownerOf}."
      },
      "paused()": {
        "details": "Returns true if the contract is paused, and false otherwise."
      },
      "renounceRole(bytes32,address)": {
        "details": "Overload {renounceRole} to track enumerable memberships"
      },
      "revokeRole(bytes32,address)": {
        "details": "Overload {revokeRole} to track enumerable memberships"
      },
      "safeTransferFrom(address,address,uint256)": {
        "details": "See {IERC721-safeTransferFrom}."
      },
      "safeTransferFrom(address,address,uint256,bytes)": {
        "details": "See {IERC721-safeTransferFrom}."
      },
      "setApprovalForAll(address,bool)": {
        "details": "See {IERC721-setApprovalForAll}."
      },
      "symbol()": {
        "details": "See {IERC721Metadata-symbol}."
      },
      "tokenByIndex(uint256)": {
        "details": "See {IERC721Enumerable-tokenByIndex}."
      },
      "tokenOfOwnerByIndex(address,uint256)": {
        "details": "See {IERC721Enumerable-tokenOfOwnerByIndex}."
      },
      "tokenURI(uint256)": {
        "details": "See {IERC721Metadata-tokenURI}."
      },
      "totalSupply()": {
        "details": "See {IERC721Enumerable-totalSupply}."
      },
      "transferFrom(address,address,uint256)": {
        "details": "See {IERC721-transferFrom}."
      }
    },
    "version": 1
  },
  "userdoc": {
    "kind": "user",
    "methods": {},
    "version": 1
  }
}