{
  "contractName": "Auction",
  "abi": [
    {
      "inputs": [],
      "stateMutability": "nonpayable",
      "type": "constructor"
    },
    {
      "anonymous": false,
      "inputs": [
        {
          "indexed": true,
          "internalType": "address",
          "name": "owner",
          "type": "address"
        },
        {
          "indexed": true,
          "internalType": "address",
          "name": "approved",
          "type": "address"
        },
        {
          "indexed": true,
          "internalType": "uint256",
          "name": "tokenId",
          "type": "uint256"
        }
      ],
      "name": "Approval",
      "type": "event"
    },
    {
      "anonymous": false,
      "inputs": [
        {
          "indexed": true,
          "internalType": "address",
          "name": "owner",
          "type": "address"
        },
        {
          "indexed": true,
          "internalType": "address",
          "name": "operator",
          "type": "address"
        },
        {
          "indexed": false,
          "internalType": "bool",
          "name": "approved",
          "type": "bool"
        }
      ],
      "name": "ApprovalForAll",
      "type": "event"
    },
    {
      "anonymous": false,
      "inputs": [
        {
          "indexed": false,
          "internalType": "address",
          "name": "_owner",
          "type": "address"
        },
        {
          "indexed": false,
          "internalType": "uint256",
          "name": "_auctionId",
          "type": "uint256"
        }
      ],
      "name": "AuctionCanceled",
      "type": "event"
    },
    {
      "anonymous": false,
      "inputs": [
        {
          "indexed": false,
          "internalType": "address",
          "name": "_owner",
          "type": "address"
        },
        {
          "indexed": false,
          "internalType": "uint256",
          "name": "_auctionId",
          "type": "uint256"
        }
      ],
      "name": "AuctionCreated",
      "type": "event"
    },
    {
      "anonymous": false,
      "inputs": [
        {
          "indexed": false,
          "internalType": "address",
          "name": "_owner",
          "type": "address"
        },
        {
          "indexed": false,
          "internalType": "uint256",
          "name": "_auctionId",
          "type": "uint256"
        }
      ],
      "name": "AuctionFinalized",
      "type": "event"
    },
    {
      "anonymous": false,
      "inputs": [
        {
          "indexed": false,
          "internalType": "address",
          "name": "_from",
          "type": "address"
        },
        {
          "indexed": false,
          "internalType": "uint256",
          "name": "_auctionId",
          "type": "uint256"
        }
      ],
      "name": "BidSuccess",
      "type": "event"
    },
    {
      "anonymous": false,
      "inputs": [
        {
          "indexed": false,
          "internalType": "address",
          "name": "account",
          "type": "address"
        }
      ],
      "name": "Paused",
      "type": "event"
    },
    {
      "anonymous": false,
      "inputs": [
        {
          "indexed": true,
          "internalType": "bytes32",
          "name": "role",
          "type": "bytes32"
        },
        {
          "indexed": true,
          "internalType": "bytes32",
          "name": "previousAdminRole",
          "type": "bytes32"
        },
        {
          "indexed": true,
          "internalType": "bytes32",
          "name": "newAdminRole",
          "type": "bytes32"
        }
      ],
      "name": "RoleAdminChanged",
      "type": "event"
    },
    {
      "anonymous": false,
      "inputs": [
        {
          "indexed": true,
          "internalType": "bytes32",
          "name": "role",
          "type": "bytes32"
        },
        {
          "indexed": true,
          "internalType": "address",
          "name": "account",
          "type": "address"
        },
        {
          "indexed": true,
          "internalType": "address",
          "name": "sender",
          "type": "address"
        }
      ],
      "name": "RoleGranted",
      "type": "event"
    },
    {
      "anonymous": false,
      "inputs": [
        {
          "indexed": true,
          "internalType": "bytes32",
          "name": "role",
          "type": "bytes32"
        },
        {
          "indexed": true,
          "internalType": "address",
          "name": "account",
          "type": "address"
        },
        {
          "indexed": true,
          "internalType": "address",
          "name": "sender",
          "type": "address"
        }
      ],
      "name": "RoleRevoked",
      "type": "event"
    },
    {
      "anonymous": false,
      "inputs": [
        {
          "indexed": true,
          "internalType": "address",
          "name": "from",
          "type": "address"
        },
        {
          "indexed": true,
          "internalType": "address",
          "name": "to",
          "type": "address"
        },
        {
          "indexed": true,
          "internalType": "uint256",
          "name": "tokenId",
          "type": "uint256"
        }
      ],
      "name": "Transfer",
      "type": "event"
    },
    {
      "anonymous": false,
      "inputs": [
        {
          "indexed": false,
          "internalType": "address",
          "name": "account",
          "type": "address"
        }
      ],
      "name": "Unpaused",
      "type": "event"
    },
    {
      "inputs": [],
      "name": "DEED_ROLE",
      "outputs": [
        {
          "internalType": "bytes32",
          "name": "",
          "type": "bytes32"
        }
      ],
      "stateMutability": "view",
      "type": "function",
      "constant": true
    },
    {
      "inputs": [],
      "name": "DEFAULT_ADMIN_ROLE",
      "outputs": [
        {
          "internalType": "bytes32",
          "name": "",
          "type": "bytes32"
        }
      ],
      "stateMutability": "view",
      "type": "function",
      "constant": true
    },
    {
      "inputs": [],
      "name": "MINTER_ROLE",
      "outputs": [
        {
          "internalType": "bytes32",
          "name": "",
          "type": "bytes32"
        }
      ],
      "stateMutability": "view",
      "type": "function",
      "constant": true
    },
    {
      "inputs": [],
      "name": "PAUSER_ROLE",
      "outputs": [
        {
          "internalType": "bytes32",
          "name": "",
          "type": "bytes32"
        }
      ],
      "stateMutability": "view",
      "type": "function",
      "constant": true
    },
    {
      "inputs": [
        {
          "internalType": "address",
          "name": "to",
          "type": "address"
        },
        {
          "internalType": "uint256",
          "name": "tokenId",
          "type": "uint256"
        }
      ],
      "name": "approve",
      "outputs": [],
      "stateMutability": "nonpayable",
      "type": "function"
    },
    {
      "inputs": [
        {
          "internalType": "uint256",
          "name": "",
          "type": "uint256"
        },
        {
          "internalType": "uint256",
          "name": "",
          "type": "uint256"
        }
      ],
      "name": "auctionBids",
      "outputs": [
        {
          "internalType": "address payable",
          "name": "from",
          "type": "address"
        },
        {
          "internalType": "uint256",
          "name": "amount",
          "type": "uint256"
        }
      ],
      "stateMutability": "view",
      "type": "function",
      "constant": true
    },
    {
      "inputs": [
        {
          "internalType": "address",
          "name": "",
          "type": "address"
        },
        {
          "internalType": "uint256",
          "name": "",
          "type": "uint256"
        }
      ],
      "name": "auctionOwner",
      "outputs": [
        {
          "internalType": "uint256",
          "name": "",
          "type": "uint256"
        }
      ],
      "stateMutability": "view",
      "type": "function",
      "constant": true
    },
    {
      "inputs": [
        {
          "internalType": "uint256",
          "name": "",
          "type": "uint256"
        }
      ],
      "name": "auctions",
      "outputs": [
        {
          "internalType": "uint256",
          "name": "deadline",
          "type": "uint256"
        },
        {
          "internalType": "uint256",
          "name": "startPrice",
          "type": "uint256"
        },
        {
          "internalType": "string",
          "name": "metadata",
          "type": "string"
        },
        {
          "internalType": "uint256",
          "name": "tokenId",
          "type": "uint256"
        },
        {
          "internalType": "address payable",
          "name": "owner",
          "type": "address"
        },
        {
          "internalType": "bool",
          "name": "active",
          "type": "bool"
        },
        {
          "internalType": "bool",
          "name": "finalized",
          "type": "bool"
        }
      ],
      "stateMutability": "view",
      "type": "function",
      "constant": true
    },
    {
      "inputs": [
        {
          "internalType": "address",
          "name": "owner",
          "type": "address"
        }
      ],
      "name": "balanceOf",
      "outputs": [
        {
          "internalType": "uint256",
          "name": "",
          "type": "uint256"
        }
      ],
      "stateMutability": "view",
      "type": "function",
      "constant": true
    },
    {
      "inputs": [
        {
          "internalType": "uint256",
          "name": "tokenId",
          "type": "uint256"
        }
      ],
      "name": "burn",
      "outputs": [],
      "stateMutability": "nonpayable",
      "type": "function"
    },
    {
      "inputs": [
        {
          "internalType": "uint256",
          "name": "tokenId",
          "type": "uint256"
        }
      ],
      "name": "getApproved",
      "outputs": [
        {
          "internalType": "address",
          "name": "",
          "type": "address"
        }
      ],
      "stateMutability": "view",
      "type": "function",
      "constant": true
    },
    {
      "inputs": [
        {
          "internalType": "bytes32",
          "name": "role",
          "type": "bytes32"
        }
      ],
      "name": "getRoleAdmin",
      "outputs": [
        {
          "internalType": "bytes32",
          "name": "",
          "type": "bytes32"
        }
      ],
      "stateMutability": "view",
      "type": "function",
      "constant": true
    },
    {
      "inputs": [
        {
          "internalType": "bytes32",
          "name": "role",
          "type": "bytes32"
        },
        {
          "internalType": "uint256",
          "name": "index",
          "type": "uint256"
        }
      ],
      "name": "getRoleMember",
      "outputs": [
        {
          "internalType": "address",
          "name": "",
          "type": "address"
        }
      ],
      "stateMutability": "view",
      "type": "function",
      "constant": true
    },
    {
      "inputs": [
        {
          "internalType": "bytes32",
          "name": "role",
          "type": "bytes32"
        }
      ],
      "name": "getRoleMemberCount",
      "outputs": [
        {
          "internalType": "uint256",
          "name": "",
          "type": "uint256"
        }
      ],
      "stateMutability": "view",
      "type": "function",
      "constant": true
    },
    {
      "inputs": [
        {
          "internalType": "bytes32",
          "name": "role",
          "type": "bytes32"
        },
        {
          "internalType": "address",
          "name": "account",
          "type": "address"
        }
      ],
      "name": "grantRole",
      "outputs": [],
      "stateMutability": "nonpayable",
      "type": "function"
    },
    {
      "inputs": [
        {
          "internalType": "bytes32",
          "name": "role",
          "type": "bytes32"
        },
        {
          "internalType": "address",
          "name": "account",
          "type": "address"
        }
      ],
      "name": "hasRole",
      "outputs": [
        {
          "internalType": "bool",
          "name": "",
          "type": "bool"
        }
      ],
      "stateMutability": "view",
      "type": "function",
      "constant": true
    },
    {
      "inputs": [
        {
          "internalType": "address",
          "name": "owner",
          "type": "address"
        },
        {
          "internalType": "address",
          "name": "operator",
          "type": "address"
        }
      ],
      "name": "isApprovedForAll",
      "outputs": [
        {
          "internalType": "bool",
          "name": "",
          "type": "bool"
        }
      ],
      "stateMutability": "view",
      "type": "function",
      "constant": true
    },
    {
      "inputs": [],
      "name": "name",
      "outputs": [
        {
          "internalType": "string",
          "name": "",
          "type": "string"
        }
      ],
      "stateMutability": "view",
      "type": "function",
      "constant": true
    },
    {
      "inputs": [
        {
          "internalType": "uint256",
          "name": "tokenId",
          "type": "uint256"
        }
      ],
      "name": "ownerOf",
      "outputs": [
        {
          "internalType": "address",
          "name": "",
          "type": "address"
        }
      ],
      "stateMutability": "view",
      "type": "function",
      "constant": true
    },
    {
      "inputs": [],
      "name": "paused",
      "outputs": [
        {
          "internalType": "bool",
          "name": "",
          "type": "bool"
        }
      ],
      "stateMutability": "view",
      "type": "function",
      "constant": true
    },
    {
      "inputs": [
        {
          "internalType": "bytes32",
          "name": "role",
          "type": "bytes32"
        },
        {
          "internalType": "address",
          "name": "account",
          "type": "address"
        }
      ],
      "name": "renounceRole",
      "outputs": [],
      "stateMutability": "nonpayable",
      "type": "function"
    },
    {
      "inputs": [
        {
          "internalType": "bytes32",
          "name": "role",
          "type": "bytes32"
        },
        {
          "internalType": "address",
          "name": "account",
          "type": "address"
        }
      ],
      "name": "revokeRole",
      "outputs": [],
      "stateMutability": "nonpayable",
      "type": "function"
    },
    {
      "inputs": [
        {
          "internalType": "address",
          "name": "from",
          "type": "address"
        },
        {
          "internalType": "address",
          "name": "to",
          "type": "address"
        },
        {
          "internalType": "uint256",
          "name": "tokenId",
          "type": "uint256"
        }
      ],
      "name": "safeTransferFrom",
      "outputs": [],
      "stateMutability": "nonpayable",
      "type": "function"
    },
    {
      "inputs": [
        {
          "internalType": "address",
          "name": "from",
          "type": "address"
        },
        {
          "internalType": "address",
          "name": "to",
          "type": "address"
        },
        {
          "internalType": "uint256",
          "name": "tokenId",
          "type": "uint256"
        },
        {
          "internalType": "bytes",
          "name": "_data",
          "type": "bytes"
        }
      ],
      "name": "safeTransferFrom",
      "outputs": [],
      "stateMutability": "nonpayable",
      "type": "function"
    },
    {
      "inputs": [
        {
          "internalType": "address",
          "name": "operator",
          "type": "address"
        },
        {
          "internalType": "bool",
          "name": "approved",
          "type": "bool"
        }
      ],
      "name": "setApprovalForAll",
      "outputs": [],
      "stateMutability": "nonpayable",
      "type": "function"
    },
    {
      "inputs": [],
      "name": "symbol",
      "outputs": [
        {
          "internalType": "string",
          "name": "",
          "type": "string"
        }
      ],
      "stateMutability": "view",
      "type": "function",
      "constant": true
    },
    {
      "inputs": [
        {
          "internalType": "uint256",
          "name": "index",
          "type": "uint256"
        }
      ],
      "name": "tokenByIndex",
      "outputs": [
        {
          "internalType": "uint256",
          "name": "",
          "type": "uint256"
        }
      ],
      "stateMutability": "view",
      "type": "function",
      "constant": true
    },
    {
      "inputs": [
        {
          "internalType": "address",
          "name": "owner",
          "type": "address"
        },
        {
          "internalType": "uint256",
          "name": "index",
          "type": "uint256"
        }
      ],
      "name": "tokenOfOwnerByIndex",
      "outputs": [
        {
          "internalType": "uint256",
          "name": "",
          "type": "uint256"
        }
      ],
      "stateMutability": "view",
      "type": "function",
      "constant": true
    },
    {
      "inputs": [
        {
          "internalType": "address",
          "name": "",
          "type": "address"
        },
        {
          "internalType": "uint256",
          "name": "",
          "type": "uint256"
        }
      ],
      "name": "tokenOwner",
      "outputs": [
        {
          "internalType": "uint256",
          "name": "",
          "type": "uint256"
        }
      ],
      "stateMutability": "view",
      "type": "function",
      "constant": true
    },
    {
      "inputs": [],
      "name": "totalSupply",
      "outputs": [
        {
          "internalType": "uint256",
          "name": "",
          "type": "uint256"
        }
      ],
      "stateMutability": "view",
      "type": "function",
      "constant": true
    },
    {
      "inputs": [
        {
          "internalType": "address",
          "name": "from",
          "type": "address"
        },
        {
          "internalType": "address",
          "name": "to",
          "type": "address"
        },
        {
          "internalType": "uint256",
          "name": "tokenId",
          "type": "uint256"
        }
      ],
      "name": "transferFrom",
      "outputs": [],
      "stateMutability": "nonpayable",
      "type": "function"
    },
    {
      "inputs": [
        {
          "internalType": "address",
          "name": "newOwner",
          "type": "address"
        }
      ],
      "name": "addOwnerOfContract",
      "outputs": [],
      "stateMutability": "nonpayable",
      "type": "function"
    },
    {
      "inputs": [],
      "name": "testContractOwner",
      "outputs": [
        {
          "internalType": "string",
          "name": "",
          "type": "string"
        }
      ],
      "stateMutability": "view",
      "type": "function",
      "constant": true
    },
    {
      "inputs": [
        {
          "internalType": "address",
          "name": "_owner",
          "type": "address"
        }
      ],
      "name": "getTokensOf",
      "outputs": [
        {
          "internalType": "uint256[]",
          "name": "",
          "type": "uint256[]"
        }
      ],
      "stateMutability": "view",
      "type": "function",
      "constant": true
    },
    {
      "inputs": [],
      "name": "getAuctionsCount",
      "outputs": [
        {
          "internalType": "uint256",
          "name": "",
          "type": "uint256"
        }
      ],
      "stateMutability": "view",
      "type": "function",
      "constant": true
    },
    {
      "inputs": [
        {
          "internalType": "uint256",
          "name": "_auctionId",
          "type": "uint256"
        }
      ],
      "name": "getBidsCount",
      "outputs": [
        {
          "internalType": "uint256",
          "name": "",
          "type": "uint256"
        }
      ],
      "stateMutability": "view",
      "type": "function",
      "constant": true
    },
    {
      "inputs": [
        {
          "internalType": "address",
          "name": "_owner",
          "type": "address"
        }
      ],
      "name": "getAuctionsOf",
      "outputs": [
        {
          "internalType": "uint256[]",
          "name": "",
          "type": "uint256[]"
        }
      ],
      "stateMutability": "view",
      "type": "function",
      "constant": true
    },
    {
      "inputs": [
        {
          "internalType": "uint256",
          "name": "_auctionId",
          "type": "uint256"
        }
      ],
      "name": "getCurrentBid",
      "outputs": [
        {
          "internalType": "uint256",
          "name": "",
          "type": "uint256"
        },
        {
          "internalType": "address",
          "name": "",
          "type": "address"
        }
      ],
      "stateMutability": "view",
      "type": "function",
      "constant": true
    },
    {
      "inputs": [
        {
          "internalType": "address",
          "name": "_owner",
          "type": "address"
        }
      ],
      "name": "getAuctionsCountOfOwner",
      "outputs": [
        {
          "internalType": "uint256",
          "name": "",
          "type": "uint256"
        }
      ],
      "stateMutability": "view",
      "type": "function",
      "constant": true
    },
    {
      "inputs": [
        {
          "internalType": "uint256",
          "name": "_auctionId",
          "type": "uint256"
        }
      ],
      "name": "getAuctionById",
      "outputs": [
        {
          "internalType": "uint256",
          "name": "deadline",
          "type": "uint256"
        },
        {
          "internalType": "uint256",
          "name": "startPrice",
          "type": "uint256"
        },
        {
          "internalType": "string",
          "name": "metadata",
          "type": "string"
        },
        {
          "internalType": "uint256",
          "name": "tokenId",
          "type": "uint256"
        },
        {
          "internalType": "address",
          "name": "owner",
          "type": "address"
        },
        {
          "internalType": "bool",
          "name": "active",
          "type": "bool"
        },
        {
          "internalType": "bool",
          "name": "finalized",
          "type": "bool"
        }
      ],
      "stateMutability": "view",
      "type": "function",
      "constant": true
    },
    {
      "inputs": [
        {
          "internalType": "uint256",
          "name": "_propertyId",
          "type": "uint256"
        },
        {
          "internalType": "uint256",
          "name": "_startPrice",
          "type": "uint256"
        },
        {
          "internalType": "uint256",
          "name": "_deadline",
          "type": "uint256"
        }
      ],
      "name": "createAuction",
      "outputs": [
        {
          "internalType": "bool",
          "name": "",
          "type": "bool"
        }
      ],
      "stateMutability": "nonpayable",
      "type": "function"
    },
    {
      "inputs": [
        {
          "internalType": "uint256",
          "name": "_auctionId",
          "type": "uint256"
        }
      ],
      "name": "cancelAuction",
      "outputs": [],
      "stateMutability": "nonpayable",
      "type": "function"
    },
    {
      "inputs": [
        {
          "internalType": "uint256",
          "name": "_auctionId",
          "type": "uint256"
        }
      ],
      "name": "finalizeAuction",
      "outputs": [],
      "stateMutability": "nonpayable",
      "type": "function"
    },
    {
      "inputs": [
        {
          "internalType": "uint256",
          "name": "_auctionId",
          "type": "uint256"
        }
      ],
      "name": "bidOnAuction",
      "outputs": [],
      "stateMutability": "payable",
      "type": "function",
      "payable": true
    },
    {
      "inputs": [
        {
          "internalType": "uint256",
          "name": "tokenId",
          "type": "uint256"
        }
      ],
      "name": "tokenURI",
      "outputs": [
        {
          "internalType": "string",
          "name": "",
          "type": "string"
        }
      ],
      "stateMutability": "view",
      "type": "function",
      "constant": true
    },
    {
      "inputs": [
        {
          "internalType": "uint256",
          "name": "tokenId",
          "type": "uint256"
        }
      ],
      "name": "tokenCreator",
      "outputs": [
        {
          "internalType": "address",
          "name": "",
          "type": "address"
        }
      ],
      "stateMutability": "view",
      "type": "function",
      "constant": true
    },
    {
      "inputs": [
        {
          "internalType": "address",
          "name": "to",
          "type": "address"
        },
        {
          "internalType": "string",
          "name": "tokenURI_",
          "type": "string"
        },
        {
          "internalType": "uint256",
          "name": "tokenId",
          "type": "uint256"
        }
      ],
      "name": "registerKadasterProperty",
      "outputs": [],
      "stateMutability": "nonpayable",
      "type": "function"
    },
    {
      "inputs": [],
      "name": "totalOfMintedTokens",
      "outputs": [
        {
          "internalType": "string",
          "name": "",
          "type": "string"
        }
      ],
      "stateMutability": "view",
      "type": "function",
      "constant": true
    },
    {
      "inputs": [],
      "name": "pause",
      "outputs": [],
      "stateMutability": "nonpayable",
      "type": "function"
    },
    {
      "inputs": [],
      "name": "unpause",
      "outputs": [],
      "stateMutability": "nonpayable",
      "type": "function"
    },
    {
      "inputs": [
        {
          "internalType": "bytes4",
          "name": "interfaceId",
          "type": "bytes4"
        }
      ],
      "name": "supportsInterface",
      "outputs": [
        {
          "internalType": "bool",
          "name": "",
          "type": "bool"
        }
      ],
      "stateMutability": "view",
      "type": "function",
      "constant": true
    }
  ],
  "bytecode": "0x60806040523480156200001157600080fd5b506040805180820182526009815268333ab73230a1b7b4b760b91b60208083019182528351808501909452600584526466756e646160d81b908401528151919291620000609160029162000280565b5080516200007690600390602084019062000280565b5050600c805460ff1916905550620000916000335b6200011b565b620000bd7f9f2df0fed2c77648de5860a4cc508cd0818c85b8b8a1ab4ceeef8d981c8956a6336200008b565b620000e97f65d7a28e3265b37a6474929f336521b332c1681b933f6cb9f3376673440d862a336200008b565b620001157fc1a91faf0b957ac4b0051135514dc51df8ef6693c497eeacd753596aa67c1d0a336200008b565b62000363565b6200013282826200015e60201b6200242a1760201c565b600082815260016020908152604090912062000159918390620024386200016e821b17901c565b505050565b6200016a82826200018e565b5050565b600062000185836001600160a01b0384166200022e565b90505b92915050565b6000828152602081815260408083206001600160a01b038516845290915290205460ff166200016a576000828152602081815260408083206001600160a01b03851684529091529020805460ff19166001179055620001ea3390565b6001600160a01b0316816001600160a01b0316837f2f8788117e7eff1d82e926ec794901d17c78024a50270940304540a733656f0d60405160405180910390a45050565b6000818152600183016020526040812054620002775750815460018181018455600084815260208082209093018490558454848252828601909352604090209190915562000188565b50600062000188565b8280546200028e9062000326565b90600052602060002090601f016020900481019282620002b25760008555620002fd565b82601f10620002cd57805160ff1916838001178555620002fd565b82800160010185558215620002fd579182015b82811115620002fd578251825591602001919060010190620002e0565b506200030b9291506200030f565b5090565b5b808211156200030b576000815560010162000310565b600181811c908216806200033b57607f821691505b602082108114156200035d57634e487b7160e01b600052602260045260246000fd5b50919050565b613f8980620003736000396000f3fe6080604052600436106102e45760003560e01c806370a0823111610190578063c87b56dd116100dc578063da4e364f11610095578063e7ec78e31161006f578063e7ec78e314610947578063e80838631461095c578063e93d78991461097c578063e985e9c5146109b0576102e4565b8063da4e364f146108d3578063e45c187914610910578063e63ab1e914610925576102e4565b8063c87b56dd146107e9578063ca15c87314610809578063cda4beef14610829578063d539139314610849578063d547741f1461087d578063d56aa5581461089d576102e4565b806398c2e34f11610149578063b1b61bfa11610123578063b1b61bfa14610769578063b88d4fde14610789578063bd9dfe27146107a9578063c8756cda146107c9576102e4565b806398c2e34f14610714578063a217fddf14610734578063a22cb46514610749576102e4565b806370a082311461066a5780638456cb591461068a5780639010d07c1461069f57806391d14854146106bf57806395d89b41146106df57806396b5a755146106f4576102e4565b80632f745c591161024f57806342966c6811610208578063571a26a0116101e2578063571a26a0146105d35780635c975abb146105f35780635f93de491461060b5780636352211e1461064a576102e4565b806342966c68146105735780634589300b146105935780634f6ccce7146105b3576102e4565b80632f745c59146104b157806336568abe146104d15780633f4ba83a146104f15780634008f9c01461050657806340c1a0641461053357806342842e0e14610553576102e4565b806318111ada116102a157806318111ada146103dc57806318160ddd1461040f57806323b872dd1461042e578063248a9ca31461044e57806326b7aeea1461047e5780632f2ff15d14610491576102e4565b806301ffc9a7146102e957806306fdde031461031e578063081812fc1461034057806308b83ae414610378578063095ea7b31461038d5780630986b210146103af575b600080fd5b3480156102f557600080fd5b50610309610304366004613afa565b6109f9565b60405190151581526020015b60405180910390f35b34801561032a57600080fd5b50610333610a0c565b6040516103159190613c7f565b34801561034c57600080fd5b5061036061035b366004613a9f565b610a9e565b6040516001600160a01b039091168152602001610315565b34801561038457600080fd5b50610333610b2b565b34801561039957600080fd5b506103ad6103a8366004613a76565b610bbc565b005b3480156103bb57600080fd5b506103cf6103ca3660046138d4565b610cd2565b6040516103159190613c3b565b3480156103e857600080fd5b506103fc6103f7366004613a9f565b610d3e565b6040516103159796959493929190613d7c565b34801561041b57600080fd5b50600a545b604051908152602001610315565b34801561043a57600080fd5b506103ad610449366004613920565b610ead565b34801561045a57600080fd5b50610420610469366004613a9f565b60009081526020819052604090206001015490565b6103ad61048c366004613a9f565b610edf565b34801561049d57600080fd5b506103ad6104ac366004613ab7565b6111ac565b3480156104bd57600080fd5b506104206104cc366004613a76565b6111ce565b3480156104dd57600080fd5b506103ad6104ec366004613ab7565b611267565b3480156104fd57600080fd5b506103ad611289565b34801561051257600080fd5b50610420610521366004613a9f565b60009081526011602052604090205490565b34801561053f57600080fd5b5061036061054e366004613a9f565b61131f565b34801561055f57600080fd5b506103ad61056e366004613920565b611362565b34801561057f57600080fd5b506103ad61058e366004613a9f565b61137d565b34801561059f57600080fd5b506103ad6105ae366004613a0e565b6113f7565b3480156105bf57600080fd5b506104206105ce366004613a9f565b611524565b3480156105df57600080fd5b506103fc6105ee366004613a9f565b6115c5565b3480156105ff57600080fd5b50600c5460ff16610309565b34801561061757600080fd5b5061062b610626366004613ad9565b6116b3565b604080516001600160a01b039093168352602083019190915201610315565b34801561065657600080fd5b50610360610665366004613a9f565b6116f9565b34801561067657600080fd5b506104206106853660046138d4565b611770565b34801561069657600080fd5b506103ad6117f7565b3480156106ab57600080fd5b506103606106ba366004613ad9565b611889565b3480156106cb57600080fd5b506103096106da366004613ab7565b6118a8565b3480156106eb57600080fd5b506103336118d1565b34801561070057600080fd5b506103ad61070f366004613a9f565b6118e0565b34801561072057600080fd5b506103ad61072f3660046138d4565b611bb4565b34801561074057600080fd5b50610420600081565b34801561075557600080fd5b506103ad6107643660046139d4565b611c58565b34801561077557600080fd5b506103cf6107843660046138d4565b611d2a565b34801561079557600080fd5b506103ad6107a436600461395b565b611d94565b3480156107b557600080fd5b506104206107c4366004613a76565b611dc6565b3480156107d557600080fd5b506104206107e4366004613a76565b611df7565b3480156107f557600080fd5b50610333610804366004613a9f565b611e13565b34801561081557600080fd5b50610420610824366004613a9f565b611ecf565b34801561083557600080fd5b50610309610844366004613b32565b611ee6565b34801561085557600080fd5b506104207f9f2df0fed2c77648de5860a4cc508cd0818c85b8b8a1ab4ceeef8d981c8956a681565b34801561088957600080fd5b506103ad610898366004613ab7565b612091565b3480156108a957600080fd5b506104206108b83660046138d4565b6001600160a01b031660009081526012602052604090205490565b3480156108df57600080fd5b506108f36108ee366004613a9f565b61209b565b604080519283526001600160a01b03909116602083015201610315565b34801561091c57600080fd5b50601054610420565b34801561093157600080fd5b50610420600080516020613f3483398151915281565b34801561095357600080fd5b50610333612139565b34801561096857600080fd5b506103ad610977366004613a9f565b612157565b34801561098857600080fd5b506104207fc1a91faf0b957ac4b0051135514dc51df8ef6693c497eeacd753596aa67c1d0a81565b3480156109bc57600080fd5b506103096109cb3660046138ee565b6001600160a01b03918216600090815260076020908152604080832093909416825291909152205460ff1690565b6000610a048261244d565b90505b919050565b606060028054610a1b90613e71565b80601f0160208091040260200160405190810160405280929190818152602001828054610a4790613e71565b8015610a945780601f10610a6957610100808354040283529160200191610a94565b820191906000526020600020905b815481529060010190602001808311610a7757829003601f168201915b5050505050905090565b6000610aa982612472565b610b0f5760405162461bcd60e51b815260206004820152602c60248201527f4552433732313a20617070726f76656420717565727920666f72206e6f6e657860448201526b34b9ba32b73a103a37b5b2b760a11b60648201526084015b60405180910390fd5b506000908152600660205260409020546001600160a01b031690565b6060610b386000336106da565b610b845760405162461bcd60e51b815260206004820152601d60248201527f4d61737465723a206d75737420686176652061646d696e20726f6c65210000006044820152606401610b06565b5060408051808201909152601781527f596f752061726520636f6e7472616374206f776e657221000000000000000000602082015290565b6000610bc7826116f9565b9050806001600160a01b0316836001600160a01b03161415610c355760405162461bcd60e51b815260206004820152602160248201527f4552433732313a20617070726f76616c20746f2063757272656e74206f776e656044820152603960f91b6064820152608401610b06565b336001600160a01b0382161480610c515750610c5181336109cb565b610cc35760405162461bcd60e51b815260206004820152603860248201527f4552433732313a20617070726f76652063616c6c6572206973206e6f74206f7760448201527f6e6572206e6f7220617070726f76656420666f7220616c6c00000000000000006064820152608401610b06565b610ccd838361248f565b505050565b6001600160a01b0381166000908152601360209081526040808320805482518185028101850190935280835260609493830182828015610d3157602002820191906000526020600020905b815481526020019060010190808311610d1d575b5093979650505050505050565b6000806060600080600080600060108981548110610d6c57634e487b7160e01b600052603260045260246000fd5b90600052602060002090600502016040518060e00160405290816000820154815260200160018201548152602001600282018054610da990613e71565b80601f0160208091040260200160405190810160405280929190818152602001828054610dd590613e71565b8015610e225780601f10610df757610100808354040283529160200191610e22565b820191906000526020600020905b815481529060010190602001808311610e0557829003601f168201915b505050918352505060038201546020808301919091526004909201546001600160a01b03811660408084019190915260ff600160a01b830481161515606080860191909152600160a81b90930416151560809384015284519385015190850151918501519285015160a086015160c090960151949f919e50919c50919a509850919650945092505050565b610eb8335b826124fd565b610ed45760405162461bcd60e51b8152600401610b0690613ce4565b610ccd8383836125e7565b6000349050600060108381548110610f0757634e487b7160e01b600052603260045260246000fd5b90600052602060002090600502016040518060e00160405290816000820154815260200160018201548152602001600282018054610f4490613e71565b80601f0160208091040260200160405190810160405280929190818152602001828054610f7090613e71565b8015610fbd5780601f10610f9257610100808354040283529160200191610fbd565b820191906000526020600020905b815481529060010190602001808311610fa057829003601f168201915b5050509183525050600382015460208201526004909101546001600160a01b03808216604084015260ff600160a01b8304811615156060850152600160a81b9092049091161515608092830152908201519192501633141561101e57600080fd5b805142111561102c57600080fd5b6000838152601160209081526040808320548483015182518084019093528483529282019390935282156110c9576000868152601160205260409020611073600185613e17565b8154811061109157634e487b7160e01b600052603260045260246000fd5b60009182526020918290206040805180820190915260029092020180546001600160a01b031682526001015491810182905290925090505b818510156110d657600080fd5b821561111157805160208201516040516001600160a01b039092169181156108fc0291906000818181858888f1935050505061111157600080fd5b60408051808201825233808252602080830189815260008b81526011835285812080546001808201835591835291849020865160029093020180546001600160a01b0319166001600160a01b03909316929092178255915191015583519182528101899052825191927f5762e6a7d331cd17a1761e94de3ea3b85e90ee6cdd9d1204e361cc650689d46392918290030190a150505050505050565b6111b68282612792565b6000828152600160205260409020610ccd9082612438565b60006111d983611770565b821061123b5760405162461bcd60e51b815260206004820152602b60248201527f455243373231456e756d657261626c653a206f776e657220696e646578206f7560448201526a74206f6620626f756e647360a81b6064820152608401610b06565b506001600160a01b03821660009081526008602090815260408083208484529091529020545b92915050565b61127182826127b9565b6000828152600160205260409020610ccd9082612833565b6112a1600080516020613f34833981519152336106da565b611315576040805162461bcd60e51b81526020600482015260248101919091527f4552433732315072657365744d696e7465725061757365724175746f49643a2060448201527f6d75737420686176652070617573657220726f6c6520746f20756e70617573656064820152608401610b06565b61131d612848565b565b600061132a82612472565b6113465760405162461bcd60e51b8152600401610b0690613d35565b506000908152600f60205260409020546001600160a01b031690565b610ccd83838360405180602001604052806000815250611d94565b61138633610eb2565b6113eb5760405162461bcd60e51b815260206004820152603060248201527f4552433732314275726e61626c653a2063616c6c6572206973206e6f74206f7760448201526f1b995c881b9bdc88185c1c1c9bdd995960821b6064820152608401610b06565b6113f4816128db565b50565b6114217f9f2df0fed2c77648de5860a4cc508cd0818c85b8b8a1ab4ceeef8d981c8956a6336106da565b61147b5760405162461bcd60e51b815260206004820152602560248201527f4d61737465723a206d7573742068617665206d696e74657220726f6c6520746f604482015264081b5a5b9d60da1b6064820152608401610b06565b61148481612472565b156114d15760405162461bcd60e51b815260206004820181905260248201527f4d61737465723a20546f6b656e496420616c7265616479206578697374656e746044820152606401610b06565b6114df600d80546001019055565b6114e98382612982565b6114f481838561299c565b6001600160a01b039092166000908152601360209081526040822080546001810182559083529120019190915550565b600061152f600a5490565b82106115925760405162461bcd60e51b815260206004820152602c60248201527f455243373231456e756d657261626c653a20676c6f62616c20696e646578206f60448201526b7574206f6620626f756e647360a01b6064820152608401610b06565b600a82815481106115b357634e487b7160e01b600052603260045260246000fd5b90600052602060002001549050919050565b601081815481106115d557600080fd5b906000526020600020906005020160009150905080600001549080600101549080600201805461160490613e71565b80601f016020809104026020016040519081016040528092919081815260200182805461163090613e71565b801561167d5780601f106116525761010080835404028352916020019161167d565b820191906000526020600020905b81548152906001019060200180831161166057829003601f168201915b50505060038401546004909401549293926001600160a01b038116925060ff600160a01b820481169250600160a81b9091041687565b601160205281600052604060002081815481106116cf57600080fd5b6000918252602090912060029091020180546001909101546001600160a01b039091169250905082565b6000818152600460205260408120546001600160a01b031680610a045760405162461bcd60e51b815260206004820152602960248201527f4552433732313a206f776e657220717565727920666f72206e6f6e657869737460448201526832b73a103a37b5b2b760b91b6064820152608401610b06565b60006001600160a01b0382166117db5760405162461bcd60e51b815260206004820152602a60248201527f4552433732313a2062616c616e636520717565727920666f7220746865207a65604482015269726f206164647265737360b01b6064820152608401610b06565b506001600160a01b031660009081526005602052604090205490565b61180f600080516020613f34833981519152336106da565b6118815760405162461bcd60e51b815260206004820152603e60248201527f4552433732315072657365744d696e7465725061757365724175746f49643a2060448201527f6d75737420686176652070617573657220726f6c6520746f20706175736500006064820152608401610b06565b61131d612a4d565b60008281526001602052604081206118a19083612ac8565b9392505050565b6000918252602082815260408084206001600160a01b0393909316845291905290205460ff1690565b606060038054610a1b90613e71565b80336001600160a01b03166010828154811061190c57634e487b7160e01b600052603260045260246000fd5b60009182526020909120600460059092020101546001600160a01b03161461193357600080fd5b60006010838154811061195657634e487b7160e01b600052603260045260246000fd5b90600052602060002090600502016040518060e0016040529081600082015481526020016001820154815260200160028201805461199390613e71565b80601f01602080910402602001604051908101604052809291908181526020018280546119bf90613e71565b8015611a0c5780601f106119e157610100808354040283529160200191611a0c565b820191906000526020600020905b8154815290600101906020018083116119ef57829003601f168201915b505050918352505060038201546020808301919091526004909201546001600160a01b03811660408084019190915260ff600160a01b8304811615156060850152600160a81b9092049091161515608090920191909152600086815260119092529020549091508015611b0a576000848152601160205260408120611a92600184613e17565b81548110611ab057634e487b7160e01b600052603260045260246000fd5b60009182526020808320604080518082018252600290940290910180546001600160a01b031680855260019091015492840183905290519294509281156108fc029290818181858888f19350505050611b0857600080fd5b505b611b1d3083608001518460600151612ad4565b15611bae57600060108581548110611b4557634e487b7160e01b600052603260045260246000fd5b60009182526020918290206004600590920201018054921515600160a01b0260ff60a01b1990931692909217909155604080513381529182018690527f39e6c898ce035bbacd9ba4f9753534f8c9f976e0ff70be83cfe887f235afa1d391015b60405180910390a15b50505050565b611bbf6000336106da565b611c0b5760405162461bcd60e51b815260206004820152601d60248201527f4d61737465723a206d75737420686176652061646d696e20726f6c65210000006044820152606401610b06565b611c16600082612af5565b611c407f9f2df0fed2c77648de5860a4cc508cd0818c85b8b8a1ab4ceeef8d981c8956a682612af5565b6113f4600080516020613f3483398151915282612af5565b6001600160a01b038216331415611cb15760405162461bcd60e51b815260206004820152601960248201527f4552433732313a20617070726f766520746f2063616c6c6572000000000000006044820152606401610b06565b3360008181526007602090815260408083206001600160a01b0387168085529252909120805460ff1916841515179055906001600160a01b03167f17307eab39ab6107e8899845ad3d59bd9653f200f220920489ca2b5937696c3183604051611d1e911515815260200190565b60405180910390a35050565b6001600160a01b0381166000908152601260209081526040808320805482518185028101850190935280835260609493830182828015610d315760200282019190600052602060002090815481526020019060010190808311610d1d575093979650505050505050565b611d9e33836124fd565b611dba5760405162461bcd60e51b8152600401610b0690613ce4565b611bae84848484612aff565b60136020528160005260406000208181548110611de257600080fd5b90600052602060002001600091509150505481565b60126020528160005260406000208181548110611de257600080fd5b6060611e1e82612472565b611e3a5760405162461bcd60e51b8152600401610b0690613d35565b6000828152600e602052604081208054611e5390613e71565b80601f0160208091040260200160405190810160405280929190818152602001828054611e7f90613e71565b8015610d315780601f10611ea157610100808354040283529160200191610d31565b820191906000526020600020905b815481529060010190602001808311611eaf575093979650505050505050565b6000818152600160205260408120610a0490612b32565b600080611ef285611e13565b601080546040805160e081018252600060c0820181905288825260208083018b8152938301878152606084018d9052336080850152600160a0850181905286018755959091528151600585027f1b6847dc741a1b0cd08d278845f9d819d87b734759afb55fe2de5cb82a9ae672810191825593517f1b6847dc741a1b0cd08d278845f9d819d87b734759afb55fe2de5cb82a9ae673850155945180519697509395919485949093611fcc937f1b6847dc741a1b0cd08d278845f9d819d87b734759afb55fe2de5cb82a9ae6749091019291909101906137ae565b506060820151600382015560808201516004909101805460a084015160c0909401511515600160a81b0260ff60a81b19941515600160a01b026001600160a81b03199092166001600160a01b03909416939093171792909216179055336000818152601260209081526040808320805460018101825590845292829020909201859055815192835282018490527f3249a06bd478adf780bb7930214ad005e9cfa517d63221c0b77f27199d1a58b3910160405180910390a15060019695505050505050565b6112718282612b3c565b6000818152601160205260408120548190801561212b5760008481526011602052604081206120cb600184613e17565b815481106120e957634e487b7160e01b600052603260045260246000fd5b60009182526020918290206040805180820190915260029092020180546001600160a01b03168083526001909101549190920181905294509250612134915050565b60008092509250505b915091565b60606000612146600d5490565b905061215181612b62565b91505090565b60006010828154811061217a57634e487b7160e01b600052603260045260246000fd5b90600052602060002090600502016040518060e001604052908160008201548152602001600182015481526020016002820180546121b790613e71565b80601f01602080910402602001604051908101604052809291908181526020018280546121e390613e71565b80156122305780601f1061220557610100808354040283529160200191612230565b820191906000526020600020905b81548152906001019060200180831161221357829003601f168201915b505050918352505060038201546020808301919091526004909201546001600160a01b03811660408084019190915260ff600160a01b8304811615156060850152600160a81b909204909116151560809092019190915260008581526011909252902054909150806122aa576122a5836118e0565b610ccd565b60008381526011602052604081206122c3600184613e17565b815481106122e157634e487b7160e01b600052603260045260246000fd5b60009182526020808320604080518082018252600290940290910180546001600160a01b03908116855260019091015492840183905260808801519151939550169281156108fc029290818181858888f1935050505061234057600080fd5b6123533082600001518560600151612ad4565b15611bae5760006010858154811061237b57634e487b7160e01b600052603260045260246000fd5b906000526020600020906005020160040160146101000a81548160ff0219169083151502179055506001601085815481106123c657634e487b7160e01b600052603260045260246000fd5b60009182526020918290206004600590920201018054921515600160a81b0260ff60a81b1990931692909217909155604080513381529182018690527f357afab190ee87fe0ef1c717f2728d2904d9e415a069d99f4d9382873cb3279d9101611ba5565b6124348282612c7d565b5050565b60006118a1836001600160a01b038416612d01565b60006001600160e01b0319821663780e9d6360e01b1480610a045750610a0482612d50565b6000908152600460205260409020546001600160a01b0316151590565b600081815260066020526040902080546001600160a01b0319166001600160a01b03841690811790915581906124c4826116f9565b6001600160a01b03167f8c5be1e5ebec7d5bd14f71427d1e84f3dd0314c0f7b2291e5b200ac8c7c3b92560405160405180910390a45050565b600061250882612472565b6125695760405162461bcd60e51b815260206004820152602c60248201527f4552433732313a206f70657261746f7220717565727920666f72206e6f6e657860448201526b34b9ba32b73a103a37b5b2b760a11b6064820152608401610b06565b6000612574836116f9565b9050806001600160a01b0316846001600160a01b031614806125af5750836001600160a01b03166125a484610a9e565b6001600160a01b0316145b806125df57506001600160a01b0380821660009081526007602090815260408083209388168352929052205460ff165b949350505050565b826001600160a01b03166125fa826116f9565b6001600160a01b0316146126625760405162461bcd60e51b815260206004820152602960248201527f4552433732313a207472616e73666572206f6620746f6b656e2074686174206960448201526839903737ba1037bbb760b91b6064820152608401610b06565b6001600160a01b0382166126c45760405162461bcd60e51b8152602060048201526024808201527f4552433732313a207472616e7366657220746f20746865207a65726f206164646044820152637265737360e01b6064820152608401610b06565b6126cf838383612d90565b6126da60008261248f565b6001600160a01b0383166000908152600560205260408120805460019290612703908490613e17565b90915550506001600160a01b0382166000908152600560205260408120805460019290612731908490613dcc565b909155505060008181526004602052604080822080546001600160a01b0319166001600160a01b0386811691821790925591518493918716917fddf252ad1be2c89b69c2b068fc378daa952ba7f163c4a11628f55a4df523b3ef91a4505050565b6000828152602081905260409020600101546127af81335b612d9b565b610ccd8383612c7d565b6001600160a01b03811633146128295760405162461bcd60e51b815260206004820152602f60248201527f416363657373436f6e74726f6c3a2063616e206f6e6c792072656e6f756e636560448201526e103937b632b9903337b91039b2b63360891b6064820152608401610b06565b6124348282612dff565b60006118a1836001600160a01b038416612e64565b600c5460ff166128915760405162461bcd60e51b815260206004820152601460248201527314185d5cd8589b194e881b9bdd081c185d5cd95960621b6044820152606401610b06565b600c805460ff191690557f5db9ee0a495bf2e6ff9c91a7834c1ba4fdd244a5e8aa4e537bd38aeae4b073aa335b6040516001600160a01b03909116815260200160405180910390a1565b60006128e6826116f9565b90506128f481600084612d90565b6128ff60008361248f565b6001600160a01b0381166000908152600560205260408120805460019290612928908490613e17565b909155505060008281526004602052604080822080546001600160a01b0319169055518391906001600160a01b038416907fddf252ad1be2c89b69c2b068fc378daa952ba7f163c4a11628f55a4df523b3ef908390a45050565b612434828260405180602001604052806000815250612f7b565b6129a583612472565b6129fd5760405162461bcd60e51b8152602060048201526024808201527f4d61737465723a2055524920736574206f66206e6f6e6578697374656e74207460448201526337b5b2b760e11b6064820152608401610b06565b6000838152600e602090815260409091208351612a1c928501906137ae565b506000928352600f602052604090922080546001600160a01b0319166001600160a01b039093169290921790915550565b600c5460ff1615612a935760405162461bcd60e51b815260206004820152601060248201526f14185d5cd8589b194e881c185d5cd95960821b6044820152606401610b06565b600c805460ff191660011790557f62e78cea01bee320cd4e420270b5ea74000d11b0c9f74754ebdbfc544b05a2586128be3390565b60006118a18383612fae565b6000612ae08383610bbc565b612aeb848484610ead565b5060019392505050565b6111b6828261242a565b612b0a8484846125e7565b612b1684848484613042565b611bae5760405162461bcd60e51b8152600401610b0690613c92565b6000610a04825490565b600082815260208190526040902060010154612b5881336127aa565b610ccd8383612dff565b606081612b8757506040805180820190915260018152600360fc1b6020820152610a07565b8160005b8115612bb15780612b9b81613eac565b9150612baa9050600a83613de4565b9150612b8b565b60008167ffffffffffffffff811115612bda57634e487b7160e01b600052604160045260246000fd5b6040519080825280601f01601f191660200182016040528015612c04576020820181803683370190505b5090505b84156125df57612c19600183613e17565b9150612c26600a86613ec7565b612c31906030613dcc565b60f81b818381518110612c5457634e487b7160e01b600052603260045260246000fd5b60200101906001600160f81b031916908160001a905350612c76600a86613de4565b9450612c08565b612c8782826118a8565b612434576000828152602081815260408083206001600160a01b03851684529091529020805460ff19166001179055612cbd3390565b6001600160a01b0316816001600160a01b0316837f2f8788117e7eff1d82e926ec794901d17c78024a50270940304540a733656f0d60405160405180910390a45050565b6000818152600183016020526040812054612d4857508154600181810184556000848152602080822090930184905584548482528286019093526040902091909155611261565b506000611261565b60006001600160e01b031982166380ac58cd60e01b1480612d8157506001600160e01b03198216635b5e139f60e01b145b80610a045750610a048261314f565b610ccd838383613174565b612da582826118a8565b61243457612dbd816001600160a01b031660146131e6565b612dc88360206131e6565b604051602001612dd9929190613b89565b60408051601f198184030181529082905262461bcd60e51b8252610b0691600401613c7f565b612e0982826118a8565b15612434576000828152602081815260408083206001600160a01b0385168085529252808320805460ff1916905551339285917ff6391f5c32d9c69d2a47ea670b442974b53935d1edc7fd64eb21e047a839171b9190a45050565b60008181526001830160205260408120548015612f71576000612e88600183613e17565b8554909150600090612e9c90600190613e17565b90506000866000018281548110612ec357634e487b7160e01b600052603260045260246000fd5b9060005260206000200154905080876000018481548110612ef457634e487b7160e01b600052603260045260246000fd5b600091825260208083209091019290925582815260018901909152604090208490558654879080612f3557634e487b7160e01b600052603160045260246000fd5b60019003818190600052602060002001600090559055866001016000878152602001908152602001600020600090556001945050505050611261565b6000915050611261565b612f8583836133c8565b612f926000848484613042565b610ccd5760405162461bcd60e51b8152600401610b0690613c92565b8154600090821061300c5760405162461bcd60e51b815260206004820152602260248201527f456e756d657261626c655365743a20696e646578206f7574206f6620626f756e604482015261647360f01b6064820152608401610b06565b82600001828154811061302f57634e487b7160e01b600052603260045260246000fd5b9060005260206000200154905092915050565b60006001600160a01b0384163b1561314457604051630a85bd0160e11b81526001600160a01b0385169063150b7a0290613086903390899088908890600401613bfe565b602060405180830381600087803b1580156130a057600080fd5b505af19250505080156130d0575060408051601f3d908101601f191682019092526130cd91810190613b16565b60015b61312a573d8080156130fe576040519150601f19603f3d011682016040523d82523d6000602084013e613103565b606091505b5080516131225760405162461bcd60e51b8152600401610b0690613c92565b805181602001fd5b6001600160e01b031916630a85bd0160e11b1490506125df565b506001949350505050565b60006001600160e01b03198216635a05180f60e01b1480610a045750610a0482613507565b61317f83838361353c565b600c5460ff1615610ccd5760405162461bcd60e51b815260206004820152602b60248201527f4552433732315061757361626c653a20746f6b656e207472616e73666572207760448201526a1a1a5b19481c185d5cd95960aa1b6064820152608401610b06565b606060006131f5836002613df8565b613200906002613dcc565b67ffffffffffffffff81111561322657634e487b7160e01b600052604160045260246000fd5b6040519080825280601f01601f191660200182016040528015613250576020820181803683370190505b509050600360fc1b8160008151811061327957634e487b7160e01b600052603260045260246000fd5b60200101906001600160f81b031916908160001a905350600f60fb1b816001815181106132b657634e487b7160e01b600052603260045260246000fd5b60200101906001600160f81b031916908160001a90535060006132da846002613df8565b6132e5906001613dcc565b90505b6001811115613379576f181899199a1a9b1b9c1cb0b131b232b360811b85600f166010811061332757634e487b7160e01b600052603260045260246000fd5b1a60f81b82828151811061334b57634e487b7160e01b600052603260045260246000fd5b60200101906001600160f81b031916908160001a90535060049490941c9361337281613e5a565b90506132e8565b5083156118a15760405162461bcd60e51b815260206004820181905260248201527f537472696e67733a20686578206c656e67746820696e73756666696369656e746044820152606401610b06565b6001600160a01b03821661341e5760405162461bcd60e51b815260206004820181905260248201527f4552433732313a206d696e7420746f20746865207a65726f20616464726573736044820152606401610b06565b61342781612472565b156134745760405162461bcd60e51b815260206004820152601c60248201527f4552433732313a20746f6b656e20616c7265616479206d696e746564000000006044820152606401610b06565b61348060008383612d90565b6001600160a01b03821660009081526005602052604081208054600192906134a9908490613dcc565b909155505060008181526004602052604080822080546001600160a01b0319166001600160a01b03861690811790915590518392907fddf252ad1be2c89b69c2b068fc378daa952ba7f163c4a11628f55a4df523b3ef908290a45050565b60006001600160e01b03198216637965db0b60e01b1480610a0457506301ffc9a760e01b6001600160e01b0319831614610a04565b6001600160a01b0383166135975761359281600a80546000838152600b60205260408120829055600182018355919091527fc65a7bb8d6351c1cf70c95a316cc6a92839c986682d98bc35f958f4883f9d2a80155565b6135ba565b816001600160a01b0316836001600160a01b0316146135ba576135ba83826135f4565b6001600160a01b0382166135d1576122a581613691565b826001600160a01b0316826001600160a01b031614610ccd57610ccd828261376a565b6000600161360184611770565b61360b9190613e17565b60008381526009602052604090205490915080821461365e576001600160a01b03841660009081526008602090815260408083208584528252808320548484528184208190558352600990915290208190555b5060009182526009602090815260408084208490556001600160a01b039094168352600881528383209183525290812055565b600a546000906136a390600190613e17565b6000838152600b6020526040812054600a80549394509092849081106136d957634e487b7160e01b600052603260045260246000fd5b9060005260206000200154905080600a838154811061370857634e487b7160e01b600052603260045260246000fd5b6000918252602080832090910192909255828152600b9091526040808220849055858252812055600a80548061374e57634e487b7160e01b600052603160045260246000fd5b6001900381819060005260206000200160009055905550505050565b600061377583611770565b6001600160a01b039093166000908152600860209081526040808320868452825280832085905593825260099052919091209190915550565b8280546137ba90613e71565b90600052602060002090601f0160209004810192826137dc5760008555613822565b82601f106137f557805160ff1916838001178555613822565b82800160010185558215613822579182015b82811115613822578251825591602001919060010190613807565b5061382e929150613832565b5090565b5b8082111561382e5760008155600101613833565b600067ffffffffffffffff8084111561386257613862613f07565b604051601f8501601f19908116603f0116810190828211818310171561388a5761388a613f07565b816040528093508581528686860111156138a357600080fd5b858560208301376000602087830101525050509392505050565b80356001600160a01b0381168114610a0757600080fd5b6000602082840312156138e5578081fd5b6118a1826138bd565b60008060408385031215613900578081fd5b613909836138bd565b9150613917602084016138bd565b90509250929050565b600080600060608486031215613934578081fd5b61393d846138bd565b925061394b602085016138bd565b9150604084013590509250925092565b60008060008060808587031215613970578081fd5b613979856138bd565b9350613987602086016138bd565b925060408501359150606085013567ffffffffffffffff8111156139a9578182fd5b8501601f810187136139b9578182fd5b6139c887823560208401613847565b91505092959194509250565b600080604083850312156139e6578182fd5b6139ef836138bd565b915060208301358015158114613a03578182fd5b809150509250929050565b600080600060608486031215613a22578283fd5b613a2b846138bd565b9250602084013567ffffffffffffffff811115613a46578283fd5b8401601f81018613613a56578283fd5b613a6586823560208401613847565b925050604084013590509250925092565b60008060408385031215613a88578182fd5b613a91836138bd565b946020939093013593505050565b600060208284031215613ab0578081fd5b5035919050565b60008060408385031215613ac9578182fd5b82359150613917602084016138bd565b60008060408385031215613aeb578182fd5b50508035926020909101359150565b600060208284031215613b0b578081fd5b81356118a181613f1d565b600060208284031215613b27578081fd5b81516118a181613f1d565b600080600060608486031215613b46578081fd5b505081359360208301359350604090920135919050565b60008151808452613b75816020860160208601613e2e565b601f01601f19169290920160200192915050565b60007f416363657373436f6e74726f6c3a206163636f756e742000000000000000000082528351613bc1816017850160208801613e2e565b7001034b99036b4b9b9b4b733903937b6329607d1b6017918401918201528351613bf2816028840160208801613e2e565b01602801949350505050565b6001600160a01b0385811682528416602082015260408101839052608060608201819052600090613c3190830184613b5d565b9695505050505050565b6020808252825182820181905260009190848201906040850190845b81811015613c7357835183529284019291840191600101613c57565b50909695505050505050565b6000602082526118a16020830184613b5d565b60208082526032908201527f4552433732313a207472616e7366657220746f206e6f6e20455243373231526560408201527131b2b4bb32b91034b6b83632b6b2b73a32b960711b606082015260800190565b60208082526031908201527f4552433732313a207472616e736665722063616c6c6572206973206e6f74206f6040820152701ddb995c881b9bdc88185c1c1c9bdd9959607a1b606082015260800190565b60208082526027908201527f4d61737465723a2055524920717565727920666f72206e6f6e6578697374656e6040820152663a103a37b5b2b760c91b606082015260800190565b600088825287602083015260e06040830152613d9b60e0830188613b5d565b6060830196909652506001600160a01b0393909316608084015290151560a0830152151560c0909101529392505050565b60008219821115613ddf57613ddf613edb565b500190565b600082613df357613df3613ef1565b500490565b6000816000190483118215151615613e1257613e12613edb565b500290565b600082821015613e2957613e29613edb565b500390565b60005b83811015613e49578181015183820152602001613e31565b83811115611bae5750506000910152565b600081613e6957613e69613edb565b506000190190565b600181811c90821680613e8557607f821691505b60208210811415613ea657634e487b7160e01b600052602260045260246000fd5b50919050565b6000600019821415613ec057613ec0613edb565b5060010190565b600082613ed657613ed6613ef1565b500690565b634e487b7160e01b600052601160045260246000fd5b634e487b7160e01b600052601260045260246000fd5b634e487b7160e01b600052604160045260246000fd5b6001600160e01b0319811681146113f457600080fdfe65d7a28e3265b37a6474929f336521b332c1681b933f6cb9f3376673440d862aa2646970667358221220b3a954fe439e646d1bd8d401bcbdba21a5fbe66c04b7b58b7cc0c633e8902c9464736f6c63430008030033",
  "immutableReferences": {},
  "source": "// SPDX-License-Identifier: Non-Licensed\r\npragma solidity ^0.8.0;\r\n\r\nimport \"../node_modules/@openzeppelin/contracts/token/ERC721/ERC721.sol\";\r\nimport \"../node_modules/@openzeppelin/contracts/token/ERC721/extensions/ERC721Enumerable.sol\";\r\nimport \"../node_modules/@openzeppelin/contracts/token/ERC721/extensions/ERC721Burnable.sol\";\r\nimport \"../node_modules/@openzeppelin/contracts/token/ERC721/extensions/ERC721Pausable.sol\";\r\nimport \"../node_modules/@openzeppelin/contracts/access/AccessControlEnumerable.sol\";\r\nimport \"../node_modules/@openzeppelin/contracts/utils/Context.sol\";\r\nimport \"../node_modules/@openzeppelin/contracts/utils/Counters.sol\";\r\n\r\n\r\ncontract Auction is Context, AccessControlEnumerable, ERC721Enumerable, ERC721Burnable, ERC721Pausable {\r\n    using Counters for Counters.Counter;\r\n    using Strings for uint256;\r\n\r\n    Counters.Counter private _tokenIdTracker;\r\n\r\n    bytes32 public constant MINTER_ROLE = keccak256(\"MINTER_ROLE\");\r\n    bytes32 public constant PAUSER_ROLE = keccak256(\"PAUSER_ROLE\");\r\n    bytes32 public constant DEED_ROLE = keccak256(\"DEED_ROLE\");\r\n    \r\n\r\n    // Optional mapping for token URIs\r\n    mapping (uint256 => string) private _tokenURIs;\r\n    mapping (uint256 => address) private _tokenCreators;\r\n\r\n\r\n    constructor() ERC721(\"fundaCoin\", \"funda\") {\r\n        _setupRole(DEFAULT_ADMIN_ROLE, _msgSender());\r\n        _setupRole(MINTER_ROLE, _msgSender());\r\n        _setupRole(PAUSER_ROLE, _msgSender());\r\n        _setupRole(DEED_ROLE, _msgSender());\r\n    }\r\n\r\n    function addOwnerOfContract(address newOwner) public{\r\n        require(hasRole(DEFAULT_ADMIN_ROLE, _msgSender()), \"Master: must have admin role!\");\r\n        _setupRole(DEFAULT_ADMIN_ROLE, newOwner);\r\n        _setupRole(MINTER_ROLE, newOwner);\r\n        _setupRole(PAUSER_ROLE, newOwner);\r\n    }\r\n\r\n    function testContractOwner() public view returns (string memory){\r\n        require(hasRole(DEFAULT_ADMIN_ROLE, _msgSender()), \"Master: must have admin role!\");\r\n        return \"You are contract owner!\";\r\n    }\r\n\r\n    // Auction struct which holds all the required info\r\n    struct Auction {\r\n        uint256 deadline;\r\n        uint256 startPrice;\r\n        string metadata;\r\n        uint256 tokenId;\r\n        address payable owner;\r\n        bool active;\r\n        bool finalized;\r\n    }\r\n\r\n    // Array with all auctions\r\n    Auction[] public auctions;\r\n\r\n    // Mapping from auction index to user bids\r\n    mapping(uint256 => Bid[]) public auctionBids;\r\n\r\n    // Mapping from owner to a list of owned auctions\r\n    mapping(address => uint[]) public auctionOwner;\r\n\r\n    mapping(address => uint[]) public tokenOwner;\r\n\r\n    // Bid struct to hold bidder and amount\r\n    struct Bid {\r\n        address payable from;\r\n        uint256 amount;\r\n    }\r\n\r\n    function getTokensOf(address _owner) public view returns(uint[] memory) {\r\n        uint[] memory ownedTokens = tokenOwner[_owner];\r\n        return ownedTokens;\r\n    }\r\n\r\n    /**\r\n    * @dev Gets the length of auctions\r\n    * @return uint representing the auction count\r\n    */\r\n    function getAuctionsCount() public view returns(uint) {\r\n        return auctions.length;\r\n    }\r\n\r\n    /**\r\n    * @dev Gets the bid counts of a given auction\r\n    * @param _auctionId uint ID of the auction\r\n    */\r\n    function getBidsCount(uint _auctionId) public view returns(uint) {\r\n        return auctionBids[_auctionId].length;\r\n    }\r\n\r\n    /**\r\n    * @dev Gets an array of owned auctions\r\n    * @param _owner address of the auction owner\r\n    */\r\n    function getAuctionsOf(address _owner) public view returns(uint[] memory) {\r\n        uint[] memory ownedAuctions = auctionOwner[_owner];\r\n        return ownedAuctions;\r\n    }\r\n\r\n    /**\r\n    * @dev Gets an array of owned auctions\r\n    * @param _auctionId uint of the auction owner\r\n    * @return amount uint256, address of last bidder\r\n    */\r\n    function getCurrentBid(uint _auctionId) public view returns(uint256, address) {\r\n        uint bidsLength = auctionBids[_auctionId].length;\r\n        // if there are bids refund the last bid\r\n        if( bidsLength > 0 ) {\r\n            Bid memory lastBid = auctionBids[_auctionId][bidsLength - 1];\r\n            return (lastBid.amount, lastBid.from);\r\n        }\r\n        return (uint256(0), address(0));\r\n    }\r\n\r\n    /**\r\n    * @dev Gets the total number of auctions owned by an address\r\n    * @param _owner address of the owner\r\n    * @return uint total number of auctions\r\n    */\r\n    function getAuctionsCountOfOwner(address _owner) public view returns(uint) {\r\n        return auctionOwner[_owner].length;\r\n    }\r\n\r\n    function getAuctionById(uint _auctionId) public view returns(\r\n        uint256 deadline,\r\n        uint256 startPrice,\r\n        string memory metadata,\r\n        uint256 tokenId,\r\n        address owner,\r\n        bool active,\r\n        bool finalized) {\r\n\r\n        Auction memory auc = auctions[_auctionId];\r\n        return (\r\n            auc.deadline, \r\n            auc.startPrice, \r\n            auc.metadata, \r\n            auc.tokenId, \r\n            auc.owner, \r\n            auc.active, \r\n            auc.finalized);\r\n    }\r\n    \r\n    function createAuction(uint256 _propertyId, uint256 _startPrice, uint _deadline) public virtual returns(bool) {\r\n        // address payable user = payable(msg.sender);\r\n        // address auctionContractAddress = address(this);\r\n        // from, to, id\r\n        // safeTransferFrom(user, auctionContractAddress, _propertyId);\r\n        \r\n        string memory _tokenURI = tokenURI(_propertyId);\r\n\r\n\r\n        //todo: use counter\r\n        uint auctionId = auctions.length;\r\n        Auction memory newAuction;\r\n        newAuction.deadline = _deadline;\r\n        newAuction.startPrice = _startPrice;\r\n        newAuction.metadata = _tokenURI;\r\n        newAuction.tokenId = _propertyId;\r\n        newAuction.owner = payable(msg.sender);\r\n        newAuction.active = true;\r\n        newAuction.finalized = false;\r\n        \r\n        auctions.push(newAuction);        \r\n        auctionOwner[msg.sender].push(auctionId);\r\n        \r\n        emit AuctionCreated(msg.sender, auctionId);\r\n        return true;\r\n    }\r\n\r\n    function approveAndTransfer(address _from, address _to,  uint256 _tokenId) internal returns(bool) {\r\n        approve(_to, _tokenId);\r\n        transferFrom(_from, _to, _tokenId);\r\n        return true;\r\n    }\r\n\r\n    modifier isOwner(uint _auctionId) {\r\n        require(auctions[_auctionId].owner == msg.sender);\r\n        _;\r\n    }\r\n\r\n    function cancelAuction(uint _auctionId) public isOwner(_auctionId){\r\n        Auction memory myAuction = auctions[_auctionId];\r\n        uint bidsLength = auctionBids[_auctionId].length;\r\n\r\n        // if there are bids refund the last bid\r\n        if( bidsLength > 0 ) {\r\n            Bid memory lastBid = auctionBids[_auctionId][bidsLength - 1];\r\n            if(!lastBid.from.send(lastBid.amount)) {\r\n                revert();\r\n            }\r\n        }\r\n\r\n        // approve and transfer from this contract to auction owner\r\n        if(approveAndTransfer(address(this), myAuction.owner, myAuction.tokenId)){\r\n            auctions[_auctionId].active = false;\r\n            emit AuctionCanceled(msg.sender, _auctionId);\r\n        }\r\n    }\r\n\r\n    function finalizeAuction(uint _auctionId) public {\r\n        Auction memory myAuction = auctions[_auctionId];\r\n        uint bidsLength = auctionBids[_auctionId].length;\r\n\r\n        // if there are no bids cancel\r\n        if(bidsLength == 0) {\r\n            cancelAuction(_auctionId);\r\n        }else{\r\n\r\n            // the money goes to the auction owner\r\n            Bid memory lastBid = auctionBids[_auctionId][bidsLength - 1];\r\n            if(!myAuction.owner.send(lastBid.amount)) {\r\n                revert();\r\n            }\r\n\r\n            // approve and transfer from this contract to the bid winner \r\n            if(approveAndTransfer(address(this), lastBid.from, myAuction.tokenId)){\r\n                auctions[_auctionId].active = false;\r\n                auctions[_auctionId].finalized = true;\r\n                emit AuctionFinalized(msg.sender, _auctionId);\r\n            }\r\n        }\r\n    }\r\n\r\n    function bidOnAuction(uint _auctionId) external payable {\r\n        uint256 ethAmountSent = msg.value;\r\n\r\n        // owner can't bid on their auctions\r\n        Auction memory myAuction = auctions[_auctionId];\r\n        if(myAuction.owner == msg.sender) revert();\r\n\r\n        // if auction is expired\r\n        if( block.timestamp > myAuction.deadline ) revert();\r\n\r\n        uint bidsLength = auctionBids[_auctionId].length;\r\n        uint256 tempAmount = myAuction.startPrice;\r\n        Bid memory lastBid;\r\n\r\n        // there are previous bids\r\n        if( bidsLength > 0 ) {\r\n            lastBid = auctionBids[_auctionId][bidsLength - 1];\r\n            tempAmount = lastBid.amount;\r\n        }\r\n\r\n        // check if amound is greater than previous amount  \r\n        if( ethAmountSent < tempAmount ) revert(); \r\n\r\n        // refund the last bidder\r\n        if( bidsLength > 0 ) {\r\n            if(!lastBid.from.send(lastBid.amount)) {\r\n                revert();\r\n            }  \r\n        }\r\n\r\n        // insert bid \r\n        Bid memory newBid;\r\n        newBid.from = payable(msg.sender);\r\n        newBid.amount = ethAmountSent;\r\n        auctionBids[_auctionId].push(newBid);\r\n        emit BidSuccess(msg.sender, _auctionId);\r\n    }\r\n\r\n    event BidSuccess(address _from, uint _auctionId);\r\n\r\n    // AuctionCreated is fired when an auction is created\r\n    event AuctionCreated(address _owner, uint _auctionId);\r\n\r\n    // AuctionCanceled is fired when an auction is canceled\r\n    event AuctionCanceled(address _owner, uint _auctionId);\r\n\r\n    // AuctionFinalized is fired when an auction is finalized\r\n    event AuctionFinalized(address _owner, uint _auctionId);\r\n\r\n    function _setTokenURI(uint256 tokenId, string memory _tokenURI, address creator) internal virtual {\r\n        require(_exists(tokenId), \"Master: URI set of nonexistent token\");\r\n        _tokenURIs[tokenId] = _tokenURI;\r\n        _tokenCreators[tokenId] = creator;\r\n    }\r\n\r\n    function tokenURI(uint256 tokenId) public view virtual override returns (string memory) {\r\n        require(_exists(tokenId), \"Master: URI query for nonexistent token\");\r\n\r\n        string memory _tokenURI = _tokenURIs[tokenId];\r\n        return _tokenURI;\r\n    }\r\n\r\n    function tokenCreator(uint256 tokenId) public view returns(address) {\r\n        require(_exists(tokenId), \"Master: URI query for nonexistent token\");\r\n\r\n        return _tokenCreators[tokenId];\r\n    }\r\n\r\n    //mint\r\n    function registerKadasterProperty(address to, string memory tokenURI_, uint256 tokenId) public virtual {\r\n        require(hasRole(MINTER_ROLE, _msgSender()), \"Master: must have minter role to mint\");\r\n        require(!_exists(tokenId), \"Master: TokenId already existent\");\r\n\r\n        _tokenIdTracker.increment();\r\n\r\n        _safeMint(to, tokenId);\r\n        _setTokenURI(tokenId, tokenURI_, to);\r\n        tokenOwner[to].push(tokenId);\r\n    }\r\n\r\n    function totalOfMintedTokens() public view returns(string memory) {\r\n        // return uint256 is you wish to return a BigNumber\r\n        uint256 numberOfMintedTokens = _tokenIdTracker.current();\r\n        return numberOfMintedTokens.toString();\r\n    }\r\n\r\n    function pause() public virtual {\r\n        require(hasRole(PAUSER_ROLE, _msgSender()), \"ERC721PresetMinterPauserAutoId: must have pauser role to pause\");\r\n        _pause();\r\n    }\r\n\r\n    function unpause() public virtual {\r\n        require(hasRole(PAUSER_ROLE, _msgSender()), \"ERC721PresetMinterPauserAutoId: must have pauser role to unpause\");\r\n        _unpause();\r\n    }\r\n\r\n    function _beforeTokenTransfer(address from, address to, uint256 tokenId) internal virtual override(ERC721, ERC721Enumerable, ERC721Pausable) {\r\n        super._beforeTokenTransfer(from, to, tokenId);\r\n    }\r\n\r\n    function supportsInterface(bytes4 interfaceId) public view virtual override(AccessControlEnumerable, ERC721, ERC721Enumerable) returns (bool) {\r\n        return super.supportsInterface(interfaceId);\r\n    }\r\n\r\n}",
  "sourcePath": "C:/hackathon/funda-marketplace-dapp/contract/contracts/Auction.sol",
  "compiler": {
    "name": "solc",
    "version": "0.8.3+commit.8d00100c.Emscripten.clang"
  },
  "schemaVersion": "3.4.1",
  "updatedAt": "2021-06-03T23:07:19.280Z",
  "networkType": "ethereum",
  "devdoc": {
    "kind": "dev",
    "methods": {
      "approve(address,uint256)": {
        "details": "See {IERC721-approve}."
      },
      "balanceOf(address)": {
        "details": "See {IERC721-balanceOf}."
      },
      "burn(uint256)": {
        "details": "Burns `tokenId`. See {ERC721-_burn}. Requirements: - The caller must own `tokenId` or be an approved operator."
      },
      "getApproved(uint256)": {
        "details": "See {IERC721-getApproved}."
      },
      "getAuctionsCount()": {
        "details": "Gets the length of auctions",
        "returns": {
          "_0": "uint representing the auction count"
        }
      },
      "getAuctionsCountOfOwner(address)": {
        "details": "Gets the total number of auctions owned by an address",
        "params": {
          "_owner": "address of the owner"
        },
        "returns": {
          "_0": "uint total number of auctions"
        }
      },
      "getAuctionsOf(address)": {
        "details": "Gets an array of owned auctions",
        "params": {
          "_owner": "address of the auction owner"
        }
      },
      "getBidsCount(uint256)": {
        "details": "Gets the bid counts of a given auction",
        "params": {
          "_auctionId": "uint ID of the auction"
        }
      },
      "getCurrentBid(uint256)": {
        "details": "Gets an array of owned auctions",
        "params": {
          "_auctionId": "uint of the auction owner"
        },
        "returns": {
          "_0": "amount uint256, address of last bidder"
        }
      },
      "getRoleAdmin(bytes32)": {
        "details": "Returns the admin role that controls `role`. See {grantRole} and {revokeRole}. To change a role's admin, use {_setRoleAdmin}."
      },
      "getRoleMember(bytes32,uint256)": {
        "details": "Returns one of the accounts that have `role`. `index` must be a value between 0 and {getRoleMemberCount}, non-inclusive. Role bearers are not sorted in any particular way, and their ordering may change at any point. WARNING: When using {getRoleMember} and {getRoleMemberCount}, make sure you perform all queries on the same block. See the following https://forum.openzeppelin.com/t/iterating-over-elements-on-enumerableset-in-openzeppelin-contracts/2296[forum post] for more information."
      },
      "getRoleMemberCount(bytes32)": {
        "details": "Returns the number of accounts that have `role`. Can be used together with {getRoleMember} to enumerate all bearers of a role."
      },
      "grantRole(bytes32,address)": {
        "details": "Overload {grantRole} to track enumerable memberships"
      },
      "hasRole(bytes32,address)": {
        "details": "Returns `true` if `account` has been granted `role`."
      },
      "isApprovedForAll(address,address)": {
        "details": "See {IERC721-isApprovedForAll}."
      },
      "name()": {
        "details": "See {IERC721Metadata-name}."
      },
      "ownerOf(uint256)": {
        "details": "See {IERC721-ownerOf}."
      },
      "paused()": {
        "details": "Returns true if the contract is paused, and false otherwise."
      },
      "renounceRole(bytes32,address)": {
        "details": "Overload {renounceRole} to track enumerable memberships"
      },
      "revokeRole(bytes32,address)": {
        "details": "Overload {revokeRole} to track enumerable memberships"
      },
      "safeTransferFrom(address,address,uint256)": {
        "details": "See {IERC721-safeTransferFrom}."
      },
      "safeTransferFrom(address,address,uint256,bytes)": {
        "details": "See {IERC721-safeTransferFrom}."
      },
      "setApprovalForAll(address,bool)": {
        "details": "See {IERC721-setApprovalForAll}."
      },
      "symbol()": {
        "details": "See {IERC721Metadata-symbol}."
      },
      "tokenByIndex(uint256)": {
        "details": "See {IERC721Enumerable-tokenByIndex}."
      },
      "tokenOfOwnerByIndex(address,uint256)": {
        "details": "See {IERC721Enumerable-tokenOfOwnerByIndex}."
      },
      "tokenURI(uint256)": {
        "details": "See {IERC721Metadata-tokenURI}."
      },
      "totalSupply()": {
        "details": "See {IERC721Enumerable-totalSupply}."
      },
      "transferFrom(address,address,uint256)": {
        "details": "See {IERC721-transferFrom}."
      }
    },
    "version": 1
  },
  "userdoc": {
    "kind": "user",
    "methods": {},
    "version": 1
  }
}