{
  "contractName": "Auction",
  "abi": [
    {
      "inputs": [],
      "stateMutability": "nonpayable",
      "type": "constructor"
    },
    {
      "anonymous": false,
      "inputs": [
        {
          "indexed": true,
          "internalType": "address",
          "name": "owner",
          "type": "address"
        },
        {
          "indexed": true,
          "internalType": "address",
          "name": "approved",
          "type": "address"
        },
        {
          "indexed": true,
          "internalType": "uint256",
          "name": "tokenId",
          "type": "uint256"
        }
      ],
      "name": "Approval",
      "type": "event"
    },
    {
      "anonymous": false,
      "inputs": [
        {
          "indexed": true,
          "internalType": "address",
          "name": "owner",
          "type": "address"
        },
        {
          "indexed": true,
          "internalType": "address",
          "name": "operator",
          "type": "address"
        },
        {
          "indexed": false,
          "internalType": "bool",
          "name": "approved",
          "type": "bool"
        }
      ],
      "name": "ApprovalForAll",
      "type": "event"
    },
    {
      "anonymous": false,
      "inputs": [
        {
          "indexed": false,
          "internalType": "address",
          "name": "_owner",
          "type": "address"
        },
        {
          "indexed": false,
          "internalType": "uint256",
          "name": "_auctionId",
          "type": "uint256"
        }
      ],
      "name": "AuctionCanceled",
      "type": "event"
    },
    {
      "anonymous": false,
      "inputs": [
        {
          "indexed": false,
          "internalType": "address",
          "name": "_owner",
          "type": "address"
        },
        {
          "indexed": false,
          "internalType": "uint256",
          "name": "_auctionId",
          "type": "uint256"
        }
      ],
      "name": "AuctionCreated",
      "type": "event"
    },
    {
      "anonymous": false,
      "inputs": [
        {
          "indexed": false,
          "internalType": "address",
          "name": "_owner",
          "type": "address"
        },
        {
          "indexed": false,
          "internalType": "uint256",
          "name": "_auctionId",
          "type": "uint256"
        }
      ],
      "name": "AuctionFinalized",
      "type": "event"
    },
    {
      "anonymous": false,
      "inputs": [
        {
          "indexed": false,
          "internalType": "address",
          "name": "_from",
          "type": "address"
        },
        {
          "indexed": false,
          "internalType": "uint256",
          "name": "_auctionId",
          "type": "uint256"
        }
      ],
      "name": "BidSuccess",
      "type": "event"
    },
    {
      "anonymous": false,
      "inputs": [
        {
          "indexed": false,
          "internalType": "address",
          "name": "account",
          "type": "address"
        }
      ],
      "name": "Paused",
      "type": "event"
    },
    {
      "anonymous": false,
      "inputs": [
        {
          "indexed": true,
          "internalType": "bytes32",
          "name": "role",
          "type": "bytes32"
        },
        {
          "indexed": true,
          "internalType": "bytes32",
          "name": "previousAdminRole",
          "type": "bytes32"
        },
        {
          "indexed": true,
          "internalType": "bytes32",
          "name": "newAdminRole",
          "type": "bytes32"
        }
      ],
      "name": "RoleAdminChanged",
      "type": "event"
    },
    {
      "anonymous": false,
      "inputs": [
        {
          "indexed": true,
          "internalType": "bytes32",
          "name": "role",
          "type": "bytes32"
        },
        {
          "indexed": true,
          "internalType": "address",
          "name": "account",
          "type": "address"
        },
        {
          "indexed": true,
          "internalType": "address",
          "name": "sender",
          "type": "address"
        }
      ],
      "name": "RoleGranted",
      "type": "event"
    },
    {
      "anonymous": false,
      "inputs": [
        {
          "indexed": true,
          "internalType": "bytes32",
          "name": "role",
          "type": "bytes32"
        },
        {
          "indexed": true,
          "internalType": "address",
          "name": "account",
          "type": "address"
        },
        {
          "indexed": true,
          "internalType": "address",
          "name": "sender",
          "type": "address"
        }
      ],
      "name": "RoleRevoked",
      "type": "event"
    },
    {
      "anonymous": false,
      "inputs": [
        {
          "indexed": true,
          "internalType": "address",
          "name": "from",
          "type": "address"
        },
        {
          "indexed": true,
          "internalType": "address",
          "name": "to",
          "type": "address"
        },
        {
          "indexed": true,
          "internalType": "uint256",
          "name": "tokenId",
          "type": "uint256"
        }
      ],
      "name": "Transfer",
      "type": "event"
    },
    {
      "anonymous": false,
      "inputs": [
        {
          "indexed": false,
          "internalType": "address",
          "name": "account",
          "type": "address"
        }
      ],
      "name": "Unpaused",
      "type": "event"
    },
    {
      "inputs": [],
      "name": "DEFAULT_ADMIN_ROLE",
      "outputs": [
        {
          "internalType": "bytes32",
          "name": "",
          "type": "bytes32"
        }
      ],
      "stateMutability": "view",
      "type": "function",
      "constant": true
    },
    {
      "inputs": [
        {
          "internalType": "address",
          "name": "to",
          "type": "address"
        },
        {
          "internalType": "uint256",
          "name": "tokenId",
          "type": "uint256"
        }
      ],
      "name": "approve",
      "outputs": [],
      "stateMutability": "nonpayable",
      "type": "function"
    },
    {
      "inputs": [
        {
          "internalType": "uint256",
          "name": "",
          "type": "uint256"
        },
        {
          "internalType": "uint256",
          "name": "",
          "type": "uint256"
        }
      ],
      "name": "auctionBids",
      "outputs": [
        {
          "internalType": "address payable",
          "name": "from",
          "type": "address"
        },
        {
          "internalType": "uint256",
          "name": "amount",
          "type": "uint256"
        }
      ],
      "stateMutability": "view",
      "type": "function",
      "constant": true
    },
    {
      "inputs": [
        {
          "internalType": "address",
          "name": "",
          "type": "address"
        },
        {
          "internalType": "uint256",
          "name": "",
          "type": "uint256"
        }
      ],
      "name": "auctionOwner",
      "outputs": [
        {
          "internalType": "uint256",
          "name": "",
          "type": "uint256"
        }
      ],
      "stateMutability": "view",
      "type": "function",
      "constant": true
    },
    {
      "inputs": [
        {
          "internalType": "uint256",
          "name": "",
          "type": "uint256"
        }
      ],
      "name": "auctions",
      "outputs": [
        {
          "internalType": "uint256",
          "name": "deadline",
          "type": "uint256"
        },
        {
          "internalType": "uint256",
          "name": "startPrice",
          "type": "uint256"
        },
        {
          "internalType": "string",
          "name": "metadata",
          "type": "string"
        },
        {
          "internalType": "uint256",
          "name": "tokenId",
          "type": "uint256"
        },
        {
          "internalType": "address payable",
          "name": "owner",
          "type": "address"
        },
        {
          "internalType": "bool",
          "name": "active",
          "type": "bool"
        },
        {
          "internalType": "bool",
          "name": "finalized",
          "type": "bool"
        }
      ],
      "stateMutability": "view",
      "type": "function",
      "constant": true
    },
    {
      "inputs": [
        {
          "internalType": "address",
          "name": "owner",
          "type": "address"
        }
      ],
      "name": "balanceOf",
      "outputs": [
        {
          "internalType": "uint256",
          "name": "",
          "type": "uint256"
        }
      ],
      "stateMutability": "view",
      "type": "function",
      "constant": true
    },
    {
      "inputs": [
        {
          "internalType": "uint256",
          "name": "tokenId",
          "type": "uint256"
        }
      ],
      "name": "burn",
      "outputs": [],
      "stateMutability": "nonpayable",
      "type": "function"
    },
    {
      "inputs": [
        {
          "internalType": "uint256",
          "name": "tokenId",
          "type": "uint256"
        }
      ],
      "name": "getApproved",
      "outputs": [
        {
          "internalType": "address",
          "name": "",
          "type": "address"
        }
      ],
      "stateMutability": "view",
      "type": "function",
      "constant": true
    },
    {
      "inputs": [
        {
          "internalType": "bytes32",
          "name": "role",
          "type": "bytes32"
        }
      ],
      "name": "getRoleAdmin",
      "outputs": [
        {
          "internalType": "bytes32",
          "name": "",
          "type": "bytes32"
        }
      ],
      "stateMutability": "view",
      "type": "function",
      "constant": true
    },
    {
      "inputs": [
        {
          "internalType": "bytes32",
          "name": "role",
          "type": "bytes32"
        },
        {
          "internalType": "uint256",
          "name": "index",
          "type": "uint256"
        }
      ],
      "name": "getRoleMember",
      "outputs": [
        {
          "internalType": "address",
          "name": "",
          "type": "address"
        }
      ],
      "stateMutability": "view",
      "type": "function",
      "constant": true
    },
    {
      "inputs": [
        {
          "internalType": "bytes32",
          "name": "role",
          "type": "bytes32"
        }
      ],
      "name": "getRoleMemberCount",
      "outputs": [
        {
          "internalType": "uint256",
          "name": "",
          "type": "uint256"
        }
      ],
      "stateMutability": "view",
      "type": "function",
      "constant": true
    },
    {
      "inputs": [
        {
          "internalType": "bytes32",
          "name": "role",
          "type": "bytes32"
        },
        {
          "internalType": "address",
          "name": "account",
          "type": "address"
        }
      ],
      "name": "grantRole",
      "outputs": [],
      "stateMutability": "nonpayable",
      "type": "function"
    },
    {
      "inputs": [
        {
          "internalType": "bytes32",
          "name": "role",
          "type": "bytes32"
        },
        {
          "internalType": "address",
          "name": "account",
          "type": "address"
        }
      ],
      "name": "hasRole",
      "outputs": [
        {
          "internalType": "bool",
          "name": "",
          "type": "bool"
        }
      ],
      "stateMutability": "view",
      "type": "function",
      "constant": true
    },
    {
      "inputs": [
        {
          "internalType": "address",
          "name": "owner",
          "type": "address"
        },
        {
          "internalType": "address",
          "name": "operator",
          "type": "address"
        }
      ],
      "name": "isApprovedForAll",
      "outputs": [
        {
          "internalType": "bool",
          "name": "",
          "type": "bool"
        }
      ],
      "stateMutability": "view",
      "type": "function",
      "constant": true
    },
    {
      "inputs": [],
      "name": "name",
      "outputs": [
        {
          "internalType": "string",
          "name": "",
          "type": "string"
        }
      ],
      "stateMutability": "view",
      "type": "function",
      "constant": true
    },
    {
      "inputs": [
        {
          "internalType": "uint256",
          "name": "tokenId",
          "type": "uint256"
        }
      ],
      "name": "ownerOf",
      "outputs": [
        {
          "internalType": "address",
          "name": "",
          "type": "address"
        }
      ],
      "stateMutability": "view",
      "type": "function",
      "constant": true
    },
    {
      "inputs": [],
      "name": "paused",
      "outputs": [
        {
          "internalType": "bool",
          "name": "",
          "type": "bool"
        }
      ],
      "stateMutability": "view",
      "type": "function",
      "constant": true
    },
    {
      "inputs": [
        {
          "internalType": "bytes32",
          "name": "role",
          "type": "bytes32"
        },
        {
          "internalType": "address",
          "name": "account",
          "type": "address"
        }
      ],
      "name": "renounceRole",
      "outputs": [],
      "stateMutability": "nonpayable",
      "type": "function"
    },
    {
      "inputs": [
        {
          "internalType": "bytes32",
          "name": "role",
          "type": "bytes32"
        },
        {
          "internalType": "address",
          "name": "account",
          "type": "address"
        }
      ],
      "name": "revokeRole",
      "outputs": [],
      "stateMutability": "nonpayable",
      "type": "function"
    },
    {
      "inputs": [
        {
          "internalType": "address",
          "name": "from",
          "type": "address"
        },
        {
          "internalType": "address",
          "name": "to",
          "type": "address"
        },
        {
          "internalType": "uint256",
          "name": "tokenId",
          "type": "uint256"
        }
      ],
      "name": "safeTransferFrom",
      "outputs": [],
      "stateMutability": "nonpayable",
      "type": "function"
    },
    {
      "inputs": [
        {
          "internalType": "address",
          "name": "from",
          "type": "address"
        },
        {
          "internalType": "address",
          "name": "to",
          "type": "address"
        },
        {
          "internalType": "uint256",
          "name": "tokenId",
          "type": "uint256"
        },
        {
          "internalType": "bytes",
          "name": "_data",
          "type": "bytes"
        }
      ],
      "name": "safeTransferFrom",
      "outputs": [],
      "stateMutability": "nonpayable",
      "type": "function"
    },
    {
      "inputs": [
        {
          "internalType": "address",
          "name": "operator",
          "type": "address"
        },
        {
          "internalType": "bool",
          "name": "approved",
          "type": "bool"
        }
      ],
      "name": "setApprovalForAll",
      "outputs": [],
      "stateMutability": "nonpayable",
      "type": "function"
    },
    {
      "inputs": [],
      "name": "symbol",
      "outputs": [
        {
          "internalType": "string",
          "name": "",
          "type": "string"
        }
      ],
      "stateMutability": "view",
      "type": "function",
      "constant": true
    },
    {
      "inputs": [
        {
          "internalType": "uint256",
          "name": "index",
          "type": "uint256"
        }
      ],
      "name": "tokenByIndex",
      "outputs": [
        {
          "internalType": "uint256",
          "name": "",
          "type": "uint256"
        }
      ],
      "stateMutability": "view",
      "type": "function",
      "constant": true
    },
    {
      "inputs": [
        {
          "internalType": "address",
          "name": "owner",
          "type": "address"
        },
        {
          "internalType": "uint256",
          "name": "index",
          "type": "uint256"
        }
      ],
      "name": "tokenOfOwnerByIndex",
      "outputs": [
        {
          "internalType": "uint256",
          "name": "",
          "type": "uint256"
        }
      ],
      "stateMutability": "view",
      "type": "function",
      "constant": true
    },
    {
      "inputs": [
        {
          "internalType": "address",
          "name": "",
          "type": "address"
        },
        {
          "internalType": "uint256",
          "name": "",
          "type": "uint256"
        }
      ],
      "name": "tokenOwner",
      "outputs": [
        {
          "internalType": "uint256",
          "name": "",
          "type": "uint256"
        }
      ],
      "stateMutability": "view",
      "type": "function",
      "constant": true
    },
    {
      "inputs": [],
      "name": "totalSupply",
      "outputs": [
        {
          "internalType": "uint256",
          "name": "",
          "type": "uint256"
        }
      ],
      "stateMutability": "view",
      "type": "function",
      "constant": true
    },
    {
      "inputs": [
        {
          "internalType": "address",
          "name": "from",
          "type": "address"
        },
        {
          "internalType": "address",
          "name": "to",
          "type": "address"
        },
        {
          "internalType": "uint256",
          "name": "tokenId",
          "type": "uint256"
        }
      ],
      "name": "transferFrom",
      "outputs": [],
      "stateMutability": "nonpayable",
      "type": "function"
    },
    {
      "inputs": [
        {
          "internalType": "address",
          "name": "_owner",
          "type": "address"
        }
      ],
      "name": "getTokensOf",
      "outputs": [
        {
          "internalType": "uint256[]",
          "name": "",
          "type": "uint256[]"
        }
      ],
      "stateMutability": "view",
      "type": "function",
      "constant": true
    },
    {
      "inputs": [
        {
          "internalType": "address",
          "name": "_owner",
          "type": "address"
        }
      ],
      "name": "getAuctionsOf",
      "outputs": [
        {
          "internalType": "uint256[]",
          "name": "",
          "type": "uint256[]"
        }
      ],
      "stateMutability": "view",
      "type": "function",
      "constant": true
    },
    {
      "inputs": [
        {
          "internalType": "uint256",
          "name": "_auctionId",
          "type": "uint256"
        }
      ],
      "name": "getCurrentBid",
      "outputs": [
        {
          "internalType": "uint256",
          "name": "",
          "type": "uint256"
        },
        {
          "internalType": "address",
          "name": "",
          "type": "address"
        }
      ],
      "stateMutability": "view",
      "type": "function",
      "constant": true
    },
    {
      "inputs": [
        {
          "internalType": "uint256",
          "name": "_auctionId",
          "type": "uint256"
        }
      ],
      "name": "getAuctionById",
      "outputs": [
        {
          "internalType": "uint256",
          "name": "deadline",
          "type": "uint256"
        },
        {
          "internalType": "uint256",
          "name": "startPrice",
          "type": "uint256"
        },
        {
          "internalType": "string",
          "name": "metadata",
          "type": "string"
        },
        {
          "internalType": "uint256",
          "name": "tokenId",
          "type": "uint256"
        },
        {
          "internalType": "address payable",
          "name": "owner",
          "type": "address"
        },
        {
          "internalType": "bool",
          "name": "active",
          "type": "bool"
        },
        {
          "internalType": "bool",
          "name": "finalized",
          "type": "bool"
        }
      ],
      "stateMutability": "view",
      "type": "function",
      "constant": true
    },
    {
      "inputs": [
        {
          "internalType": "uint256",
          "name": "_propertyId",
          "type": "uint256"
        },
        {
          "internalType": "uint256",
          "name": "_startPrice",
          "type": "uint256"
        },
        {
          "internalType": "uint256",
          "name": "_deadline",
          "type": "uint256"
        }
      ],
      "name": "createAuction",
      "outputs": [
        {
          "internalType": "bool",
          "name": "",
          "type": "bool"
        }
      ],
      "stateMutability": "nonpayable",
      "type": "function"
    },
    {
      "inputs": [
        {
          "internalType": "uint256",
          "name": "_auctionId",
          "type": "uint256"
        }
      ],
      "name": "cancelAuction",
      "outputs": [],
      "stateMutability": "nonpayable",
      "type": "function"
    },
    {
      "inputs": [
        {
          "internalType": "uint256",
          "name": "_auctionId",
          "type": "uint256"
        }
      ],
      "name": "finalizeAuction",
      "outputs": [],
      "stateMutability": "nonpayable",
      "type": "function"
    },
    {
      "inputs": [
        {
          "internalType": "uint256",
          "name": "_auctionId",
          "type": "uint256"
        }
      ],
      "name": "bidOnAuction",
      "outputs": [],
      "stateMutability": "payable",
      "type": "function",
      "payable": true
    },
    {
      "inputs": [
        {
          "internalType": "uint256",
          "name": "tokenId",
          "type": "uint256"
        }
      ],
      "name": "tokenURI",
      "outputs": [
        {
          "internalType": "string",
          "name": "",
          "type": "string"
        }
      ],
      "stateMutability": "view",
      "type": "function",
      "constant": true
    },
    {
      "inputs": [
        {
          "internalType": "uint256",
          "name": "tokenId",
          "type": "uint256"
        }
      ],
      "name": "tokenCreator",
      "outputs": [
        {
          "internalType": "address",
          "name": "",
          "type": "address"
        }
      ],
      "stateMutability": "view",
      "type": "function",
      "constant": true
    },
    {
      "inputs": [
        {
          "internalType": "address",
          "name": "to",
          "type": "address"
        },
        {
          "internalType": "string",
          "name": "tokenURI_",
          "type": "string"
        },
        {
          "internalType": "uint256",
          "name": "tokenId",
          "type": "uint256"
        }
      ],
      "name": "registerKadasterProperty",
      "outputs": [],
      "stateMutability": "nonpayable",
      "type": "function"
    },
    {
      "inputs": [],
      "name": "totalOfMintedTokens",
      "outputs": [
        {
          "internalType": "string",
          "name": "",
          "type": "string"
        }
      ],
      "stateMutability": "view",
      "type": "function",
      "constant": true
    },
    {
      "inputs": [
        {
          "internalType": "bytes4",
          "name": "interfaceId",
          "type": "bytes4"
        }
      ],
      "name": "supportsInterface",
      "outputs": [
        {
          "internalType": "bool",
          "name": "",
          "type": "bool"
        }
      ],
      "stateMutability": "view",
      "type": "function",
      "constant": true
    }
  ],
  "bytecode": "0x60806040523480156200001157600080fd5b506040805180820182526009815268333ab73230a1b7b4b760b91b60208083019182528351808501909452600584526466756e646160d81b9084015281519192916200006091600291620001fb565b50805162000076906003906020840190620001fb565b5050600c805460ff19169055506200009060003362000096565b620002de565b620000ad8282620000d960201b62001fa81760201c565b6000828152600160209081526040909120620000d491839062001fb6620000e9821b17901c565b505050565b620000e5828262000109565b5050565b600062000100836001600160a01b038416620001a9565b90505b92915050565b6000828152602081815260408083206001600160a01b038516845290915290205460ff16620000e5576000828152602081815260408083206001600160a01b03851684529091529020805460ff19166001179055620001653390565b6001600160a01b0316816001600160a01b0316837f2f8788117e7eff1d82e926ec794901d17c78024a50270940304540a733656f0d60405160405180910390a45050565b6000818152600183016020526040812054620001f25750815460018181018455600084815260208082209093018490558454848252828601909352604090209190915562000103565b50600062000103565b8280546200020990620002a1565b90600052602060002090601f0160209004810192826200022d576000855562000278565b82601f106200024857805160ff191683800117855562000278565b8280016001018555821562000278579182015b82811115620002785782518255916020019190600101906200025b565b50620002869291506200028a565b5090565b5b808211156200028657600081556001016200028b565b600181811c90821680620002b657607f821691505b60208210811415620002d857634e487b7160e01b600052602260045260246000fd5b50919050565b613a2680620002ee6000396000f3fe6080604052600436106102465760003560e01c80635f93de4911610139578063b88d4fde116100b6578063cda4beef1161007a578063cda4beef146106ff578063d547741f1461071f578063da4e364f1461073f578063e7ec78e31461077c578063e808386314610791578063e985e9c5146107b157610246565b8063b88d4fde1461065f578063bd9dfe271461067f578063c8756cda1461069f578063c87b56dd146106bf578063ca15c873146106df57610246565b806395d89b41116100fd57806395d89b41146105d557806396b5a755146105ea578063a217fddf1461060a578063a22cb4651461061f578063b1b61bfa1461063f57610246565b80635f93de49146105165780636352211e1461055557806370a08231146105755780639010d07c1461059557806391d14854146105b557610246565b80632f2ff15d116101c757806342966c681161018b57806342966c681461047e5780634589300b1461049e5780634f6ccce7146104be578063571a26a0146104de5780635c975abb146104fe57610246565b80632f2ff15d146103de5780632f745c59146103fe57806336568abe1461041e57806340c1a0641461043e57806342842e0e1461045e57610246565b806318111ada1161020e57806318111ada1461032957806318160ddd1461035c57806323b872dd1461037b578063248a9ca31461039b57806326b7aeea146103cb57610246565b806301ffc9a71461024b57806306fdde0314610280578063081812fc146102a2578063095ea7b3146102da5780630986b210146102fc575b600080fd5b34801561025757600080fd5b5061026b6102663660046135b7565b6107fa565b60405190151581526020015b60405180910390f35b34801561028c57600080fd5b5061029561080d565b604051610277919061373c565b3480156102ae57600080fd5b506102c26102bd36600461355c565b61089f565b6040516001600160a01b039091168152602001610277565b3480156102e657600080fd5b506102fa6102f5366004613533565b61092c565b005b34801561030857600080fd5b5061031c610317366004613391565b610a42565b60405161027791906136f8565b34801561033557600080fd5b5061034961034436600461355c565b610aae565b6040516102779796959493929190613839565b34801561036857600080fd5b50600a545b604051908152602001610277565b34801561038757600080fd5b506102fa6103963660046133dd565b610c1d565b3480156103a757600080fd5b5061036d6103b636600461355c565b60009081526020819052604090206001015490565b6102fa6103d936600461355c565b610c4f565b3480156103ea57600080fd5b506102fa6103f9366004613574565b610f1c565b34801561040a57600080fd5b5061036d610419366004613533565b610f3e565b34801561042a57600080fd5b506102fa610439366004613574565b610fd7565b34801561044a57600080fd5b506102c261045936600461355c565b610ff9565b34801561046a57600080fd5b506102fa6104793660046133dd565b61103c565b34801561048a57600080fd5b506102fa61049936600461355c565b611057565b3480156104aa57600080fd5b506102fa6104b93660046134cb565b6110d1565b3480156104ca57600080fd5b5061036d6104d936600461355c565b61117a565b3480156104ea57600080fd5b506103496104f936600461355c565b61121b565b34801561050a57600080fd5b50600c5460ff1661026b565b34801561052257600080fd5b50610536610531366004613596565b611309565b604080516001600160a01b039093168352602083019190915201610277565b34801561056157600080fd5b506102c261057036600461355c565b61134f565b34801561058157600080fd5b5061036d610590366004613391565b6113c6565b3480156105a157600080fd5b506102c26105b0366004613596565b61144d565b3480156105c157600080fd5b5061026b6105d0366004613574565b61146c565b3480156105e157600080fd5b50610295611495565b3480156105f657600080fd5b506102fa61060536600461355c565b6114a4565b34801561061657600080fd5b5061036d600081565b34801561062b57600080fd5b506102fa61063a366004613491565b611778565b34801561064b57600080fd5b5061031c61065a366004613391565b61184a565b34801561066b57600080fd5b506102fa61067a366004613418565b6118b4565b34801561068b57600080fd5b5061036d61069a366004613533565b6118e6565b3480156106ab57600080fd5b5061036d6106ba366004613533565b611917565b3480156106cb57600080fd5b506102956106da36600461355c565b611933565b3480156106eb57600080fd5b5061036d6106fa36600461355c565b6119ef565b34801561070b57600080fd5b5061026b61071a3660046135ef565b611a06565b34801561072b57600080fd5b506102fa61073a366004613574565b611c05565b34801561074b57600080fd5b5061075f61075a36600461355c565b611c0f565b604080519283526001600160a01b03909116602083015201610277565b34801561078857600080fd5b50610295611cad565b34801561079d57600080fd5b506102fa6107ac36600461355c565b611ccb565b3480156107bd57600080fd5b5061026b6107cc3660046133ab565b6001600160a01b03918216600090815260076020908152604080832093909416825291909152205460ff1690565b600061080582611fcb565b90505b919050565b60606002805461081c9061392e565b80601f01602080910402602001604051908101604052809291908181526020018280546108489061392e565b80156108955780601f1061086a57610100808354040283529160200191610895565b820191906000526020600020905b81548152906001019060200180831161087857829003601f168201915b5050505050905090565b60006108aa82611ff0565b6109105760405162461bcd60e51b815260206004820152602c60248201527f4552433732313a20617070726f76656420717565727920666f72206e6f6e657860448201526b34b9ba32b73a103a37b5b2b760a11b60648201526084015b60405180910390fd5b506000908152600660205260409020546001600160a01b031690565b60006109378261134f565b9050806001600160a01b0316836001600160a01b031614156109a55760405162461bcd60e51b815260206004820152602160248201527f4552433732313a20617070726f76616c20746f2063757272656e74206f776e656044820152603960f91b6064820152608401610907565b336001600160a01b03821614806109c157506109c181336107cc565b610a335760405162461bcd60e51b815260206004820152603860248201527f4552433732313a20617070726f76652063616c6c6572206973206e6f74206f7760448201527f6e6572206e6f7220617070726f76656420666f7220616c6c00000000000000006064820152608401610907565b610a3d838361200d565b505050565b6001600160a01b0381166000908152601460209081526040808320805482518185028101850190935280835260609493830182828015610aa157602002820191906000526020600020905b815481526020019060010190808311610a8d575b5093979650505050505050565b60008060606000806000806000600f8981548110610adc57634e487b7160e01b600052603260045260246000fd5b90600052602060002090600502016040518060e00160405290816000820154815260200160018201548152602001600282018054610b199061392e565b80601f0160208091040260200160405190810160405280929190818152602001828054610b459061392e565b8015610b925780601f10610b6757610100808354040283529160200191610b92565b820191906000526020600020905b815481529060010190602001808311610b7557829003601f168201915b505050918352505060038201546020808301919091526004909201546001600160a01b03811660408084019190915260ff600160a01b830481161515606080860191909152600160a81b90930416151560809384015284519385015190850151918501519285015160a086015160c090960151949f919e50919c50919a509850919650945092505050565b610c28335b8261207b565b610c445760405162461bcd60e51b8152600401610907906137a1565b610a3d838383612165565b60003490506000600f8381548110610c7757634e487b7160e01b600052603260045260246000fd5b90600052602060002090600502016040518060e00160405290816000820154815260200160018201548152602001600282018054610cb49061392e565b80601f0160208091040260200160405190810160405280929190818152602001828054610ce09061392e565b8015610d2d5780601f10610d0257610100808354040283529160200191610d2d565b820191906000526020600020905b815481529060010190602001808311610d1057829003601f168201915b5050509183525050600382015460208201526004909101546001600160a01b03808216604084015260ff600160a01b8304811615156060850152600160a81b90920490911615156080928301529082015191925016331415610d8e57600080fd5b8051421115610d9c57600080fd5b600083815260126020908152604080832054848301518251808401909352848352928201939093528215610e39576000868152601260205260409020610de36001856138d4565b81548110610e0157634e487b7160e01b600052603260045260246000fd5b60009182526020918290206040805180820190915260029092020180546001600160a01b031682526001015491810182905290925090505b81851015610e4657600080fd5b8215610e8157805160208201516040516001600160a01b039092169181156108fc0291906000818181858888f19350505050610e8157600080fd5b60408051808201825233808252602080830189815260008b81526012835285812080546001808201835591835291849020865160029093020180546001600160a01b0319166001600160a01b03909316929092178255915191015583519182528101899052825191927f5762e6a7d331cd17a1761e94de3ea3b85e90ee6cdd9d1204e361cc650689d46392918290030190a150505050505050565b610f268282612310565b6000828152600160205260409020610a3d9082611fb6565b6000610f49836113c6565b8210610fab5760405162461bcd60e51b815260206004820152602b60248201527f455243373231456e756d657261626c653a206f776e657220696e646578206f7560448201526a74206f6620626f756e647360a81b6064820152608401610907565b506001600160a01b03821660009081526008602090815260408083208484529091529020545b92915050565b610fe18282612337565b6000828152600160205260409020610a3d90826123b1565b600061100482611ff0565b6110205760405162461bcd60e51b8152600401610907906137f2565b506000908152601160205260409020546001600160a01b031690565b610a3d838383604051806020016040528060008152506118b4565b61106033610c22565b6110c55760405162461bcd60e51b815260206004820152603060248201527f4552433732314275726e61626c653a2063616c6c6572206973206e6f74206f7760448201526f1b995c881b9bdc88185c1c1c9bdd995960821b6064820152608401610907565b6110ce816123c6565b50565b6110da81611ff0565b156111275760405162461bcd60e51b815260206004820181905260248201527f4d61737465723a20546f6b656e496420616c7265616479206578697374656e746044820152606401610907565b611135600d80546001019055565b61113f838261246d565b61114a818385612487565b6001600160a01b039092166000908152601460209081526040822080546001810182559083529120019190915550565b6000611185600a5490565b82106111e85760405162461bcd60e51b815260206004820152602c60248201527f455243373231456e756d657261626c653a20676c6f62616c20696e646578206f60448201526b7574206f6620626f756e647360a01b6064820152608401610907565b600a828154811061120957634e487b7160e01b600052603260045260246000fd5b90600052602060002001549050919050565b600f818154811061122b57600080fd5b906000526020600020906005020160009150905080600001549080600101549080600201805461125a9061392e565b80601f01602080910402602001604051908101604052809291908181526020018280546112869061392e565b80156112d35780601f106112a8576101008083540402835291602001916112d3565b820191906000526020600020905b8154815290600101906020018083116112b657829003601f168201915b50505060038401546004909401549293926001600160a01b038116925060ff600160a01b820481169250600160a81b9091041687565b6012602052816000526040600020818154811061132557600080fd5b6000918252602090912060029091020180546001909101546001600160a01b039091169250905082565b6000818152600460205260408120546001600160a01b0316806108055760405162461bcd60e51b815260206004820152602960248201527f4552433732313a206f776e657220717565727920666f72206e6f6e657869737460448201526832b73a103a37b5b2b760b91b6064820152608401610907565b60006001600160a01b0382166114315760405162461bcd60e51b815260206004820152602a60248201527f4552433732313a2062616c616e636520717565727920666f7220746865207a65604482015269726f206164647265737360b01b6064820152608401610907565b506001600160a01b031660009081526005602052604090205490565b60008281526001602052604081206114659083612538565b9392505050565b6000918252602082815260408084206001600160a01b0393909316845291905290205460ff1690565b60606003805461081c9061392e565b80336001600160a01b0316600f82815481106114d057634e487b7160e01b600052603260045260246000fd5b60009182526020909120600460059092020101546001600160a01b0316146114f757600080fd5b6000600f838154811061151a57634e487b7160e01b600052603260045260246000fd5b90600052602060002090600502016040518060e001604052908160008201548152602001600182015481526020016002820180546115579061392e565b80601f01602080910402602001604051908101604052809291908181526020018280546115839061392e565b80156115d05780601f106115a5576101008083540402835291602001916115d0565b820191906000526020600020905b8154815290600101906020018083116115b357829003601f168201915b505050918352505060038201546020808301919091526004909201546001600160a01b03811660408084019190915260ff600160a01b8304811615156060850152600160a81b90920490911615156080909201919091526000868152601290925290205490915080156116ce5760008481526012602052604081206116566001846138d4565b8154811061167457634e487b7160e01b600052603260045260246000fd5b60009182526020808320604080518082018252600290940290910180546001600160a01b031680855260019091015492840183905290519294509281156108fc029290818181858888f193505050506116cc57600080fd5b505b6116e13083608001518460600151612544565b15611772576000600f858154811061170957634e487b7160e01b600052603260045260246000fd5b60009182526020918290206004600590920201018054921515600160a01b0260ff60a01b1990931692909217909155604080513381529182018690527f39e6c898ce035bbacd9ba4f9753534f8c9f976e0ff70be83cfe887f235afa1d391015b60405180910390a15b50505050565b6001600160a01b0382163314156117d15760405162461bcd60e51b815260206004820152601960248201527f4552433732313a20617070726f766520746f2063616c6c6572000000000000006044820152606401610907565b3360008181526007602090815260408083206001600160a01b0387168085529252909120805460ff1916841515179055906001600160a01b03167f17307eab39ab6107e8899845ad3d59bd9653f200f220920489ca2b5937696c318360405161183e911515815260200190565b60405180910390a35050565b6001600160a01b0381166000908152601360209081526040808320805482518185028101850190935280835260609493830182828015610aa15760200282019190600052602060002090815481526020019060010190808311610a8d575093979650505050505050565b6118be338361207b565b6118da5760405162461bcd60e51b8152600401610907906137a1565b61177284848484612565565b6014602052816000526040600020818154811061190257600080fd5b90600052602060002001600091509150505481565b6013602052816000526040600020818154811061190257600080fd5b606061193e82611ff0565b61195a5760405162461bcd60e51b8152600401610907906137f2565b600082815260106020526040812080546119739061392e565b80601f016020809104026020016040519081016040528092919081815260200182805461199f9061392e565b8015610aa15780601f106119c157610100808354040283529160200191610aa1565b820191906000526020600020905b8154815290600101906020018083116119cf575093979650505050505050565b600081815260016020526040812061080590612598565b600080611a1285611933565b90506000611a1f600e5490565b9050611a2f600e80546001019055565b611a7c6040518060e001604052806000815260200160008152602001606081526020016000815260200160006001600160a01b031681526020016000151581526020016000151581525090565b848152602080820187815260408301858152606084018a9052336080850152600160a08501819052600060c08601819052600f80549283018155905284517f8d1108e10bcb7c27dddfc02ed9d693a074039d026cf4ea4240b40f7d581ac802600590920291820190815592517f8d1108e10bcb7c27dddfc02ed9d693a074039d026cf4ea4240b40f7d581ac803820155905180518594611b40937f8d1108e10bcb7c27dddfc02ed9d693a074039d026cf4ea4240b40f7d581ac8040192019061326b565b506060820151600382015560808201516004909101805460a084015160c0909401511515600160a81b0260ff60a81b19941515600160a01b026001600160a81b03199092166001600160a01b03909416939093171792909216179055336000818152601360209081526040808320805460018101825590845292829020909201859055815192835282018490527f3249a06bd478adf780bb7930214ad005e9cfa517d63221c0b77f27199d1a58b3910160405180910390a15060019695505050505050565b610fe182826125a2565b60008181526012602052604081205481908015611c9f576000848152601260205260408120611c3f6001846138d4565b81548110611c5d57634e487b7160e01b600052603260045260246000fd5b60009182526020918290206040805180820190915260029092020180546001600160a01b03168083526001909101549190920181905294509250611ca8915050565b60008092509250505b915091565b60606000611cba600d5490565b9050611cc5816125c8565b91505090565b6000600f8281548110611cee57634e487b7160e01b600052603260045260246000fd5b90600052602060002090600502016040518060e00160405290816000820154815260200160018201548152602001600282018054611d2b9061392e565b80601f0160208091040260200160405190810160405280929190818152602001828054611d579061392e565b8015611da45780601f10611d7957610100808354040283529160200191611da4565b820191906000526020600020905b815481529060010190602001808311611d8757829003601f168201915b505050918352505060038201546020808301919091526004909201546001600160a01b03811660408084019190915260ff600160a01b8304811615156060850152600160a81b909204909116151560809092019190915260008581526012909252902054909150611e15600e6126e3565b80611e2857611e23836114a4565b610a3d565b6000838152601260205260408120611e416001846138d4565b81548110611e5f57634e487b7160e01b600052603260045260246000fd5b60009182526020808320604080518082018252600290940290910180546001600160a01b03908116855260019091015492840183905260808801519151939550169281156108fc029290818181858888f19350505050611ebe57600080fd5b611ed13082600001518560600151612544565b15611772576000600f8581548110611ef957634e487b7160e01b600052603260045260246000fd5b906000526020600020906005020160040160146101000a81548160ff0219169083151502179055506001600f8581548110611f4457634e487b7160e01b600052603260045260246000fd5b60009182526020918290206004600590920201018054921515600160a81b0260ff60a81b1990931692909217909155604080513381529182018690527f357afab190ee87fe0ef1c717f2728d2904d9e415a069d99f4d9382873cb3279d9101611769565b611fb2828261273a565b5050565b6000611465836001600160a01b0384166127be565b60006001600160e01b0319821663780e9d6360e01b148061080557506108058261280d565b6000908152600460205260409020546001600160a01b0316151590565b600081815260066020526040902080546001600160a01b0319166001600160a01b03841690811790915581906120428261134f565b6001600160a01b03167f8c5be1e5ebec7d5bd14f71427d1e84f3dd0314c0f7b2291e5b200ac8c7c3b92560405160405180910390a45050565b600061208682611ff0565b6120e75760405162461bcd60e51b815260206004820152602c60248201527f4552433732313a206f70657261746f7220717565727920666f72206e6f6e657860448201526b34b9ba32b73a103a37b5b2b760a11b6064820152608401610907565b60006120f28361134f565b9050806001600160a01b0316846001600160a01b0316148061212d5750836001600160a01b03166121228461089f565b6001600160a01b0316145b8061215d57506001600160a01b0380821660009081526007602090815260408083209388168352929052205460ff165b949350505050565b826001600160a01b03166121788261134f565b6001600160a01b0316146121e05760405162461bcd60e51b815260206004820152602960248201527f4552433732313a207472616e73666572206f6620746f6b656e2074686174206960448201526839903737ba1037bbb760b91b6064820152608401610907565b6001600160a01b0382166122425760405162461bcd60e51b8152602060048201526024808201527f4552433732313a207472616e7366657220746f20746865207a65726f206164646044820152637265737360e01b6064820152608401610907565b61224d83838361284d565b61225860008261200d565b6001600160a01b03831660009081526005602052604081208054600192906122819084906138d4565b90915550506001600160a01b03821660009081526005602052604081208054600192906122af908490613889565b909155505060008181526004602052604080822080546001600160a01b0319166001600160a01b0386811691821790925591518493918716917fddf252ad1be2c89b69c2b068fc378daa952ba7f163c4a11628f55a4df523b3ef91a4505050565b60008281526020819052604090206001015461232d81335b612858565b610a3d838361273a565b6001600160a01b03811633146123a75760405162461bcd60e51b815260206004820152602f60248201527f416363657373436f6e74726f6c3a2063616e206f6e6c792072656e6f756e636560448201526e103937b632b9903337b91039b2b63360891b6064820152608401610907565b611fb282826128bc565b6000611465836001600160a01b038416612921565b60006123d18261134f565b90506123df8160008461284d565b6123ea60008361200d565b6001600160a01b03811660009081526005602052604081208054600192906124139084906138d4565b909155505060008281526004602052604080822080546001600160a01b0319169055518391906001600160a01b038416907fddf252ad1be2c89b69c2b068fc378daa952ba7f163c4a11628f55a4df523b3ef908390a45050565b611fb2828260405180602001604052806000815250612a38565b61249083611ff0565b6124e85760405162461bcd60e51b8152602060048201526024808201527f4d61737465723a2055524920736574206f66206e6f6e6578697374656e74207460448201526337b5b2b760e11b6064820152608401610907565b600083815260106020908152604090912083516125079285019061326b565b5060009283526011602052604090922080546001600160a01b0319166001600160a01b039093169290921790915550565b60006114658383612a6b565b6000612550838361092c565b61255b848484610c1d565b5060019392505050565b612570848484612165565b61257c84848484612aff565b6117725760405162461bcd60e51b81526004016109079061374f565b6000610805825490565b6000828152602081905260409020600101546125be8133612328565b610a3d83836128bc565b6060816125ed57506040805180820190915260018152600360fc1b6020820152610808565b8160005b8115612617578061260181613969565b91506126109050600a836138a1565b91506125f1565b60008167ffffffffffffffff81111561264057634e487b7160e01b600052604160045260246000fd5b6040519080825280601f01601f19166020018201604052801561266a576020820181803683370190505b5090505b841561215d5761267f6001836138d4565b915061268c600a86613984565b612697906030613889565b60f81b8183815181106126ba57634e487b7160e01b600052603260045260246000fd5b60200101906001600160f81b031916908160001a9053506126dc600a866138a1565b945061266e565b8054806127325760405162461bcd60e51b815260206004820152601b60248201527f436f756e7465723a2064656372656d656e74206f766572666c6f7700000000006044820152606401610907565b600019019055565b612744828261146c565b611fb2576000828152602081815260408083206001600160a01b03851684529091529020805460ff1916600117905561277a3390565b6001600160a01b0316816001600160a01b0316837f2f8788117e7eff1d82e926ec794901d17c78024a50270940304540a733656f0d60405160405180910390a45050565b600081815260018301602052604081205461280557508154600181810184556000848152602080822090930184905584548482528286019093526040902091909155610fd1565b506000610fd1565b60006001600160e01b031982166380ac58cd60e01b148061283e57506001600160e01b03198216635b5e139f60e01b145b80610805575061080582612c0c565b610a3d838383612c31565b612862828261146c565b611fb25761287a816001600160a01b03166014612ca3565b612885836020612ca3565b604051602001612896929190613646565b60408051601f198184030181529082905262461bcd60e51b82526109079160040161373c565b6128c6828261146c565b15611fb2576000828152602081815260408083206001600160a01b0385168085529252808320805460ff1916905551339285917ff6391f5c32d9c69d2a47ea670b442974b53935d1edc7fd64eb21e047a839171b9190a45050565b60008181526001830160205260408120548015612a2e5760006129456001836138d4565b8554909150600090612959906001906138d4565b9050600086600001828154811061298057634e487b7160e01b600052603260045260246000fd5b90600052602060002001549050808760000184815481106129b157634e487b7160e01b600052603260045260246000fd5b6000918252602080832090910192909255828152600189019091526040902084905586548790806129f257634e487b7160e01b600052603160045260246000fd5b60019003818190600052602060002001600090559055866001016000878152602001908152602001600020600090556001945050505050610fd1565b6000915050610fd1565b612a428383612e85565b612a4f6000848484612aff565b610a3d5760405162461bcd60e51b81526004016109079061374f565b81546000908210612ac95760405162461bcd60e51b815260206004820152602260248201527f456e756d657261626c655365743a20696e646578206f7574206f6620626f756e604482015261647360f01b6064820152608401610907565b826000018281548110612aec57634e487b7160e01b600052603260045260246000fd5b9060005260206000200154905092915050565b60006001600160a01b0384163b15612c0157604051630a85bd0160e11b81526001600160a01b0385169063150b7a0290612b439033908990889088906004016136bb565b602060405180830381600087803b158015612b5d57600080fd5b505af1925050508015612b8d575060408051601f3d908101601f19168201909252612b8a918101906135d3565b60015b612be7573d808015612bbb576040519150601f19603f3d011682016040523d82523d6000602084013e612bc0565b606091505b508051612bdf5760405162461bcd60e51b81526004016109079061374f565b805181602001fd5b6001600160e01b031916630a85bd0160e11b14905061215d565b506001949350505050565b60006001600160e01b03198216635a05180f60e01b1480610805575061080582612fc4565b612c3c838383612ff9565b600c5460ff1615610a3d5760405162461bcd60e51b815260206004820152602b60248201527f4552433732315061757361626c653a20746f6b656e207472616e73666572207760448201526a1a1a5b19481c185d5cd95960aa1b6064820152608401610907565b60606000612cb28360026138b5565b612cbd906002613889565b67ffffffffffffffff811115612ce357634e487b7160e01b600052604160045260246000fd5b6040519080825280601f01601f191660200182016040528015612d0d576020820181803683370190505b509050600360fc1b81600081518110612d3657634e487b7160e01b600052603260045260246000fd5b60200101906001600160f81b031916908160001a905350600f60fb1b81600181518110612d7357634e487b7160e01b600052603260045260246000fd5b60200101906001600160f81b031916908160001a9053506000612d978460026138b5565b612da2906001613889565b90505b6001811115612e36576f181899199a1a9b1b9c1cb0b131b232b360811b85600f1660108110612de457634e487b7160e01b600052603260045260246000fd5b1a60f81b828281518110612e0857634e487b7160e01b600052603260045260246000fd5b60200101906001600160f81b031916908160001a90535060049490941c93612e2f81613917565b9050612da5565b5083156114655760405162461bcd60e51b815260206004820181905260248201527f537472696e67733a20686578206c656e67746820696e73756666696369656e746044820152606401610907565b6001600160a01b038216612edb5760405162461bcd60e51b815260206004820181905260248201527f4552433732313a206d696e7420746f20746865207a65726f20616464726573736044820152606401610907565b612ee481611ff0565b15612f315760405162461bcd60e51b815260206004820152601c60248201527f4552433732313a20746f6b656e20616c7265616479206d696e746564000000006044820152606401610907565b612f3d6000838361284d565b6001600160a01b0382166000908152600560205260408120805460019290612f66908490613889565b909155505060008181526004602052604080822080546001600160a01b0319166001600160a01b03861690811790915590518392907fddf252ad1be2c89b69c2b068fc378daa952ba7f163c4a11628f55a4df523b3ef908290a45050565b60006001600160e01b03198216637965db0b60e01b148061080557506301ffc9a760e01b6001600160e01b0319831614610805565b6001600160a01b0383166130545761304f81600a80546000838152600b60205260408120829055600182018355919091527fc65a7bb8d6351c1cf70c95a316cc6a92839c986682d98bc35f958f4883f9d2a80155565b613077565b816001600160a01b0316836001600160a01b0316146130775761307783826130b1565b6001600160a01b03821661308e57611e238161314e565b826001600160a01b0316826001600160a01b031614610a3d57610a3d8282613227565b600060016130be846113c6565b6130c891906138d4565b60008381526009602052604090205490915080821461311b576001600160a01b03841660009081526008602090815260408083208584528252808320548484528184208190558352600990915290208190555b5060009182526009602090815260408084208490556001600160a01b039094168352600881528383209183525290812055565b600a54600090613160906001906138d4565b6000838152600b6020526040812054600a805493945090928490811061319657634e487b7160e01b600052603260045260246000fd5b9060005260206000200154905080600a83815481106131c557634e487b7160e01b600052603260045260246000fd5b6000918252602080832090910192909255828152600b9091526040808220849055858252812055600a80548061320b57634e487b7160e01b600052603160045260246000fd5b6001900381819060005260206000200160009055905550505050565b6000613232836113c6565b6001600160a01b039093166000908152600860209081526040808320868452825280832085905593825260099052919091209190915550565b8280546132779061392e565b90600052602060002090601f01602090048101928261329957600085556132df565b82601f106132b257805160ff19168380011785556132df565b828001600101855582156132df579182015b828111156132df5782518255916020019190600101906132c4565b506132eb9291506132ef565b5090565b5b808211156132eb57600081556001016132f0565b600067ffffffffffffffff8084111561331f5761331f6139c4565b604051601f8501601f19908116603f01168101908282118183101715613347576133476139c4565b8160405280935085815286868601111561336057600080fd5b858560208301376000602087830101525050509392505050565b80356001600160a01b038116811461080857600080fd5b6000602082840312156133a2578081fd5b6114658261337a565b600080604083850312156133bd578081fd5b6133c68361337a565b91506133d46020840161337a565b90509250929050565b6000806000606084860312156133f1578081fd5b6133fa8461337a565b92506134086020850161337a565b9150604084013590509250925092565b6000806000806080858703121561342d578081fd5b6134368561337a565b93506134446020860161337a565b925060408501359150606085013567ffffffffffffffff811115613466578182fd5b8501601f81018713613476578182fd5b61348587823560208401613304565b91505092959194509250565b600080604083850312156134a3578182fd5b6134ac8361337a565b9150602083013580151581146134c0578182fd5b809150509250929050565b6000806000606084860312156134df578283fd5b6134e88461337a565b9250602084013567ffffffffffffffff811115613503578283fd5b8401601f81018613613513578283fd5b61352286823560208401613304565b925050604084013590509250925092565b60008060408385031215613545578182fd5b61354e8361337a565b946020939093013593505050565b60006020828403121561356d578081fd5b5035919050565b60008060408385031215613586578182fd5b823591506133d46020840161337a565b600080604083850312156135a8578182fd5b50508035926020909101359150565b6000602082840312156135c8578081fd5b8135611465816139da565b6000602082840312156135e4578081fd5b8151611465816139da565b600080600060608486031215613603578081fd5b505081359360208301359350604090920135919050565b600081518084526136328160208601602086016138eb565b601f01601f19169290920160200192915050565b60007f416363657373436f6e74726f6c3a206163636f756e74200000000000000000008252835161367e8160178501602088016138eb565b7001034b99036b4b9b9b4b733903937b6329607d1b60179184019182015283516136af8160288401602088016138eb565b01602801949350505050565b6001600160a01b03858116825284166020820152604081018390526080606082018190526000906136ee9083018461361a565b9695505050505050565b6020808252825182820181905260009190848201906040850190845b8181101561373057835183529284019291840191600101613714565b50909695505050505050565b600060208252611465602083018461361a565b60208082526032908201527f4552433732313a207472616e7366657220746f206e6f6e20455243373231526560408201527131b2b4bb32b91034b6b83632b6b2b73a32b960711b606082015260800190565b60208082526031908201527f4552433732313a207472616e736665722063616c6c6572206973206e6f74206f6040820152701ddb995c881b9bdc88185c1c1c9bdd9959607a1b606082015260800190565b60208082526027908201527f4d61737465723a2055524920717565727920666f72206e6f6e6578697374656e6040820152663a103a37b5b2b760c91b606082015260800190565b600088825287602083015260e0604083015261385860e083018861361a565b6060830196909652506001600160a01b0393909316608084015290151560a0830152151560c0909101529392505050565b6000821982111561389c5761389c613998565b500190565b6000826138b0576138b06139ae565b500490565b60008160001904831182151516156138cf576138cf613998565b500290565b6000828210156138e6576138e6613998565b500390565b60005b838110156139065781810151838201526020016138ee565b838111156117725750506000910152565b60008161392657613926613998565b506000190190565b600181811c9082168061394257607f821691505b6020821081141561396357634e487b7160e01b600052602260045260246000fd5b50919050565b600060001982141561397d5761397d613998565b5060010190565b600082613993576139936139ae565b500690565b634e487b7160e01b600052601160045260246000fd5b634e487b7160e01b600052601260045260246000fd5b634e487b7160e01b600052604160045260246000fd5b6001600160e01b0319811681146110ce57600080fdfea264697066735822122034ec728bb2e06380b96a2a651df2b756e30e9c2160bf4d58f03f82984af8cc5864736f6c63430008030033",
  "immutableReferences": {},
  "source": "// SPDX-License-Identifier: Non-Licensed\r\npragma solidity ^0.8.0;\r\n\r\nimport \"../node_modules/@openzeppelin/contracts/token/ERC721/ERC721.sol\";\r\nimport \"../node_modules/@openzeppelin/contracts/token/ERC721/extensions/ERC721Enumerable.sol\";\r\nimport \"../node_modules/@openzeppelin/contracts/token/ERC721/extensions/ERC721Burnable.sol\";\r\nimport \"../node_modules/@openzeppelin/contracts/token/ERC721/extensions/ERC721Pausable.sol\";\r\nimport \"../node_modules/@openzeppelin/contracts/access/AccessControlEnumerable.sol\";\r\nimport \"../node_modules/@openzeppelin/contracts/utils/Context.sol\";\r\nimport \"../node_modules/@openzeppelin/contracts/utils/Counters.sol\";\r\n\r\n\r\ncontract Auction is Context, AccessControlEnumerable, ERC721Enumerable, ERC721Burnable, ERC721Pausable {\r\n    using Counters for Counters.Counter;\r\n    using Strings for uint256;\r\n\r\n    Counters.Counter private _tokenIdTracker;\r\n    Counters.Counter private _auctionIdTracker;\r\n\r\n    AuctionDto[] public auctions;\r\n\r\n    struct AuctionDto {\r\n        uint256 deadline;\r\n        uint256 startPrice;\r\n        string metadata;\r\n        uint256 tokenId;\r\n        address payable owner;\r\n        bool active;\r\n        bool finalized;\r\n    }\r\n    \r\n    struct Bid {\r\n        address payable from;\r\n        uint256 amount;\r\n    }\r\n\r\n    // Optional mapping for token URIs\r\n    mapping (uint256 => string) private _tokenURIs;\r\n    mapping (uint256 => address) private _tokenCreators;\r\n\r\n\r\n    constructor() ERC721(\"fundaCoin\", \"funda\") {\r\n        _setupRole(DEFAULT_ADMIN_ROLE, _msgSender());\r\n    }\r\n\r\n    // Mapping from auction index to user bids\r\n    mapping(uint256 => Bid[]) public auctionBids;\r\n\r\n    // Mapping from owner to a list of owned auctions\r\n    mapping(address => uint[]) public auctionOwner;\r\n\r\n    mapping(address => uint[]) public tokenOwner;\r\n\r\n    function getTokensOf(address _owner) public view returns(uint[] memory) {\r\n        uint[] memory ownedTokens = tokenOwner[_owner];\r\n        return ownedTokens;\r\n    }\r\n\r\n    function getAuctionsOf(address _owner) public view returns(uint[] memory) {\r\n        uint[] memory ownedAuctions = auctionOwner[_owner];\r\n        return ownedAuctions;\r\n    }\r\n\r\n    function getCurrentBid(uint _auctionId) public view returns(uint256, address) {\r\n        uint bidsLength = auctionBids[_auctionId].length;\r\n        // if there are bids refund the last bid\r\n        if( bidsLength > 0 ) {\r\n            Bid memory lastBid = auctionBids[_auctionId][bidsLength - 1];\r\n            return (lastBid.amount, lastBid.from);\r\n        }\r\n        return (uint256(0), address(0));\r\n    }\r\n\r\n    function getAuctionById(uint _auctionId) public view returns(\r\n        uint256 deadline,\r\n        uint256 startPrice,\r\n        string memory metadata,\r\n        uint256 tokenId,\r\n        address payable owner,\r\n        bool active,\r\n        bool finalized) {\r\n\r\n        AuctionDto memory auc = auctions[_auctionId];\r\n        return (\r\n            auc.deadline, \r\n            auc.startPrice, \r\n            auc.metadata, \r\n            auc.tokenId, \r\n            auc.owner, \r\n            auc.active, \r\n            auc.finalized);\r\n    }\r\n    \r\n    function createAuction(uint256 _propertyId, uint256 _startPrice, uint _deadline) public virtual returns(bool) {\r\n        string memory _tokenURI = tokenURI(_propertyId);\r\n\r\n        uint auctionId = _auctionIdTracker.current();\r\n        _auctionIdTracker.increment();\r\n\r\n        AuctionDto memory newAuction;\r\n        newAuction.deadline = _deadline;\r\n        newAuction.startPrice = _startPrice;\r\n        newAuction.metadata = _tokenURI;\r\n        newAuction.tokenId = _propertyId;\r\n        newAuction.owner = payable(msg.sender);\r\n        newAuction.active = true;\r\n        newAuction.finalized = false;\r\n        \r\n        auctions.push(newAuction);        \r\n        auctionOwner[msg.sender].push(auctionId);\r\n        \r\n        emit AuctionCreated(msg.sender, auctionId);\r\n\r\n        return true;\r\n    }\r\n\r\n    function approveAndTransfer(address _from, address _to,  uint256 _tokenId) internal returns(bool) {\r\n        approve(_to, _tokenId);\r\n        transferFrom(_from, _to, _tokenId);\r\n        return true;\r\n    }\r\n\r\n    modifier isOwner(uint _auctionId) {\r\n        require(auctions[_auctionId].owner == msg.sender);\r\n        _;\r\n    }\r\n\r\n    function cancelAuction(uint _auctionId) public isOwner(_auctionId){\r\n        AuctionDto memory myAuction = auctions[_auctionId];\r\n        uint bidsLength = auctionBids[_auctionId].length;\r\n\r\n        // if there are bids refund the last bid\r\n        if( bidsLength > 0 ) {\r\n            Bid memory lastBid = auctionBids[_auctionId][bidsLength - 1];\r\n            if(!lastBid.from.send(lastBid.amount)) {\r\n                revert();\r\n            }\r\n        }\r\n\r\n        // approve and transfer from this contract to auction owner\r\n        if(approveAndTransfer(address(this), myAuction.owner, myAuction.tokenId)){\r\n            auctions[_auctionId].active = false;\r\n            emit AuctionCanceled(msg.sender, _auctionId);\r\n        }\r\n    }\r\n\r\n    function finalizeAuction(uint _auctionId) public {\r\n        AuctionDto memory myAuction = auctions[_auctionId];\r\n        uint bidsLength = auctionBids[_auctionId].length;\r\n\r\n        _auctionIdTracker.decrement();\r\n\r\n        // if there are no bids cancel\r\n        if(bidsLength == 0) {\r\n            cancelAuction(_auctionId);\r\n        }else{\r\n\r\n            // the money goes to the auction owner\r\n            Bid memory lastBid = auctionBids[_auctionId][bidsLength - 1];\r\n            if(!myAuction.owner.send(lastBid.amount)) {\r\n                revert();\r\n            }\r\n\r\n            // approve and transfer from this contract to the bid winner \r\n            if(approveAndTransfer(address(this), lastBid.from, myAuction.tokenId)){\r\n                auctions[_auctionId].active = false;\r\n                auctions[_auctionId].finalized = true;\r\n                emit AuctionFinalized(msg.sender, _auctionId);\r\n            }\r\n        }\r\n    }\r\n\r\n    function bidOnAuction(uint _auctionId) external payable {\r\n        uint256 ethAmountSent = msg.value;\r\n\r\n        // owner can't bid on their auctions\r\n        AuctionDto memory myAuction = auctions[_auctionId];\r\n        if(myAuction.owner == msg.sender) revert();\r\n\r\n        // if auction is expired\r\n        if( block.timestamp > myAuction.deadline ) revert();\r\n\r\n        uint bidsLength = auctionBids[_auctionId].length;\r\n        uint256 tempAmount = myAuction.startPrice;\r\n        Bid memory lastBid;\r\n\r\n        // there are previous bids\r\n        if( bidsLength > 0 ) {\r\n            lastBid = auctionBids[_auctionId][bidsLength - 1];\r\n            tempAmount = lastBid.amount;\r\n        }\r\n\r\n        // check if amound is greater than previous amount  \r\n        if( ethAmountSent < tempAmount ) revert(); \r\n\r\n        // refund the last bidder\r\n        if( bidsLength > 0 ) {\r\n            if(!lastBid.from.send(lastBid.amount)) {\r\n                revert();\r\n            }  \r\n        }\r\n\r\n        // insert bid \r\n        Bid memory newBid;\r\n        newBid.from = payable(msg.sender);\r\n        newBid.amount = ethAmountSent;\r\n        auctionBids[_auctionId].push(newBid);\r\n        emit BidSuccess(msg.sender, _auctionId);\r\n    }\r\n\r\n    event BidSuccess(address _from, uint _auctionId);\r\n\r\n    // AuctionCreated is fired when an auction is created\r\n    event AuctionCreated(address _owner, uint _auctionId);\r\n\r\n    // AuctionCanceled is fired when an auction is canceled\r\n    event AuctionCanceled(address _owner, uint _auctionId);\r\n\r\n    // AuctionFinalized is fired when an auction is finalized\r\n    event AuctionFinalized(address _owner, uint _auctionId);\r\n\r\n    function _setTokenURI(uint256 tokenId, string memory _tokenURI, address creator) internal virtual {\r\n        require(_exists(tokenId), \"Master: URI set of nonexistent token\");\r\n        _tokenURIs[tokenId] = _tokenURI;\r\n        _tokenCreators[tokenId] = creator;\r\n    }\r\n\r\n    function tokenURI(uint256 tokenId) public view virtual override returns (string memory) {\r\n        require(_exists(tokenId), \"Master: URI query for nonexistent token\");\r\n\r\n        string memory _tokenURI = _tokenURIs[tokenId];\r\n        return _tokenURI;\r\n    }\r\n\r\n    function tokenCreator(uint256 tokenId) public view returns(address) {\r\n        require(_exists(tokenId), \"Master: URI query for nonexistent token\");\r\n\r\n        return _tokenCreators[tokenId];\r\n    }\r\n\r\n    //mint\r\n    function registerKadasterProperty(address to, string memory tokenURI_, uint256 tokenId) public virtual {\r\n        require(!_exists(tokenId), \"Master: TokenId already existent\");\r\n\r\n        _tokenIdTracker.increment();\r\n\r\n        _safeMint(to, tokenId);\r\n        _setTokenURI(tokenId, tokenURI_, to);\r\n        tokenOwner[to].push(tokenId);\r\n    }\r\n\r\n    function totalOfMintedTokens() public view returns(string memory) {\r\n        // return uint256 is you wish to return a BigNumber\r\n        uint256 numberOfMintedTokens = _tokenIdTracker.current();\r\n        return numberOfMintedTokens.toString();\r\n    }\r\n\r\n    function _beforeTokenTransfer(address from, address to, uint256 tokenId) internal virtual override(ERC721, ERC721Enumerable, ERC721Pausable) {\r\n        super._beforeTokenTransfer(from, to, tokenId);\r\n    }\r\n\r\n    function supportsInterface(bytes4 interfaceId) public view virtual override(AccessControlEnumerable, ERC721, ERC721Enumerable) returns (bool) {\r\n        return super.supportsInterface(interfaceId);\r\n    }\r\n\r\n}",
  "sourcePath": "C:/hackathon/funda-marketplace-dapp/contract/contracts/Auction.sol",
  "compiler": {
    "name": "solc",
    "version": "0.8.3+commit.8d00100c.Emscripten.clang"
  },
  "schemaVersion": "3.4.1",
  "updatedAt": "2021-06-04T09:24:30.669Z",
  "networkType": "ethereum",
  "devdoc": {
    "kind": "dev",
    "methods": {
      "approve(address,uint256)": {
        "details": "See {IERC721-approve}."
      },
      "balanceOf(address)": {
        "details": "See {IERC721-balanceOf}."
      },
      "burn(uint256)": {
        "details": "Burns `tokenId`. See {ERC721-_burn}. Requirements: - The caller must own `tokenId` or be an approved operator."
      },
      "getApproved(uint256)": {
        "details": "See {IERC721-getApproved}."
      },
      "getRoleAdmin(bytes32)": {
        "details": "Returns the admin role that controls `role`. See {grantRole} and {revokeRole}. To change a role's admin, use {_setRoleAdmin}."
      },
      "getRoleMember(bytes32,uint256)": {
        "details": "Returns one of the accounts that have `role`. `index` must be a value between 0 and {getRoleMemberCount}, non-inclusive. Role bearers are not sorted in any particular way, and their ordering may change at any point. WARNING: When using {getRoleMember} and {getRoleMemberCount}, make sure you perform all queries on the same block. See the following https://forum.openzeppelin.com/t/iterating-over-elements-on-enumerableset-in-openzeppelin-contracts/2296[forum post] for more information."
      },
      "getRoleMemberCount(bytes32)": {
        "details": "Returns the number of accounts that have `role`. Can be used together with {getRoleMember} to enumerate all bearers of a role."
      },
      "grantRole(bytes32,address)": {
        "details": "Overload {grantRole} to track enumerable memberships"
      },
      "hasRole(bytes32,address)": {
        "details": "Returns `true` if `account` has been granted `role`."
      },
      "isApprovedForAll(address,address)": {
        "details": "See {IERC721-isApprovedForAll}."
      },
      "name()": {
        "details": "See {IERC721Metadata-name}."
      },
      "ownerOf(uint256)": {
        "details": "See {IERC721-ownerOf}."
      },
      "paused()": {
        "details": "Returns true if the contract is paused, and false otherwise."
      },
      "renounceRole(bytes32,address)": {
        "details": "Overload {renounceRole} to track enumerable memberships"
      },
      "revokeRole(bytes32,address)": {
        "details": "Overload {revokeRole} to track enumerable memberships"
      },
      "safeTransferFrom(address,address,uint256)": {
        "details": "See {IERC721-safeTransferFrom}."
      },
      "safeTransferFrom(address,address,uint256,bytes)": {
        "details": "See {IERC721-safeTransferFrom}."
      },
      "setApprovalForAll(address,bool)": {
        "details": "See {IERC721-setApprovalForAll}."
      },
      "symbol()": {
        "details": "See {IERC721Metadata-symbol}."
      },
      "tokenByIndex(uint256)": {
        "details": "See {IERC721Enumerable-tokenByIndex}."
      },
      "tokenOfOwnerByIndex(address,uint256)": {
        "details": "See {IERC721Enumerable-tokenOfOwnerByIndex}."
      },
      "tokenURI(uint256)": {
        "details": "See {IERC721Metadata-tokenURI}."
      },
      "totalSupply()": {
        "details": "See {IERC721Enumerable-totalSupply}."
      },
      "transferFrom(address,address,uint256)": {
        "details": "See {IERC721-transferFrom}."
      }
    },
    "version": 1
  },
  "userdoc": {
    "kind": "user",
    "methods": {},
    "version": 1
  }
}